:020000040800F2
:100000000000022005120008691000086B100008AB
:100010006D1000086F10000871100008000000004B
:100020000000000000000000000000007310000845
:100030007510000800000000771000087910000813
:1000400055120008551200085512000855120008F4
:1000500055120008551200085512000855120008E4
:1000600055120008551200085512000855120008D4
:1000700055120008551200085512000855120008C4
:100080005512000855120008551200080000000023
:1000900000000000000000000000000055120008F1
:1000A0005512000855120008551200085512000894
:1000B0005512000855120008551200085512000884
:1000C0005512000855120008551200085512000874
:1000D00055120008811000085512000800000000A9
:1000E00055120008551200085512000800000000C3
:1000F0000000000000000000000000005512000891
:1001000000000000551200085512000855120008A2
:1001100000000000000000000000000000000000DF
:100120005512000855120008551200085512000813
:100130005512000800000000000000000000000050
:100140000000000000000000000000005512000840
:1001500055120008551200085512000855120008E3
:1001600055120008551200080000000000000000B1
:10017000000000000000000000000000000000007F
:100180000000000055120008000000000000000000
:08019000551200085512000889
:1001C00053B94AB9002908BF00281CBF4FF0FF31BE
:1001D0004FF0FF3000F00CB8ADF1080C6DE904CE23
:1001E00002F0B4F8DDF804E0DDE9022304B0704762
:1001F000704700BF00000000000000000000000089
:1002000001F0FF01102A2BDB10F0070F08D010F8C7
:10021000013B013A8B422DD010F0070F42B3F6D1CB
:10022000F0B441EA012141EA014122F007047FF0E4
:1002300000070023F0E80256083C85EA010586EA3B
:10024000010685FA47F5A3FA87F586FA47F6A5FA77
:1002500087F68EB9EED1F0BC01F0FF0102F0070283
:1002600032B110F8013B013A83EA010313B1F8D12E
:100270000020704701387047002D06BF354603380F
:10028000073815F0010F07D1013015F4807F02BF48
:10029000013015F4C03F0130F0BC0138704700BF99
:1002A000000000000000000000000000000000004E
:1002B000000000000000000000000000000000003E
:1002C00030B490F800F020F007016FF0000C10F04F
:1002D000070491F820F040F048804FF000046FF0E0
:1002E0000700D1E9002391F840F000F1080082FAFC
:1002F0004CF2A4FA8CF283FA4CF3A2FA8CF34BBBC7
:10030000D1E9022382FA4CF200F10800A4FA8CF23F
:1003100083FA4CF3A2FA8CF3E3B9D1E9042382FA0D
:100320004CF200F10800A4FA8CF283FA4CF3A2FA22
:100330008CF37BB9D1E9062301F1200182FA4CF25A
:1003400000F10800A4FA8CF283FA4CF3A2FA8CF3C1
:10035000002BC6D0002A04BF04301A4612BAB2FAE3
:1003600082F200EBD20030BC7047D1E9002304F0E8
:100370000305C4F100004FEAC50514F0040F91F81D
:1003800040F00CFA05F562EA05021CBF63EA0503BA
:1003900062464FF00004AAE7844641EA000313F0E6
:1003A00003036DD1403A41D351F8043B40F8043B7C
:1003B00051F8043B40F8043B51F8043B40F8043B3F
:1003C00051F8043B40F8043B51F8043B40F8043B2F
:1003D00051F8043B40F8043B51F8043B40F8043B1F
:1003E00051F8043B40F8043B51F8043B40F8043B0F
:1003F00051F8043B40F8043B51F8043B40F8043BFF
:1004000051F8043B40F8043B51F8043B40F8043BEE
:1004100051F8043B40F8043B51F8043B40F8043BDE
:1004200051F8043B40F8043B403ABDD2303211D37E
:1004300051F8043B40F8043B51F8043B40F8043BBE
:1004400051F8043B40F8043B51F8043B40F8043BAE
:10045000103AEDD20C3205D351F8043B40F8043B7E
:10046000043AF9D2043208D0D2071CBF11F8013B7C
:1004700000F8013B01D30B8803806046704700BF42
:10048000082A13D38B078DD010F003038AD0C3F151
:100490000403D21ADB071CBF11F8013B00F8013B33
:1004A00080D331F8023B20F8023B7BE7043AD9D3F2
:1004B000013A11F8013B00F8013BF9D20B780370C7
:1004C0004B7843708B7883706046704781F00041B1
:1004D00002E000BF83F0004330B54FEA41044FEA29
:1004E000430594EA050F08BF90EA020F1FBF54EAC4
:1004F000000C55EA020C7FEA645C7FEA655C00F060
:10050000E2804FEA5454D4EB5555B8BF6D420CDD30
:100510002C4480EA020281EA030382EA000083EAB3
:10052000010180EA020281EA0303362D88BF30BD53
:1005300011F0004F4FEA01314FF4801C4CEA1131A9
:1005400002D0404261EB410113F0004F4FEA033308
:100550004CEA133302D0524263EB430394EA050F93
:1005600000F0A780A4F10104D5F1200E0DDB02FA02
:100570000EFC22FA05F2801841F1000103FA0EF296
:10058000801843FA05F359410EE0A5F120050EF15C
:10059000200E012A03FA0EFC28BF4CF0020C43FA8D
:1005A00005F3C01851EBE37101F0004507D54FF09A
:1005B000000EDCF1000C7EEB00006EEB0101B1F5EA
:1005C000801F1BD3B1F5001F0CD349085FEA300030
:1005D0004FEA3C0C04F101044FEA445212F5800F3B
:1005E00080F09A80BCF1004F08BF5FEA500C50F1D8
:1005F000000041EB045141EA050130BD5FEA4C0CBB
:10060000404141EB0101013C28BFB1F5801FE9D217
:1006100091F0000F04BF01460020B1FA81F308BF3A
:100620002033A3F10B03B3F120020CDA0C3208DD06
:1006300002F1140CC2F10C0201FA0CF021FA02F1E1
:100640000CE002F11402D8BFC2F1200C01FA02F151
:1006500020FA0CFCDCBF41EA0C019040E41AA2BF76
:1006600001EB0451294330BD6FEA04041F3C1CDA3E
:100670000C340EDC04F11404C4F1200220FA04F05E
:1006800001FA02F340EA030021FA04F345EA030108
:1006900030BDC4F10C04C4F1200220FA02F001FACA
:1006A00004F340EA0300294630BD21FA04F029464C
:1006B00030BD94F0000F83F4801306BF81F48011E5
:1006C0000134013D4EE77FEA645C18BF7FEA655C58
:1006D00029D094EA050F08BF90EA020F05D054EA2A
:1006E000000C04BF1946104630BD91EA030F1EBF2F
:1006F0000021002030BD5FEA545C05D14000494133
:1007000028BF41F0004130BD14F580043CBF01F525
:10071000801130BD01F0004545F0FE4141F470010B
:100720004FF0000030BD7FEA645C1ABF19461046E6
:100730007FEA655C1CBF0B46024650EA013406BFE7
:1007400052EA033591EA030F41F4002130BD00BFA6
:1007500090F0000F04BF0021704730B54FF4806463
:1007600004F132044FF000054FF0000150E700BFE4
:1007700090F0000F04BF0021704730B54FF4806443
:1007800004F1320410F0004548BF40424FF0000130
:100790003EE700BF42004FEAE2014FEA31014FEA73
:1007A00002701FBF12F07F4393F07F4F81F06051C2
:1007B000704732F07F4208BF704793F07F4F04BF0D
:1007C00041F40021704730B54FF4607401F00045EA
:1007D00021F000411CE700BF50EA010208BF70474A
:1007E00030B54FF000050AE050EA010208BF70473B
:1007F00030B511F0004502D5404261EB41014FF4A4
:10080000806404F132045FEA915C3FF4D8AE4FF0AB
:1008100003025FEADC0C18BF03325FEADC0C18BF8E
:10082000033202EBDC02C2F1200300FA03FC20FADF
:1008300002F001FA03FE40EA0E0021FA02F114442C
:10084000BDE600BF70B54FF0FF0C4CF4E06C1CEA45
:1008500011541DBF1CEA135594EA0C0F95EA0C0FB6
:1008600000F0DEF82C4481EA030621EA4C5123EA29
:100870004C5350EA013518BF52EA033541F4801158
:1008800043F4801338D0A0FB02CE4FF00005E1FB0B
:1008900002E506F00042E0FB03E54FF00006E1FB55
:1008A00003569CF0000F18BF4EF0010EA4F1FF0498
:1008B000B6F5007F64F5407404D25FEA4E0E6D41D8
:1008C00046EB060642EAC62141EA55514FEAC520E9
:1008D00040EA5E504FEACE2EB4F1FD0C88BFBCF565
:1008E000E06F1ED8BEF1004F08BF5FEA500E50F116
:1008F000000041EB045170BD06F0004646EA0101DC
:1009000040EA020081EA0301B4EB5C04C2BFD4EB0D
:100910000C0541EA045170BD41F480114FF0000E06
:10092000013C00F3AB8014F1360FDEBF002001F074
:10093000004170BDC4F10004203C35DA0C341BDCEE
:1009400004F11404C4F1200500FA05F320FA04F0C0
:1009500001FA05F240EA020001F0004221F00041F4
:1009600010EBD37021FA04F642EB06015EEA430E67
:1009700008BF20EAD37070BDC4F10C04C4F1200597
:1009800000FA04F320FA05F001FA04F240EA02004A
:1009900001F0004110EBD37041F100015EEA430E1B
:1009A00008BF20EAD37070BDC4F1200500FA05F23B
:1009B0004EEA020E20FA04F301FA05F243EA0203BA
:1009C00021FA04F001F0004121FA04F220EA0200C9
:1009D00000EBD3705EEA430E08BF20EAD37070BD0F
:1009E00094F0000F0FD101F00046400041EB0101EF
:1009F00011F4801F08BF013CF7D041EA060195F0D1
:100A0000000F18BF704703F00046520043EB03038A
:100A100013F4801F08BF013DF7D043EA0603704777
:100A200094EA0C0F0CEA135518BF95EA0C0F0CD082
:100A300050EA410618BF52EA4306D1D181EA0301C8
:100A400001F000414FF0000070BD50EA410606BFC2
:100A50001046194652EA430619D094EA0C0F02D107
:100A600050EA013613D195EA0C0F05D152EA03364C
:100A70001CBF104619460AD181EA030101F000416A
:100A800041F0FE4141F470014FF0000070BD41F0B3
:100A9000FE4141F4780170BD70B54FF0FF0C4CF48D
:100AA000E06C1CEA11541DBF1CEA135594EA0C0FAC
:100AB00095EA0C0F00F0A7F8A4EB050481EA030EF9
:100AC00052EA03354FEA013100F088804FEA0333E0
:100AD0004FF0805545EA131343EA12634FEA0222AE
:100AE00045EA111545EA10654FEA00260EF000416F
:100AF0009D4208BF964244F1FD0404F5407402D2C1
:100B00005B084FEA3202B61A65EB03055B084FEA51
:100B100032024FF480104FF4002CB6EB020E75EB4E
:100B2000030E22BFB61A754640EA0C005B084FEA76
:100B30003202B6EB020E75EB030E22BFB61A7546F3
:100B400040EA5C005B084FEA3202B6EB020E75EB3E
:100B5000030E22BFB61A754640EA9C005B084FEAB6
:100B60003202B6EB020E75EB030E22BFB61A7546C3
:100B700040EADC0055EA060E18D04FEA051545EAB2
:100B800016754FEA06164FEAC30343EA52734FEA5B
:100B9000C2025FEA1C1CC0D111F4801F0BD141EAD4
:100BA00000014FF000004FF0004CB6E711F4801F39
:100BB00004BF01430020B4F1FD0C88BFBCF5E06F19
:100BC0003FF6AFAEB5EB030C04BFB6EB020C5FEA29
:100BD000500C50F1000041EB045170BD0EF0004E7E
:100BE0004EEA113114EB5C04C2BFD4EB0C0541EAB0
:100BF000045170BD41F480114FF0000E013C90E6AD
:100C000045EA060E8DE60CEA135594EA0C0F08BF70
:100C100095EA0C0F3FF43BAF94EA0C0F0AD150EA6F
:100C200001347FF434AF95EA0C0F7FF425AF104602
:100C300019462CE795EA0C0F06D152EA03353FF42A
:100C4000FDAE1046194622E750EA410618BF52EAA7
:100C500043067FF4C5AE50EA41047FF40DAF52EA7B
:100C600043057FF4EBAE12E74FF0FF3C06E000BF18
:100C70004FF0010C02E000BF4FF0010C4DF804CD25
:100C80004FEA410C7FEA6C5C4FEA430C18BF7FEAE5
:100C90006C5C1BD001B050EA410C0CBF52EA430C13
:100CA00091EA030F02BF90EA020F0020704710F193
:100CB000000F91EA030F58BF994208BF90422CBF22
:100CC000D8176FEAE37040F0010070474FEA410C1B
:100CD0007FEA6C5C02D150EA013C07D14FEA430C39
:100CE0007FEA6C5CD6D152EA033CD3D05DF8040BAA
:100CF000704700BF8446104662468C4619466346DC
:100D000000E000BF01B5FFF7B7FF002848BF10F1B2
:100D1000000F01BD4DF808EDFFF7F4FF0CBF0120F7
:100D200000205DF808FB00BF4DF808EDFFF7EAFF73
:100D300034BF012000205DF808FB00BF4DF808ED2E
:100D4000FFF7E0FF94BF012000205DF808FB00BF23
:100D50004DF808EDFFF7CEFF94BF012000205DF8AD
:100D600008FB00BF4DF808EDFFF7C4FF34BF0120BA
:100D700000205DF808FB00BF4FEA410C7FEA6C5C85
:100D800002D150EA013C0AD14FEA430C7FEA6C5C85
:100D900002D152EA033C02D14FF0000070474FF0FD
:100DA000010070474FEA410212F5001215D211D529
:100DB0006FF47873B3EB625212D94FEAC12343F058
:100DC000004343EA505311F0004F23FA02F018BFDA
:100DD000404270474FF00000704750EA013005D1A3
:100DE00011F0004008BF6FF0004070474FF0000066
:100DF000704700BF0348044B834202D0034B03B14A
:100E000018477047E4060020E406002000000000B8
:100E10000548064B1B1AD90F01EBA301491002D05C
:100E2000034B03B118477047E4060020E406002096
:100E30000000000010B5064C237843B9FFF7DAFF35
:100E4000044B13B10448AFF300800123237010BD9D
:100E5000E406002000000000D885000808B5054B16
:100E60001BB105490548AFF30080BDE80840FFF716
:100E7000CFBF00BF00000000E8060020D8850008B2
:100E80000EB4F0B582B0044607AD55F8047B0F4EA2
:100E90004FF480720021304601F00AFD01952A4688
:100EA0003946304601F0E8FC002206E0236813F0E2
:100EB000400FFBD0013292B26160044B995C002973
:100EC000F4D102B0BDE8F04003B070470007002045
:100ED00008B50B4B1B780D2B07D00A2B0BD00949FB
:100EE0000A680948835401320A600122044907480C
:100EF00001F019FA08BD064B01221A60F5E700BFA0
:100F00000008002004090020080900200C0A002025
:100F10000009002084B000220192104B196B41F0AF
:100F200080011963196B01F080010191019902920E
:100F3000196B41F001011963196B01F00101029174
:100F4000029903921A6B42F002021A631B6B03F0C0
:100F500002030393039B04B0704700BF00380240B4
:100F600072B6FEE700B595B03022002108A801F066
:100F70009FFC002303930493059306930793019327
:100F80001E4A116C41F080511164126C02F08052C3
:100F90000192019A02931A4A116841F4404111608A
:100FA000126802F440420292029A0222089201213F
:100FB0000B9110210C910E920F9308231093642330
:100FC000119312920423139308A800F06DFB88B9C3
:100FD0000F23039302230493002305934FF48052BD
:100FE00006920793032103A800F0C8FD20B915B0AD
:100FF0005DF804FBFFF7B4FFFFF7B2FF00380240D3
:101000000070004008B500F04DF9FFF7ABFFFFF7A7
:1010100081FF00F09DF804490448FFF731FF4FF4C9
:101020007A7000F06BF9F6E7F085000800100140D7
:1010300082B0002100910B4B5A6C42F480425A64FA
:101040005A6C02F480420092009A01911A6C42F0AC
:1010500080521A641B6C03F080530193019B02B011
:10106000704700BF00380240FEE7FEE7FEE7FEE7FC
:10107000FEE770477047704708B500F02DF908BDCE
:1010800008B5024800F0F2FF08BD00BF0C0A0020BE
:101090000120704708B501F0B1FC162303604FF042
:1010A000FF3008BD08B54FF0FF31FFF7F3FFFEE753
:1010B00070B50C461646002506E0AFF300802146C9
:1010C00001F8010B01350C46B542F6DB304670BD28
:1010D00070B50C461646002504E014F8010BAFF37A
:1010E00000800135B542F8DB304670BD4FF0FF306F
:1010F00070474FF400534B60002070470120704749
:101100000020704710B503460C4A0D490D48006891
:1011100040B10C4800680344521A934206D8094A69
:10112000136010BD0748084C0460F2E701F066FC4C
:101130000C2303604FF0FF30F3E700BF00000220F4
:1011400000040000080A0020700D00207047000015
:1011500008B50A480A4B03604FF4E13343600023AB
:101160008360C36003610C2242618361C36100F04C
:10117000C1FE00B908BDFFF7F3FEFBE70C0A002033
:101180000010014010B588B0002303930493059329
:1011900006930793026803F1804303F588339A426C
:1011A00001D008B010BD0024019403F594335A6CAB
:1011B00042F010025A645A6C02F010020192019A35
:1011C00002941A6B42F002021A631B6B03F00203D3
:1011D0000293029BC02303930223049303230693E9
:1011E0000723079303A9064800F076F92246214613
:1011F000252000F0EBF8252000F0F8F8D1E700BF3B
:1012000000040240DFF834D0FFF7A0FF0C480D497E
:101210000D4A002302E0D458C4500433C4188C4251
:10122000F9D30A4A0A4C002301E013600432A242B7
:10123000FBD301F0E9FBFFF7E5FE70470000022059
:1012400000000020E4060020188A0008E4060020C0
:101250006C0D0020FEE7000010B504460E4B1A7816
:101260004FF47A73B3FBF2F30C4A1068B0FBF3F05F
:1012700000F0C0F868B90F2C01D901200AE0002263
:1012800021464FF0FF3000F0A1F8054B1C60002014
:1012900000E0012010BD00BF04000020000000207D
:1012A0000800002008B50B4B1A6842F400721A605F
:1012B0001A6842F480621A601A6842F480721A60F6
:1012C000032000F071F80F20FFF7C6FFFFF7B0FE14
:1012D000002008BD003C0240034A1168034B1B7804
:1012E0000B441360704700BF540A00200400002024
:1012F000014B1868704700BF540A002038B50446F7
:10130000FFF7F6FF0546B4F1FF3F02D0044B1B7810
:101310001C44FFF7EDFF401BA042FAD338BD00BFCD
:1013200004000020002807DB00F01F024009012311
:101330009340024A42F82030704700BF00E100E0CD
:10134000002808DB0901C9B200F1604000F56140E6
:1013500080F80013704700F00F000901C9B2014B7B
:101360001954704714ED00E000B500F00700C0F11B
:10137000070CBCF1040F28BF4FF0040C031D062B13
:101380000FD9C31E4FF0FF3E0EFA0CF021EA000108
:1013900099400EFA03FE22EA0E0241EA02005DF8CD
:1013A00004FB0023EEE70000074AD36823F4E06360
:1013B0001B041B0C000200F4E060034343F0BF6316
:1013C00043F40033D360704700ED00E010B50446ED
:1013D000054BD868C0F30220FFF7C6FF0146204640
:1013E000FFF7AEFF10BD00BF00ED00E008B5FFF74E
:1013F00099FF08BD0138B0F1807F0BD24FF0E02398
:101400005861054AF02182F82310002098610722D4
:101410001A6170470120704700ED00E070B5044686
:10142000866DFFF765FF94F83530DBB2022B06D0EE
:1014300080236365002384F83430012070BD0546A5
:101440002268136823F0160313602268536923F09F
:1014500080035361236CE3B12268136823F008030F
:1014600013602268136823F00103136023681B686C
:1014700013F0010F11D0FFF73BFF431B052BF5D9EC
:1014800020236365032084F83500002384F834307A
:10149000D4E7A36C002BDFD1E3E7E26D3F23934059
:1014A000B360012384F83530002084F83400C5E7A8
:1014B00090F83530DBB2022B03D080234365012046
:1014C0007047052380F835300268136823F0010364
:1014D000136000207047000000230F2B00F2DA8019
:1014E00030B583B068E085684FEA430E032404FA00
:1014F0000EF425EA0405CC6804FA0EF42C4384604B
:10150000446824EA02044A68C2F300129A40224363
:1015100042605FE0DC08083450F8242003F007053F
:10152000AD004FF00F0E0EFA05FE22EA0E0E0A690C
:10153000AA4042EA0E0240F824205FE0042200E0C4
:10154000002202FA0EF22A430234534D45F82420B9
:10155000524A94686FEA0C0224EA0C05D1F804E0C0
:101560001EF4801F01D04CEA04054C4CA560E468D1
:1015700002EA0405D1F804E01EF4001F01D04CEA91
:101580000405464CE560646802EA0405D1F804E00D
:101590001EF4003F01D04CEA0405404C656024680D
:1015A00022404D6815F4803F01D04CEA04023B4CC8
:1015B000226001330F2B6BD801229A400C6804EA99
:1015C000020C32EA0404F4D14C6804F00304013C38
:1015D000012C88D94A6802F00302032A09D0C468A2
:1015E0005D000322AA4024EA02048A68AA4022433A
:1015F000C2604A6802F00302022A8BD004684FEAF4
:10160000430E032202FA0EF224EA02044A6802F0B0
:10161000030202FA0EF2224302604A6812F4403FCB
:10162000C7D0002201921E4A546C44F48044546492
:10163000526C02F480420192019A9C08A51C164A41
:1016400052F8255003F0030E4FEA8E0E0F2202FAD5
:101650000EF225EA0205134A90423FF471AF02F5FB
:10166000806290420ED002F5806290420CD002F56A
:10167000806290420AD002F5806290423FF45EAFF1
:1016800007225EE701225CE702225AE7032258E7BD
:1016900003B030BD704700BF00380140003C01403E
:1016A0000038024000000240002800F0E08170B5E0
:1016B00082B00446036813F0010F3BD09F4B9B6838
:1016C00003F00C03042B2CD09C4B9B6803F00C0301
:1016D000082B21D06368B3F5803F4FD0B3F5A02F1E
:1016E00052D0964B1A6822F480321A601A6822F49B
:1016F00080221A606368002B50D0FFF7F9FD054681
:101700008E4B1B6813F4003F14D1FFF7F1FD401B13
:101710006428F5D90320B1E1884B5B6813F4800F8E
:10172000D8D0864B1B6813F4003F03D06368002BAE
:1017300000F09F81236813F0020F54D07F4B9B6809
:1017400013F00C0F3ED07D4B9B6803F00C03082B6D
:1017500033D0E368002B68D0794B01221A60FFF781
:10176000C7FD0546754B1B6813F0020F54D1FFF7F8
:10177000BFFD401B0228F5D903207FE16F4A1368A3
:1017800043F480331360B5E76C4B1A6842F480224F
:101790001A601A6842F480321A60ABE7FFF7A8FDBE
:1017A0000546664B1B6813F4003FC3D0FFF7A0FD4E
:1017B000401B6428F5D9032060E1604B5B6813F49B
:1017C000800FC6D15D4B1B6813F0020F03D0E36896
:1017D000012B40F05081594A136823F0F803216926
:1017E00043EAC1031360236813F0080F42D0636912
:1017F0006BB3534B0122C3F8802EFFF779FD0546EA
:101800004E4B5B6F13F0020F34D1FFF771FD401B9D
:101810000228F5D9032031E1484A136823F0F80380
:10182000216943EAC1031360DDE7454B00221A60DA
:10183000FFF75EFD0546414B1B6813F0020FD2D047
:10184000FFF756FD401B0228F5D9032016E13C4B5B
:101850000022C3F8802EFFF74BFD0546374B5B6F28
:1018600013F0020F06D0FFF743FD401B0228F5D905
:10187000032003E1236813F0040F77D02F4B1B6C78
:1018800013F0805F33D1002301932C4B1A6C42F08C
:1018900080521A641B6C03F080530193019B012555
:1018A000284B1B6813F4807F23D0A368012B34D00E
:1018B000052B38D0214B1A6F22F001021A671A6FDC
:1018C00022F004021A67A368002B3DD0FFF710FD39
:1018D00006461A4B1B6F13F0020F46D1FFF708FDA7
:1018E000801B41F288339842F3D90320C6E00025DB
:1018F000D6E7144A136843F480731360FFF7F8FCCB
:101900000646104B1B6813F4807FCED1FFF7F0FC26
:10191000801B0228F5D90320B0E0084A136F43F07A
:1019200001031367CFE7054B1A6F42F004021A67F1
:101930001A6F42F001021A67C5E700BF0038024083
:101940000000474200700040FFF7D2FC0646524BB1
:101950001B6F13F0020F08D0FFF7CAFC801B41F287
:1019600088339842F3D9032088E0EDB9A369002BAE
:1019700000F08380484A926802F00C02082A51D095
:10198000022B17D0454B00221A66FFF7B1FC044624
:10199000414B1B6813F0007F42D0FFF7A9FC001BEE
:1019A0000228F5D9032069E03B4A136C23F08053E9
:1019B0001364DBE7394B00221A66FFF799FC0546F2
:1019C000354B1B6813F0007F06D0FFF791FC401BDE
:1019D0000228F5D9032051E0E369226A1343626AC1
:1019E00043EA8213A26A5208013A43EA0243E26AD6
:1019F00043EA0263284A5360284B01221A66FFF724
:101A000077FC0446244B1B6813F0007F06D1FFF7D8
:101A10006FFC001B0228F5D903202FE000202DE0E9
:101A200000202BE0012B2BD01B4B5B6803F48001C3
:101A3000E269914226D103F03F02216A8A4223D112
:101A4000616A47F6C0721A40B2EB811F1ED103F4DF
:101A50004031A26A5208013AB1EB024F18D103F0AB
:101A60007063E26AB3EB026F14D1002006E001203C
:101A70007047012002E0012000E0002002B070BDAC
:101A80000120FBE70120F9E70120F7E70120F5E756
:101A90000120F3E70120F1E700380240000047424F
:101AA00008B5334B9B6803F00C03042B5BD0082B69
:101AB0005BD12F4B5A6802F03F025B6813F4800F32
:101AC0002CD02B4B5868C0F388104FEA401CBCEB5D
:101AD000000C6EEB0E0E4FEA8E1343EA9C634FEA46
:101AE0008C11B1EB0C0163EB0E03DB0043EA517385
:101AF000C90011EB000C43F10003590200234FEA27
:101B00004C2041EADC51FEF75BFB194B5B68C3F3E9
:101B1000014301335B00B0FBF3F008BD144B586880
:101B2000C0F388104FEA401CBCEB000C6EEB0E0EAD
:101B30004FEA8E1343EA9C634FEA8C11B1EB0C0120
:101B400063EB0E03DB0043EA5173C90011EB000C99
:101B500043F10003990200234FEA8C2041EA9C5193
:101B6000FEF72EFBD1E70348D7E70348D5E700BFD0
:101B70000038024000127A000024F400002800F02F
:101B80009B8070B50D4604464F4B1B6803F007035E
:101B90008B4208D2CBB24C4A1370136803F0070390
:101BA0008B4240F08B80236813F0020F17D013F0A4
:101BB000040F04D0454A936843F4E05393602368CC
:101BC00013F0080F04D0414A936843F460439360D4
:101BD0003E4A936823F0F003A1680B4393602368A7
:101BE00013F0010F32D06368012B21D09A1E012A15
:101BF00025D9364A126812F0020F61D033498A683B
:101C000022F0030213438B60FFF772FB06462F4B53
:101C10009B6803F00C036268B3EB820F16D0FFF7EA
:101C200067FB801B41F288339842F0D9032042E0E1
:101C3000264A126812F4003FE0D101203BE0234A1B
:101C4000126812F0007FD9D1012034E01E4B1B68CE
:101C500003F00703AB4207D9EAB21B4B1A701B68AB
:101C600003F00703AB422DD1236813F0040F06D015
:101C7000164A936823F4E053E1680B4393602368AA
:101C800013F0080F07D0114A936823F460432169C9
:101C900043EAC1039360FFF703FF0C4B9B68C3F358
:101CA00003130B4AD35CD8400A4B18600A4B1868E0
:101CB000FFF7D2FA002070BD012070470120FAE73B
:101CC0000120F8E70120F6E7003C0240003802401E
:101CD000B08700080000002008000020014B1868B1
:101CE000704700BF0000002008B5FFF7F7FF044B66
:101CF0009B68C3F38223034AD35CD84008BD00BF6E
:101D000000380240A887000808B5FFF7E7FF044B3A
:101D10009B68C3F34233034AD35CD84008BD00BF7D
:101D200000380240A8870008026802F10C0353E85B
:101D3000003F23F490730C3242E800310029F3D1C4
:101D4000026802F1140353E8003F23F00103143248
:101D500042E800310029F3D1036B012B05D0202389
:101D600080F84230002303637047026802F10C03DD
:101D700053E8003F23F010030C3242E80031002901
:101D8000F3D1ECE790F84130DBB2212B01D00220F7
:101D900070478368B3F5805F17D0036A5A1C0262EC
:101DA0001A7803685A60C38C9BB2013B9BB2C38410
:101DB0004BB90268D36823F08003D3600268D3680C
:101DC00043F04003D360002070470369002BE4D147
:101DD000036A1B880268C3F308035360036A023373
:101DE0000362E0E710B504460268136923F4405328
:101DF000C1680B431361836802691A4343691A433C
:101E0000C3691A430168CB6823F4164323F00C031B
:101E10001343CB600268536923F4407381690B4319
:101E200053610368314A934206D002F580629342BF
:101E300002D0FFF759FF01E0FFF766FFE369B3F552
:101E4000004F29D00021031849411B1841F100011E
:101E5000C90041EA5371DB00181863684FEA830236
:101E60004FEA937341F10001FEF7AAF9204AA2FB61
:101E700000314909642303FB11031B013233A2FB28
:101E800003235B0903F0F00202EB011203F00F03DE
:101E9000216813448B6010BD0023021843EB03013B
:101EA000121841F10001C90041EA5271D200101824
:101EB00041F10001626892185B41FEF781F90C4A1A
:101EC000A2FB00314909642303FB1103DB00323319
:101ED000A2FB03235B095A0002F4F87202EB011221
:101EE00003F00703216813448B60D4E7001001401E
:101EF0001F85EB5160B310B5044690F8413013B321
:101F0000242384F841302268D36823F40053D3603B
:101F10002046FFF767FF2268136923F4904313619B
:101F20002268536923F02A0353612268D36843F47B
:101F30000053D36000206064202384F8413084F88B
:101F40004230606310BD80F84030FFF71BF9D7E7DF
:101F500001207047704708B50168CA6822F0400246
:101F6000CA60202280F84120FFF7F4FF002008BD5E
:101F7000704708B5806B0023C385C384FFF7F8FF63
:101F800008BD704790F84230DBB2222B69D18368DC
:101F9000B3F5805F4FD0826AB3F5805F04D0002B29
:101FA00056D10369002B53D103685B681370836AB1
:101FB00001338362C38D9BB2013B9BB2C385002B6F
:101FC00051D100B583B00268D36823F02003D360F9
:101FD0000268D36823F48073D3600268536923F0E6
:101FE00001035361202380F8423000234363036BD5
:101FF000012B33D100230363026802F10C0353E881
:10200000003F23F010030C3242E800310029F3D1E5
:1020100003681A6812F0100F06D0002201921A68A5
:1020200001925B680193019B818DFFF7AAFF00205D
:1020300003B05DF804FB0269002AACD1826A036830
:102040005B68C3F308031380836A02338362B1E7DA
:1020500003685B6803F07F031370A8E7FEF738FF9F
:10206000E5E70220704700207047000010B582B0FD
:10207000044602681368D068516913F00F0F09D144
:1020800013F0200F0CD010F0200F09D02046FFF7DE
:1020900079FF16E011F0010115D110F4907F12D1F3
:1020A000216B012979D013F0800F03D010F0800F3D
:1020B00040F0148113F0400F03D010F0400F40F0B7
:1020C000118102B010BD13F0010F06D010F4807F13
:1020D00003D0626C42F00102626413F0040F04D07A
:1020E00019B1626C42F00202626413F0020F04D074
:1020F00019B1626C42F00402626413F0080F07D059
:1021000010F0200F00D119B1626C42F00802626435
:10211000626C002AD5D013F0200F02D010F0200FEF
:1021200029D123685B6903F04003626C12F0080F49
:1021300000D163B32046FFF7F7FD23685B6913F016
:10214000400F20D0226802F1140353E8003F23F02F
:102150004003143242E800310029F3D1E36B73B13C
:10216000624A1A65E06BFFF7A3F90028A9D0E06B7B
:10217000036D9847A5E72046FFF704FFD1E7204607
:10218000FFF7F6FE9DE72046FFF7F2FE99E72046AF
:10219000FFF7EEFE0023636493E713F0100F82D085
:1021A00010F0100F3FF47FAF0023019313680193E9
:1021B00053680193019B536913F0400F52D0E26BB7
:1021C00013685B689BB2002B3FF47BAFA18D9942F3
:1021D0007FF677AFE385D369B3F5807F37D0226888
:1021E00002F10C0353E8003F23F480730C3242E801
:1021F00000310029F3D1226802F1140353E8003FB3
:1022000023F00103143242E800310029F3D122689F
:1022100002F1140353E8003F23F04003143242E874
:1022200000310029F3D1202384F8423000232363B6
:10223000226802F10C0353E8003F23F010030C3234
:1022400042E800310029F3D1E06BFFF7E7F8022301
:102250006363A18DE38D9BB2C91A89B22046FFF753
:1022600090FE2EE7A18DE38D9BB2C91A89B2E38D52
:102270009BB2002B3FF425AF00293FF422AF226828
:1022800002F10C0353E8003F23F490730C3242E850
:1022900000300028F3D1226802F1140353E8003F14
:1022A00023F00103143242E800300028F3D1202348
:1022B00084F8423000232363226802F10C0353E8C0
:1022C000003F23F010030C3242E800300028F3D125
:1022D000022363632046FFF754FEF2E62046FFF731
:1022E00051FDEEE62046FFF736FEEAE6731F0008D2
:1022F00081628285C28500234364222380F84230B4
:10230000036923B10268D36843F48073D360026821
:10231000536943F0010353610268D36843F020031B
:10232000D3600020704708B590F84230DBB2202B14
:1023300008D149B10AB9012008BD00230363FFF7A2
:10234000D7FFF9E70220F7E70120F5E72DE9F0478D
:10235000089D0E4604460F46002B4AD194468C45F4
:10236000B2FA82F260D942B1C2F12003974020FA5A
:1023700003F30CFA02FC1F4394404FEA1C4E1FFA71
:102380008CF6B7FBFEF1230C0EFB117743EA0743F3
:1023900001FB06F098420AD91CEB030301F1FF3759
:1023A00080F01581984240F21281023963441B1A71
:1023B000A4B2B3FBFEF00EFB103344EA034400FB6F
:1023C00006F6A6420AD91CEB040400F1FF3380F0A4
:1023D0000081A64240F2FD806444023840EA014098
:1023E000A41B00211DB1D4400023C5E90043BDE872
:1023F000F0878B4205D90DB1C5E9000100210846DF
:10240000F5E7B3FA83F1002946D1B34202D3824201
:1024100000F2F580841A66EB030201201746002DB6
:10242000E5D0C5E90047E2E7002A40F09380A1EB40
:102430000C034FEA1C471FFA8CFE0121B3FBF7F691
:1024400007FB1630230C43EA00430EFB06F09842CC
:1024500008D91CEB030306F1FF3802D2984200F2C0
:10246000D08046461B1AA4B2B3FBF7F007FB10332B
:1024700044EA03440EFB00FEA64508D91CEB040405
:1024800000F1FF3302D2A64500F2B6801846A4EB55
:102490000E0440EA0640A5E7C1F120078B4022FA6E
:1024A00007FC4CEA030C06FA01FE20FA07F426FAB0
:1024B00007F344EA0E0400FA01F84FEA1C404FEA21
:1024C0001449B3FBF0FE1FFA8CF600FB1E3349EAF9
:1024D00003430EFB06F9994502FA01F20BD91CEBF6
:1024E00003030EF1FF3A80F08580994540F2828027
:1024F000AEF1020E6344A3EB0909A4B2B9FBF0F3F9
:1025000000FB139944EA094403FB06F6A64208D9E6
:102510001CEB040403F1FF3068D2A64266D9023BEB
:10252000644443EA0E40A41BA0FB02E6B442734697
:10253000B14652D34FD05DB1B8EB030264EB09044E
:1025400004FA07F722FA01F31F43CC40C5E90074EF
:1025500000214CE7C2F1200120FA01F30CFA02FC41
:1025600026FA01F1964033434FEA1C471FFA8CFECE
:10257000B1FBF7F007FB1016190C41EA064100FB0E
:102580000EF68E4204FA02F408D91CEB010100F1A8
:10259000FF382DD28E422BD902386144891B9BB261
:1025A000B1FBF7F607FB161143EA014306FB0EF1F8
:1025B000994208D91CEB030306F1FF3814D2994263
:1025C00012D9023E63445B1A46EA004136E73946B7
:1025D000EDE6184602E7F045ADD2BEEB020366EB2E
:1025E0000C060138B146A6E74646ECE7034698E7F5
:1025F0004046D3E7D6467EE76444023847E70846BC
:102600000DE7023E63442DE7024A0349034800F008
:10261000C9B800BF0C000020794E0008200000203F
:102620000C4B4168994210B5044601D002F024FCDD
:10263000A168094B994202D0204602F01DFCE168D6
:10264000064B994204D02046BDE8104002F014BC6D
:1026500010BD00BF580A0020C00A0020280B00202F
:102660002DE9F843314A324C3249DFF8CC90DFF89B
:10267000CC80334F1160002504232946082204F141
:102680005C00C4E903352F4EA560C4E90055C4E9D8
:102690000555656600F00CF904F15800C4E90749D6
:1026A000C4E90987E66200F0D7F92946264B63673B
:1026B000082204F1C400C4E91A55C4E91E5525676F
:1026C000C4F8CC50C4F8805000F0F2F804F168036C
:1026D00004F1C000C4F88430C4E92298C4E9247627
:1026E00000F0BAF9194BC4F8DC30294604F59670AD
:1026F0000822C4E93455C4E93855C4F8D850C4F8A0
:102700003451C4F8E85000F0D3F804F1D003C4E920
:102710003D87C4F8F09004F59470C4F8FC60C4F8E8
:10272000EC30BDE8F84300F097B900BF900B0020F3
:10273000580A002009260008E92700080D2800088B
:102740004D2800087128000809000100120002004D
:1027500010B504460A4800F083F9636B23B9094BAE
:10276000094A1B68626323B1BDE81040044800F0C9
:1027700079B9FFF775FFBDE81040014800F072B964
:10278000A00B0020900B002021260008014800F03B
:1027900067B900BFA00B0020014800F063B900BF7B
:1027A000A00B00202DE9F8430746884616464FF057
:1027B0000009D6E90154013D10D4A389012B08D9A1
:1027C000B4F90E3001332146384602D0C04749EAF9
:1027D0000009013D6B1C04F16804EED13668002E3F
:1027E000E7D14846BDE8F88310B50C46B1F90E10A4
:1027F00000F0D8F8002803DB236D0344236510BDE7
:10280000A38923F48053A38110BD00BF2DE9F041BB
:102810000C46B1F90C101F46CB05054616460BD4E5
:1028200021F48051A1813B46B4F90E10324628466E
:10283000BDE8F04100F0CCB8B4F90E10022300223C
:1028400000F09AF8B4F90C10EAE700BF10B50C4696
:10285000B1F90E1000F090F8B4F90C30421C0EBF24
:1028600023F4805343F480532065A38110BD00BF3F
:10287000B1F90E1000F06EB870B59AB013460A4E5A
:102880000A466FF000410291059108490391044600
:1028900000253068199569460094049400F00AFDFB
:1028A000009B1D701AB070BD180000200802FFFFC9
:1028B000830730B547D0541E002A3ED0CAB2034623
:1028C00001E0013C39D303F8012B9D07F9D1032C1A
:1028D0002CD9CDB205EB05250F2C05EB054535D9D7
:1028E000A4F1100222F00F0C03F1100EE6444FEA9F
:1028F000121C1A46C2E90055C2E90255103272454F
:10290000F8D10CF1010214F00C0F03EB021204F0E9
:102910000F0C13D0ACF1040323F00303043313446E
:1029200042F8045B9342FBD10CF003042CB1C9B212
:102930001C4403F8011BA342FBD130BD644613467F
:10294000002CF4D1F9E703461446C0E71A46A44622
:10295000E0E700BF38B5074D0022044608462A606C
:10296000FEF7C4FB431C00D038BD2B68002BFBD006
:10297000236038BD940B002038B50C46084D8446C2
:10298000114620461A4600232B606446FEF7B8FB2A
:10299000431C00D038BD2B68002BFBD0236038BD12
:1029A000940B002038B50C46084D8446114620464D
:1029B0001A4600232B606446FEF77AFB431C00D0C6
:1029C00038BD2B68002BFBD0236038BD940B002052
:1029D00038B50C46084D8446114620461A46002359
:1029E0002B606446FEF774FB431C00D038BD2B6897
:1029F000002BFBD0236038BD940B0020014B1868DE
:102A0000704700BF1800002070B50F4B0F4DAB4250
:102A1000A3EB050607D0B610002455F8043B01349B
:102A20009847A642F9D805F0D7FD094D094B5E1B22
:102A3000AB424FEAA60606D0002455F8043B013409
:102A40009847A642F9D870BD0C8A00080C8A000885
:102A50000C8A0008148A0008704700BF704700BF46
:102A6000704700BF704700BF024B13B1024800F02F
:102A700005B87047000000005551000800230146CA
:102A80001A46184602F0BEBB2DE9F8430646082058
:102A9000894602F073FBDFF89C800546304600F063
:102AA000FDFBD8F808305F6827F00307A7F1110491
:102AB000A4EB09042C44B4FBF5F4013C05FB04F43D
:102AC000A54208DC0021304602F032FBD8F808307D
:102AD0003B44984205D0304600F0E6FB0020BDE8BC
:102AE000F8836142304602F023FB01300FD0124AD6
:102AF000D8F808303F1B47F001075F601368304685
:102B00001B1B136000F0D0FB0120BDE8F8830021FF
:102B1000304602F00DFBD8F80820831A0F2BDADDBF
:102B200043F001035360054B03491B68C01A08605A
:102B3000D1E700BF70010020A80B00206401002035
:102B400000297CD0F8B50C46064600F0A7FB54F8E7
:102B5000043C764FA4F1080523F001016818D7F86A
:102B600008C04268844522F0030200F08380DB073E
:102B7000426000EB020C33D454F8084CDCF804300B
:102B80002D1B2144AC6807F1080C644503F00103D8
:102B900064D0D5F80CE0C4F80CE0CEF80840002B67
:102BA00000F0818041F001036B600160B1F5007FAE
:102BB00022D27868CB080122490901338A400243B6
:102BC00057F833107A6007EBC302083AC5E90212DE
:102BD00047F83350CD603046BDE8F84000F064BBA4
:102BE000DCF80430DB072BD541F00103B1F5007FA1
:102BF00044F8043C0160DCD3B1F5206F4FEA512367
:102C000053D28B0903F1390003F13802C300F818DD
:102C1000FB580838984203D161E09B68984204D081
:102C20005A6822F003028A42F7D8D868C5E9023010
:102C30008560DD603046BDE8F84000F035BB704788
:102C4000114407F1080C836863453FD0C268DA601D
:102C5000936041F001036B606950A7E7002B5FD1DF
:102C60000A44D0E90213CB60996042F001036B6023
:102C7000AA50B0E70A44D90707D454F8083CED1A23
:102C80001A44D5E90213CB60996042F001036B60EE
:102C9000274BBD601B6893429DD8264B3046196870
:102CA000FFF7F2FE97E71144CDE7142B08D9542B18
:102CB0001DD80B0B03F16F0003F16E02C300A6E7F2
:102CC00003F15C0003F15B02C300A0E741F00103E4
:102CD000C7E90455C5E902CC6B6069507BE77968A8
:102CE0009210012404FA02F20A437A609EE7B3F5D7
:102CF000AA7F06D8CB0B03F1780003F17702C3005B
:102D000085E740F25452934206D88B0C03F17D00C4
:102D100003F17C02C3007AE74FF47E737E2276E7EC
:102D200041F001036B60016055E700BF70010020B6
:102D300068010020D80B00202DE9F04F01F10B05B0
:102D4000162D83B0064623D8102900F2AF8000F07C
:102D5000A5FA102518230220B74F3B44A3F108021F
:102D60005C68944200F01F816368E268A16823F008
:102D70000303CA602344304691605A6842F001025E
:102D80005A6000F091FA0834204603B0BDE8F08F95
:102D900035F0070500F18A80A94200F2878000F033
:102DA0007DFAB5F5FC7FC0F06E816B0A00F0828081
:102DB000042B00F21E81AB0903F1390003F1380E38
:102DC000C3009D4F3B44A3F1080C5C68A44507D1A8
:102DD0000DE0002AE16880F2E0808C4507D00C46C7
:102DE000636823F003035A1B0F2AF2DD7046DFF8F5
:102DF0004C823C69444500F0BD80636823F0030CBD
:102E0000ACEB05030F2B00F34281002BC7E90488CC
:102E100080F22D81BCF5007FD7F804E080F0C980F6
:102E20004FEADC0101314FEA5C1C012303FA0CF389
:102E300057F83120A2604EEA030E07EBC103083BAE
:102E4000E360C7F804E047F83140D46083104FF0E6
:102E5000010C0CFA03FCF44532D81CEA0E0F08D121
:102E600020F003004FEA4C0C1CEA0E0F00F10400A6
:102E7000F8D007EBC00AD6468146DEF80C300BE0EE
:102E8000596821F003014A1B0F2A1C46DB6800F336
:102E9000BC80002A80F2DE809E45F1D109F1010953
:102EA00019F0030F0EF1080EE7D119E10C2333607E
:102EB000002469E74FF4007340204FF03F0E80E795
:102EC000BC68636823F00309A94503D3A9EB050394
:102ED0000F2B52DC5A4B1B68082003F1100804EB3F
:102EE0000903009302F04AF9564A13680133A844D3
:102EF000834605D008F1FF388044434203EA0808BE
:102F00004146304602F014F9B0F1FF3F4D4A824687
:102F100000F0D88004EB0903834200F2D1804A4BD1
:102F2000186840440BF1FF311860844640F0FB8084
:102F30001AEA010F40F0F780D7F808A0C84448F01B
:102F40000102CAF80420414B1968814238BF186059
:102F50003F4B1968814238BF1860544622F003087D
:102F6000A845A8EB050301D30F2B06DC304600F083
:102F70009BF99DE7D7F804E068E7621943F0010385
:102F800045F0010565603046BA60536000F08CF989
:102F90000834204603B0BDE8F08FA2682344D16016
:102FA00030468A60E9E6DC68A3427FF4DDAE023099
:102FB0001DE7BCF5206F4FEA5C227AD3142A00F299
:102FC000128102F15C03DB005B32F918FB5808390F
:102FD000994203D1ECE09B68994204D05A6822F0F0
:102FE00003026245F7D8D968C4E902318C60DC601D
:102FF0002CE7142B69D9542B00F2FE802B0B03F124
:103000006F0003F16E0EC300DBE6D4F808C0304653
:10301000661945F001056560CCF80C30C3F808C0AE
:1030200042F00103C7E90466C6E902887360625092
:1030300000F03AF90834A7E670010020780100207A
:10304000D80B002064010020A80B0020D40B002026
:10305000D00B0020214430464A6842F001024A6009
:1030600054F8082FD3609A6000F01EF98CE6A4444F
:103070003046DCF8043043F00103CCF8043000F0B3
:1030800013F9083480E6E80805F1080364E66219DC
:1030900043F0010145F0010565603046C7E90422AF
:1030A000C2E90288516044F80C3000F0FDF80834A1
:1030B0006AE64FEA9C1202F13903DB00383284E7FA
:1030C000BC4228D0BC68626848E703F15C0003F1A9
:1030D0005B0EC30075E65AF80839534540F0DA80B4
:1030E00010F0030F00F1FF30F5D17B6823EA0C03E9
:1030F0007B604FEA4C0C9C453FF6E2AEBCF1000F02
:1031000004D1DDE64FEA4C0C09F104091CEA030F77
:10311000F8D04846ADE6604B186808EB000C0BF1A0
:10312000FF31C3F800C0106801306FD004EB090212
:10313000AAEB020262441A601AF00702CDE90023EA
:1031400040D0C2F108029244D04408EA01005A4437
:10315000121A02EA010B5946304601F0E9FF421CFF
:10316000019B6FD0A0EB0A0000EB0B081868C7F8B2
:1031700008A048F001025844BC42CAF80420186074
:103180003FF4E1AEB9F10F0F43D96168A9F10C0228
:1031900022F0070201F00101114361604FF0050CBC
:1031A000A1180F2AC1E901CC54D8DAF80420CAE6E4
:1031B00092104FF0010C0CFA02F24EEA020EC7F820
:1031C00004E011E70AEB08020A40ABEB020202EA54
:1031D000010B5946304601F0ABFF431C019BC1D1A6
:1031E000DDF800B0C2E7542A17D84FEA1C3202F1CA
:1031F0006F03DB006E32E8E6B3F5AA7F17D8EB0B5E
:1032000003F1780003F1770EC300DAE5C2F800A0FD
:1032100092E70123CAF80430A8E6B2F5AA7F24D8C1
:103220004FEADC3202F17803DB007732CDE640F280
:103230005452934224D8AB0C03F17D0003F17C0E71
:10324000C300BEE5009A083A9044A8EB0A084FF084
:10325000000B8BE7304604F108010093FFF770FC88
:10326000009BD7F808A018689FE740F254539A4291
:103270000CD84FEA9C4202F17D03DB007C32A4E6CD
:103280004FF47E737F204FF07E0E9AE54FF47E73ED
:103290007E229AE67B682CE7A80B00200148FFF706
:1032A000DFBB00BF980B00200148FFF7DBBB00BF6E
:1032B000980B00202DE9F04FDDB00C460D9115461E
:1032C0000F93834601F030FF036819931846FCF70B
:1032D000F7FF0021179008222CA8FFF7E9FAA3892D
:1032E000190603D52369002B00F04B87002333AA6E
:1032F0000024CDE93133CDE91B3312931893209389
:103300001D930A930023CDE91434309214462E46BF
:10331000B246764BD3F8E45001F000FF2CAA0346E6
:10332000009228A952465846A847002800F0B180CC
:10333000C0F2A780289A252A034601D09A44E8E7DC
:10334000BAEB0607054640F0A88000231A464FF066
:10335000FF31CDE908218DF897300B930AF1010A6E
:103360009AF800300AF1010AA3F120025A2A00F269
:10337000BF80DFE812F02203BD00BD001B03BD00CB
:10338000BD00BD006A00BD00BD003A025602BD008E
:103390004502FF02BD00F8025B005B005B005B00C2
:1033A0005B005B005B005B005B00BD00BD00BD001F
:1033B000BD00BD00BD00BD003701BD00BA01630204
:1033C000370137013701BD00BD00BD00BD005C0203
:1033D000BD00BD00CD02BD00BD00BD00E401BD00CB
:1033E000E502BD00BD00AD06BD00BD00BD00BD00D5
:1033F000BD00BD00BD00BD003701BD00BA01160211
:103400003701370137014C0216027F00BD008B02E5
:10341000BD007C02AB069D027F00BD00E4017C0084
:10342000A806BD00BD00D306BD007C00A3F130029C
:1034300000211AF8013B01EB810102EB4101A3F1EC
:103440003002092AF5D90B918EE7584601F06CFE3F
:1034500043681D931846FCF733FF209005465846F5
:1034600001F062FE83681B93002D40F0B0859AF84E
:10347000003077E7089B43F0200308939AF8003068
:1034800070E7082200212CA8FFF712FA01239A44C2
:103490003FE7BAEB0607054610D0329B3B44329318
:1034A000319B0133072BC4E90067319315DC0834E5
:1034B0000A9B3B440A93002D7FF447AF329B002BBD
:1034C00041F095810D9B9B8903F04003002B41F057
:1034D000BE830A985DB0BDE8F08F0D9930AA5846BA
:1034E00001F09EFC0028EDD133ACE1E77805002027
:1034F0001093002BE2D000228DF80C3101238DF8BF
:10350000972006930E920C930992169213921192A1
:1035100043AE089B13F0020302D0069902310691D4
:103520000899329D11F0840805D10B9906980F1A5D
:10353000002F00F39E806AB101226260319A01324D
:1035400001350DF19701072A32953192216000F380
:10355000D68308346BB1319B26AA01330235226031
:10356000072B4FF0020232953193626000F3BD8366
:103570000834B8F1800F00F0C182099B0C9A9F1AA1
:10358000002F00F3FB82089BDA0500F121820C9BDF
:1035900063601D44319B26600133072B32953193C4
:1035A00000F342830834089B5A0705D50B9B069A03
:1035B0009E1A002E00F3B083DDE90A3206998A4292
:1035C000ACBF9B185B180A93002D40F00E830023BC
:1035D00031930E9B1BB10E995846FFF7B1FA33ACED
:1035E000564695E610930F9B073323F00703F3E845
:1035F00002780F9328F000431F931E97DDE91E0108
:10360000A74B4FF0FF32CDE91478FDF7B5FB00284A
:1036100040F00385DDE91E01A14B4FF0FF32FDF7BD
:103620008DFB002840F0F9840022002338464146F3
:10363000FDF77AFB002841F01E809DF89720089B3B
:10364000984E23F080030893974B10994729D8BFD1
:103650001E46002303210E9306910C9109931693A5
:1036600013931193002A3FF454AF069B0133069342
:103670004FE7102F319A41F33E82DFF830C2CDF888
:1036800068C0214628460D9C21934FF010096546DD
:1036900004E0103F102F01F1080115DD0132103058
:1036A000072AC1E90059CDE93120F2DD30AA2146CF
:1036B000584601F0B5FB002840F09F82103F102FC4
:1036C000DDE9312033A9E9DC219B0C4605460132B6
:1036D0001A9921603D44072ACDE93125676000F33E
:1036E000D5869DF89720083425E70F9A1093432B31
:1036F00002F1040503D0089BDA0640F11385082285
:1037000000212EA8FFF7D4F80F9B43AE1A6831466C
:103710002EAB584603F072F9034601330C9001F0CA
:1037200091820C9B23EAE373069300220F958DF898
:1037300097200E920992169213921192E9E60F9F2A
:10374000109357F8046B00238DF89730002E00F08B
:103750002785109B532B00F0C086089B13F01003A5
:10376000119340F0BA86099B002BC1F24B8011994E
:103770001A463046FCF744FD0E90002801F0A08266
:103780000E9B11999DF897200F979B1B0C9323EA92
:10379000E373069373230991169113910E9110937D
:1037A00060E71093089B9B0650D50F9B073323F0CF
:1037B00007031A46596852F8083B0F920A46002937
:1037C000C0F2CD8309990029C0F28082089921F0C6
:1037D000800553EA020140F07A82099A002A40F0FB
:1037E0007B8208950C925CAE5EE10F9B53F8042B34
:1037F0000B92002A80F2DD830B9A0F9352420B92B8
:10380000089B43F0040308939AF80030AAE59AF85D
:103810000030682B00F0AB84089A42F04002089216
:10382000A0E52B238DF897309AF800309AE5089B95
:1038300043F0080308939AF8003093E51093089B2F
:1038400043F010030893089B9B06AED408990F9A87
:10385000CF0652F8043B00F1CA8308994E0640F1A6
:10386000B1860F9243F3C03211461BB2A7E7089B03
:103870009D0640F1C1830F9B0A9A1B681A60D217FC
:103880005A600F9B04330F93564641E59AF8003077
:103890006C2B00F06284089A42F01002089261E5F5
:1038A000FFFFEF7F0486000800860008D08700082D
:1038B0000F9A089B43F0020552F8043B0F9247F61B
:1038C0003002ADF898207820B14A189202210022E7
:1038D00010900020099E8DF89700002EC0F2CD8038
:1038E00025F08000089053EA020040F0C580002EC9
:1038F00040F0DC85002940F0398315F001030C937A
:1039000000F05C8330238DF86F310DF26F16CBE041
:103910001093089B43F010030893089B13F02002B8
:1039200000F0F8820F9B073323F0070319465A680B
:1039300051F8083B0F91089921F480650021C8E7F0
:103940001093089B43F0100515F0200200F0F1825F
:103950000F9B073323F0070319465A6851F8083BB9
:103960000F910121B5E7089B43F0800308939AF873
:103970000030F7E4504610F8013B2A2B01F01C827E
:10398000A3F13002092A98BF002101F2F58010F856
:10399000013B01EB810102EB4101A3F13002092A55
:1039A000F5D941EAE17209928246DDE4089B43F0D1
:1039B000010308939AF80030D4E49DF897209AF810
:1039C0000030002A7FF4CEAC20228DF89720C9E485
:1039D000109B652B40F33281DDE9140100220023A6
:1039E000FDF798F9002800F0D281319B694A2260E6
:1039F000013301350122072B32953193626000F3C8
:103A000060850834279B129A934280F2CD82179BDF
:103A1000199A1D44C4E90023319B32950133072BC9
:103A2000319300F38F830834129B5E1E002E7FF7C4
:103A3000BAAD102E319BDFF8609140F3EB80DDF8DA
:103A40003480102704E00834103E102E40F3E2804A
:103A500001331035072BC4E90097CDE93135F2DD8C
:103A600030AA4146584601F0DBF9002840F0C580F5
:103A7000DDE9313533ACE7E7089D012900F0278106
:103A800002295CAE1FD1189803F00F011B09415C9D
:103A900006F8011D43EA0273120953EA0201F3D149
:103AA0005CAB9B1B08950C9309990C989DF897208B
:103AB00081424FF00003B8BF01460E930691169362
:103AC00013931193CEE503F00701DB0843EA427339
:103AD000D208303153EA0207304606F8011DF2D110
:103AE000EF07DDD53029DBD03023023806F8013C62
:103AF0005CAB1B1A08950C930646D5E70B9B069A00
:103B00009F1A002F7FF739AD102F319BDFF8889077
:103B100022DD2A464FF010084D46DDF8349004E0CF
:103B2000103F102F04F1080414DD01331032072B6D
:103B3000C4E90058CDE93132F2DD30AA4946584691
:103B400001F06EF9002858D1103F102FDDE9313215
:103B500033ACEADCA946154601333D44072BCDE9D9
:103B60003135C4F80090676000F3EC84099B0C9A2F
:103B70009F1A002F04F108047FF705AD102F319B29
:103B8000DFF8149025DD2A464FF010080D9D0AE05D
:103B90001086000840860008C0870008103F102FDC
:103BA00004F1080414DD0133B0491032072BC4E9D5
:103BB0000018CDE93132F1DD30AA2946584601F02E
:103BC0002FF9D0B9103F102FDDE9313233ACEADCE8
:103BD000154601333D44072BCDE93135C4F800903B
:103BE000676000F38B810834CDE40D9930AA584604
:103BF00001F016F900283FF4EAAC0E9B002B3FF4CD
:103C000061AC0E995846FEF79BFF0D9B9B8903F014
:103C100040035BE401333544072BC4F80090666031
:103C2000CDE931357FF7BEAC0D9930AA584601F089
:103C3000F7F80028E1D1329D33ACB4E4129B319FF8
:103C4000012B05F1010507F1010704F1080840F314
:103C500011810123072FCDE931752660636000F3E0
:103C60008981179B199A01371D44072FC8E9002342
:103C7000CDE9317500F38B8108F10808129BDDE96D
:103C800014015C1E00220023FDF744F8002840F0D8
:103C90000A81013701362544072FCDE93175C8F86F
:103CA0000060C8F8044000F3F18008F108081C9B8C
:103CB000C8F8043001371D44072F2AABCDE9317510
:103CC000C8F80030B0DC08F108046CE4089D0A2B49
:103CD00072F1000180F05A8330338DF86F31012387
:103CE00008950C930DF26F16DEE60D9930AA584632
:103CF00001F096F8002880D1329D33AC39E40D995B
:103D00001A9330AA584601F08BF800287FF475AF5B
:103D1000329D1A9B33AC1DE4102E319B40F340873B
:103D2000DFF84C91DDF83480CDF86890102704E07E
:103D3000103E102E04F1080415DD01331035072B59
:103D4000C4E90097CDE93135F2DD30AA4146584645
:103D500001F066F800287FF450AF103E102EDDE928
:103D6000313533ACE9DC01331A9A3544072BC4E909
:103D70000026CDE931357FF71FAC0D9930AA5846A2
:103D800001F04EF800287FF438AF329D14E42799F3
:103D9000002940F34C83DDE911839845A8BF98467C
:103DA000B8F1000F0ADD319B01334544072BC4E90C
:103DB00000683295319300F372860834119FB8F190
:103DC000000FA8BFA7EB0807002F00F3FA81119B93
:103DD00033440993089B5F0500F11A82279B129ACE
:103DE0009342C0F2A482089AD00700F1A082129AEE
:103DF000B718D61A099BFF1AB742A8BF3746002F3B
:103E00000ADD2360319B676001333D44072B329507
:103E1000319300F3A2860834002FA8BFF61B002EB2
:103E20007FF7C1AB102E319BDFF840907FF7F2AEE9
:103E3000DDF83480102704E00834103E102E7FF7A0
:103E4000E9AE01331035072BC4E90097CDE93135D0
:103E5000F2DD30AA4146584600F0E2FF00287FF428
:103E6000CCAEDDE9313533ACE7E700BFC0870008F1
:103E7000D0870008089BD9073FF5EBAE0123072F39
:103E8000CDE93175266063607FF711AF0D9930AAD7
:103E9000584600F0C5FF00287FF4AFAEDDE931756C
:103EA0000DF1CC0803E7129B012B7FF700AF112B1C
:103EB000DFF8849240F35B83CDF824A01026CA4635
:103EC000DDF8349005E008F10808103C102C40F3B0
:103ED0004B8301371035072FC8E900A6CDE93175AE
:103EE000F1DD30AA4946584600F09AFF00287FF4D9
:103EF00084AEDDE931750DF1CC08E6E70D9930AA05
:103F0000584600F08DFF00287FF477AE329D33AC29
:103F1000FFF739BB08980F9910F0100051F8043BD7
:103F200053D1089A12F040054AD09BB202460F9135
:103F300001E50F9915F0100051F8043B0CD115F074
:103F4000400604D00F919BB202460121C1E415F452
:103F500000721CBFDBB232460F910121B9E45B4213
:103F6000089D62EB42022D200121B3E4099B0C93D2
:103F70005CAE99E50D9930AA584600F051FF002833
:103F80007FF43BAEDDE931750DF1CC0869E60D99A2
:103F900030AA584600F044FF00287FF42EAEDDE939
:103FA00031750DF1CC0869E6089BDB077FF5FBAAAC
:103FB0002DE50F939AF80030FFF7D4B95CAE73E5A6
:103FC000089A12F4007240F009840F91B3E41B9A2E
:103FD0009AF80030002A3FF4C5A91278002A3FF46D
:103FE000C1A9089A42F480620892FFF7BBB90F9208
:103FF000DA171146FFF7E3BB089BD80600F1AE8243
:10400000089B590600F1E483089B9A0540F1A682BB
:104010000F9B0A9A1B681A7033E4DDE9140102460B
:104020000B46FCF7A9FE002840F03886109B612B58
:1040300000F04185412B00F06685099B013300F0BB
:104040001184109B23F02003472B00F0F1850E9084
:10405000DDE914120898002A40F48079C0F208853E
:1040600000231A93DDE91423CDE92223109B413B61
:10407000252B00F22A83DFE813F03B0428032803F2
:104080002803FA03C5042803280328032803280368
:1040900028032803280328032803280328032803C8
:1040A00028032803280328032803280328032803B8
:1040B000280328032803280328033B042803280394
:1040C0002803FA03C504089D10933DE4109324E4EB
:1040D00010931A4B1893089B13F0200200F03581BF
:1040E0000F9B073323F0070319465A6851F8083B22
:1040F0000F910898C1070BD553EA020108D0109917
:104100008DF8991040F00201089130218DF8981037
:10411000089921F480650221FFF7DBBB1093084B5F
:104120001893D8E70F9B1B688DF80C310123069379
:104130000C9343AEFFF7F9BAC08700082486000845
:10414000108600080D9930AA584600F069FE002834
:104150007FF453AD329D33AC66E4089B43F02003FB
:1041600008930AF1010A9AF80030FFF7FBB8089BA0
:1041700043F4007308930AF1010A9AF80030FFF73C
:10418000F1B840215846FEF7D7FD0D9B1860186125
:10419000002800F02D860D9A40235361FFF7A6B842
:1041A000099B0E96062B314628BF062309963246F8
:1041B0000693B24E0F970C93169113911191FFF73E
:1041C00051BA102F319BDFF8B89240F30A8249466A
:1041D0002A46B1460D9D4FF010080E4604E0083403
:1041E000103F102F40F3F98101331032072BC4E93F
:1041F0000068CDE93132F2DD30AA2946584600F098
:104200000FFE00287FF4F9ACDDE9313233ACE7E78B
:10421000129BCDF840A006EB0309139BDDF86CA0C0
:10422000DDF858801196002B22462946099C0D9DE9
:10423000CDF82490DDF8809031DDB8F1000F40F327
:104240003A8108F1FF3831981D9B01304944072815
:10425000C2E900393291319000F386800832099B1F
:104260009AF800001F1B8742A8BF0746002F0CDDED
:104270003198013039440728C2E900473291319022
:1042800000F353819AF800000832002FACBFC61B20
:104290000646002E15DC0444139B002BCDDCB8F140
:1042A000000FCEDCDDE911632046F318984228BFE9
:1042B0001846CDF86CA01446DDF840A009900D46D4
:1042C0008CE5102E31986E4B23DD0C94102734466C
:1042D0001E4604E0103C102C02F1080216DD0130ED
:1042E000674B10310728C2E90037CDE93101F1DD14
:1042F00030AA2946584600F093FD00287FF47DAC93
:10430000103C102CDDE9310133AAE8DC33462646A7
:104310000C9C1360013031440728CDE9310156600F
:1043200000F3AE839AF8000008320444B4E7179A09
:1043300019991544C4E90012319A32950132072ABD
:10434000319200F3CB83083451E508980F9910F0AF
:10435000100051F8043B17D1089A12F040050ED016
:104360009BB202460F91C4E630AA2946584600F097
:1043700057FD00287FF441AC329933AA6FE7089AC1
:1043800012F4007240F02F820F91B2E60C94DFF825
:10439000F4901B9CCDF820A005F480674FF0000C32
:1043A0005CAE4FF00508069505E00A2B72F100029D
:1043B00034D353462A46991841F10001A9FB01055F
:1043C00025F0030000EB9500091A581A4FF0CC3580
:1043D00062F1000E05FB00F5A0FB09A009FB0E55DC
:1043E0000AF0010E0544AEFB080E40184FEA5A0AC7
:1043F000303006F8010C4AEAC57A0CF1010C013E96
:104400006D08002FD1D021788C45CED1BCF1FF0FA3
:10441000CBD00A2B72F1000280F032811B94DDF8C0
:1044200020A0069D0C9CCDF848C0FFF739BB319BFE
:10443000154A2260013301350122072B3295319351
:10444000626000F336810834002940F09C80089BAC
:10445000129A03F0010313433FF4A5A8179B199A7E
:104460001D44C4E90023319B32950133072B31935E
:1044700000F3EB8104F1080296E000BF38860008E3
:10448000C0870008CDCCCCCC408600080D991A938B
:1044900030AA584600F0C4FC00287FF4AEAB9DF86B
:1044A0009720329D1A9B33ACFFF745B80129089D30
:1044B0007FF4E6AA10E4139B013B0AF1FF3A139341
:1044C000C1E60D9930AA584600F0AAFC00287FF4F6
:1044D00094AB329D33ACFFF795BA0DF1B8080822C2
:1044E000002140462996FEF7E3F9099B002BC0F214
:1044F00085800025069799462F460EE043A9584629
:1045000002F07CFA431C384400F0A683484509DCDD
:1045100005F1040500F0E1830746299A5259434604
:10452000002AEBD10C97069F76E030AA2946584620
:1045300000F076FC00287FF460AB9AF80000329916
:1045400033AAA2E60D9930AA584600F069FC00286B
:104550007FF453AB329D33ACFFF70FB80F9B0A9A31
:104560001B681A60FFF78DB9D146DDF824A0C8F8A2
:10457000009001372544072FCDE93175C8F8044074
:104580007FF793AB82E4179B199A1D44C4E900237B
:10459000319B32950133072B319300F3568104F19F
:1045A00008020029C0F200831299166001330D44FD
:1045B000072BCDE9313551603FF736AB02F10804E6
:1045C000FEF7F1BF08990F928D054ABF43F3C01261
:1045D000DA175BB21146FFF7F2B8154632464E467F
:1045E000914601333D44072BCDE93135C4F80090A5
:1045F000676000F31E810834FFF7E9BB002319460A
:10460000CDF8008029AA584602F01EFA034601336D
:104610000C9000F0218329960C9B002B3DD0632B3E
:1046200040F30381591C5846FEF786FB06460028D6
:1046300000F0EC830E90082200214046FEF738F986
:104640000C9DCDF800802B4629AA3146584602F031
:10465000FBF9854240F0D4830C990F9700237354E3
:1046600021EAE1719DF8972009930691169313931F
:104670001193FEF7F7BF2D228DF89720FEF7DFBFCD
:10468000209B1D99F61A1A46304600F013FD6378F8
:1046900003B101344FF0000C8BE60C9B9DF8972082
:1046A0000F97069309931693139311930E93FEF7A6
:1046B000D9BF0D9930AA584600F0B2FB00287FF40C
:1046C0009CAA2799329D33ACBEE6099B01932EAB81
:1046D000049329AB039327AB02930223009358461C
:1046E000DDE9222300F064FE089BD907064600F1AD
:1046F00006822E9B1B1A1293279B1193119BDA1C87
:1047000003DB099A9A4280F29281109B023B10933C
:10471000119B013B9DF8402027930021002BB8BF3F
:10472000119B8DF8A820BABFC3F101032D222B22C3
:10473000092B8DF8A92040F363820DF1BF05B34F1B
:104740002A461046A7FB0312D20802EB8201A3EB14
:104750004101303100F8011C19466329134600F16C
:10476000FF32EEDC303302F8013C831EAB4280F0B6
:104770003C830DF1A90213F8011B02F8011FAB42A3
:10478000F9D15CAB181AA0F1AD031C93129B1C9AD3
:10479000012B1A440C9240F36A820C9B179A134423
:1047A0000C93089B0C9A23F4806343F48073089362
:1047B00022EAE272002316930692139311931A9B36
:1047C000002B40F02D819DF897200993FEF74ABFFA
:1047D0000F9B0A9A1B681A80FFF753B8DBB22A4670
:1047E0000F91FFF7A8B8DBB22A460F9181E40D9C28
:1047F00030AA2146584600F013FBA38903F040037A
:10480000FEF764BE3046FBF75BFD119B099320EA7F
:10481000E071169313930E9373239DF897200C90D9
:104820000F9706911093FEF71DBF00230E9343AE22
:1048300001E70D9930AA584600F0F2FA00287FF4FB
:10484000DCA9329D33ACFFF7C2BA0D9930AA5846A5
:1048500000F0E6FA00287FF4D0A9DDE93135279988
:1048600033AA9EE606230E900993FFF7F1BB099B3E
:1048700003F101080223CDE900382EAB049329ABE4
:10488000039327AB02935846DDE9222300F090FD05
:10489000109B23F02007462F064600EB080518BFA3
:1048A000452705D13378302B00F02F81279B1D44FD
:1048B000DDE9220100220023FCF72CFA002840F059
:1048C00060812E9BAB4206D230215A1C2E92197069
:1048D0002E9B9D42F9D8279A11929B1B472F12932A
:1048E0003FF40CAF462F00F01E81119B013B11E7F6
:1048F00027AADDE9220100F04FFC00224FF07F5390
:10490000FBF7A0FF02460B46CDE906230022002359
:10491000FCF700FA08B101232793099B3C4A109841
:10492000CDF830A0591E3B4B1196612808BF1A469E
:104930003746A0460992DDE906458A46164609E053
:10494000002200230AF1FF39FCF7E4F9002840F0C7
:104950009581CA46304B002220462946FBF772FF5C
:104960000D460446FCF71EFA8146FBF701FF02469E
:104970000B4620462946FBF7ADFD16F80930BAF183
:10498000FF3F3A46044607F8013B0D46D8D1CDE932
:104990000645224BDDF830A0119E44469046002289
:1049A0004D46FCF7DFF9002800F01282099BCDF894
:1049B000B880D97B17F8012C91423B4609D13020B1
:1049C00003F8010C2E9B5A1E2E9213F8012C9142D3
:1049D000F6D0392A0BBF099A0132927AD2B203F883
:1049E000012C3B469B1B109A1293279B1193612A23
:1049F00003F1FF33279300F0C18141215022109130
:104A000001218BE6DDF82480032334E7CDCCCCCC28
:104A10002486000810860008000030400000E03FB7
:104A20002D2200238DF897200993FEF71EBEDDE9A5
:104A30001123934200F3A980089B13F0010F119BEF
:104A400000F01A81179A13440C93089B5F0503D555
:104A5000119B002B00F356810C9B23EAE373069312
:104A6000672310930023CDF8209016931393A6E6A6
:104A700002F1004323932D2322911A93FFF7F6BAF4
:104A800030AA2946584600F0CBF900287FF4B5A893
:104A90009AF80000329933AA0444FFF7FDBB0D9940
:104AA00030AA584600F0BCF900287FF4A6A8329D31
:104AB00033ACFFF783B978238DF89930089B43F026
:104AC0000203089330238DF89830099B632B00F381
:104AD000A68000230E9343AEFFF7BABA0D9930AA11
:104AE000584600F09DF900287FF487A8279B329D47
:104AF00033ACFFF77CB9A6491A91FEF7E8BD099BD4
:104B00004727C518D4E65823D6E7DDE9220100225D
:104B10000023FCF7FFF8002800F02C81279B11935D
:104B20001D44AB1B1293089B1199099A03F00103D2
:104B3000002943EA020340F32381002B40F0DB808D
:104B4000119B0C9366231093089B5B0500F1DC809E
:104B50000C9B23EAE373069384E70D9930AA584629
:104B600000F05EF900287FF448A8279E129B329D32
:104B70009E1B33ACFFF750B9002282460992FEF724
:104B8000F3BB279A11922B46A7E6129B179A9A1805
:104B9000119B0C92002B40F3A48067231093D3E762
:104BA0007B4A1A92FFF7DFB84F421031DFF8E491E9
:104BB000B8BF102404DB17E00832103F102F13DDBC
:104BC00001331035072BC2E90094CDE93135F3DD0F
:104BD0000D9930AA584600F023F900287FF40DA85B
:104BE000DDE9313533AAE8E701333D44072BCDE950
:104BF0003135C2F80090576000F3B0800832D3E43A
:104C0000002940F0A88030228DF8AA200DF1AB02D7
:104C1000303302F8013B2AABD31A1C93B6E5591C7A
:104C20005846FEF789F8064660B10E90FFF710BAB5
:104C3000099B002B7FF40BAA099B0E930123099378
:104C4000FFF706BA0D9A938943F0400393814FF022
:104C5000FF330A93FEF73DBC0D9BB3F90C300022E5
:104C60000E9243F040030D9A9381FEF7C6BF089B56
:104C7000DB077FF596AD90E50C93E6E651460029FB
:104C8000DDF830A0119E4446FFF6ABAE4B1C3B4412
:104C9000302207F8012B9F42FBD1A3E6159B3E4E25
:104CA000002B089BA8BF9DF8972023F08003B8BF76
:104CB0002D220893B8BF8DF89720384BFEF7C5BC5E
:104CC000099B06930C9373239DF897200F970990E7
:104CD000169013901093FEF7C5BC099B069F0C938A
:104CE0009AE4C3F101031A4422EAE27306936723AC
:104CF0000C921093B6E6179B1A4453180C93662334
:104D0000109321E7672310931B990B78FF2B73D027
:104D10000025119A284603E001300131FF2B08D00D
:104D2000934206DAD21A4B78002BF5D10B78013575
:104D3000F4E71B91119213901695169A139B2099E4
:104D4000CDF8209013440C9A01FB03230C9323EA23
:104D5000E373069333E50DF1AA0259E70D9930AAE2
:104D6000584600F05DF800287EF447AFDDE93135A4
:104D700033AA19E4C8F10103279398E570223FE6AE
:104D800073B901236622069310920C936AE600BF62
:104D9000D0870008C08700080C8600080886000835
:104DA000179B03F10108099B43440C9323EAE37327
:104DB00006936623109355E60F9A9AF8013052F83D
:104DC000041B0F9241EAE17182460991FEF7CABACB
:104DD000DDE90601114B0022FBF79CFF00283FF4A0
:104DE00000AEE8077FF5FDADE0E502231C93CDE4BE
:104DF0000C23CBF800302AE70023169313939CE78B
:104E00000D9BB3F90C3043F040032CE70D9B0E9043
:104E1000B3F90C3043F0400325E700BF0000E03F4A
:104E20002DE9F843154692682C68FAB18046894608
:104E3000083401E00834CFB16B68591E002B1746C7
:104E4000696013DD54F8046C002EF3D0334654F837
:104E5000082C4946404601F005FE431C07D0AA68CD
:104E6000921B1746AA600834002FE5D100200023CA
:104E7000C5E90133BDE8F88370B500293FD0064687
:104E80000C4610B1436B002B3CD0636EB4F90C2080
:104E9000DD0732D4900538D52146304600F04CF875
:104EA000E36A054633B1E169304698470028B8BF48
:104EB0004FF0FF35A3891A0639D4216B41B104F1B3
:104EC0004003994202D03046FDF73AFE00232363A7
:104ED000616C21B13046FDF733FE00236364FDF7BA
:104EE00055FC636E0022DB07A2811CD5A06DFDF787
:104EF000B5FDFDF751FC284670BD002ACCD1002538
:104F0000284670BDFDF724FCBFE7A06DFDF7A8FDA6
:104F1000B4F90C30002BBFD1636ED907EFD4A06D6C
:104F2000FDF7A0FDEBE7A06DFDF79CFDDEE7216935
:104F30003046FDF705FEC0E7B1F90C20F8B51607BD
:104F40000C46074649D4496842F400630029A3810E
:104F50005FDDA56A002D3ED0002112F480523E682C
:104F60003960E16961D101233846A847451C0246F2
:104F70006BD0B4F90C30A56AE169580705D56368B0
:104F8000D21A236B0BB1E36BD21A00233846A84721
:104F9000411C4CD13968B4F90C301D293FD82F4A37
:104FA000CA40D2073BD52269226023F40062A28165
:104FB000DD044FF00002626001D5002943D0216B6F
:104FC0003E6041B104F14003994202D03846FDF7FA
:104FD000B7FD002323630020F8BD0E69002EFAD030
:104FE0000D680E6092070CBF4B690023AD1B8B60F0
:104FF0000CE0D4F824C0E1692B4632463846E0473D
:10500000B0F1000CA5EB0C05664406DD002DF0DCCC
:10501000E1E7E16B00299CDCDDE7B4F90C3043F0FB
:105020004003A3814FF0FF30F8BD226DA5E7B4F92E
:105030000C302269226023F40062A281DB044FF06D
:1050400000026260BBD52065B9E73B68002B90D0B9
:105050001D2B01D0162BE0D13E60BCE701004020A3
:1050600038B50C46054608B1436B03B3B4F90C00E0
:1050700088B1636EDB0701D481050FD52846214630
:10508000FFF75AFF636EDA07054602D4A3899B0532
:1050900008D5284638BD0546284638BDA06DFDF721
:1050A000DFFCEBE7A06DFDF7DDFC284638BDFDF722
:1050B0004FFBDBE740EA01039B0710B501D1032A50
:1050C00017D8844601F1FF3E07E01EF8011F03F8E0
:1050D000011B541E29B19C4622466346002AF4D186
:1050E00010BD9444002CFBD003F8011B6345FBD199
:1050F00010BD8E468446DEF80040A4F1013323EA59
:10510000040313F0803F71460EF1040EDAD1043A25
:10511000032A4CF8044BEED87146D3E7014B93F8C1
:105120002801704778050020004870476806002075
:1051300038B5074D0022044608462A60FBF7E2FF17
:10514000431C00D038BD2B68002BFBD0236038BD3A
:10515000940B002038B5074D074C2C1BA41005D02C
:10516000013C55F8043D9847002CF9D1BDE8384082
:1051700003F038BA188A0008148A0008082802D1F7
:105180004FF48050704708B5FDF738FC16230360D4
:105190004FF0FF3008BD00BFDFF85CC0F8B521F06C
:1051A00000430027634504460D461646176020D885
:1051B000844653EA0C0C1CD0DFF840C001EA0C0C0A
:1051C0000A46BCF1000F09D10D4B0022FBF73AFB58
:1051D0006FF0350704460A4621F000431B156FF3B4
:1051E0001E52A3F2FE3342F07F553B4445F40015B6
:1051F000336020462946F8BDFFFFEF7F0000F07FB7
:10520000000050432DE9F8431B4D06462868984698
:105210000F469146FDF724FC184B1C681CB3286808
:1052200065681F2D22DC4EB96B1C0235636044F8A3
:105230002570FDF717FC0020BDE8F88304EB85011D
:105240000123C1F88890D4F88821AB401A43022E7C
:10525000C4F88821C1F80881E6D1D4F88C211A431A
:10526000C4F88C21E0E7064C1C60D8E7FDF7FAFB98
:105270004FF0FF30E0E700BF60010020A40B0020EA
:10528000DC0B00202DE9F04F03690C69A34283B0C9
:10529000C0F28A80013C01F1140500F1140855F8B0
:1052A000243058F8242001339A428E4681464FEA32
:1052B000840105EB840708EB840AB2FBF3F63AD3CA
:1052C000CDE900150022AC46404613465CF8041BAD
:1052D00005681FFA81FB06FB0B22090C4FEA124BF3
:1052E00006FB01BB92B2A9B2891A19441FFA8BF3CB
:1052F000C3EB214303EB154389B241EA0341674500
:1053000040F8041B4FEA1B424FEA2343DED2DDE99B
:10531000001558F8013073B9AAF1040AD04504D336
:1053200007E0D04504F1FF3403D25AF80439002BCA
:10533000F7D0C9F810407146484601F017FA002826
:105340002EDB4146002255F8040BD1F800C01FFAAD
:1053500080FE1FFA8CF3A3EB0E031344020CC2EB86
:10536000234202EB1C429BB243EA0243AF4241F8A4
:10537000043B4FEA2242E6D258F8242008EB84038B
:105380006AB9043B434504D807E0984504F1FF346B
:1053900003D253F80429002AF7D0C9F81040013687
:1053A000304603B0BDE8F08F002003B0BDE8F08FB9
:1053B0002DE9F04F816B9BB016461F46CDE906677D
:1053C000279D049049B1C26B4A6001239340044673
:1053D0008B6000F069FF0023A363B7F10009B4BF3D
:1053E000012300232B60784BBCBF29F00049CDF886
:1053F0001C9033EA090300F0AD80DDE90634002299
:10540000184621460023CDE90201FBF783FC8046C4
:1054100068B1269A01231360289B13B1289A6B4B1D
:1054200013606B4B059305981BB0BDE8F08F18AB6C
:10543000019319AB00930498DDE9022301F072FA9D
:105440005FEA1955824640F09B80DDE918854544A6
:1054500005F23243202B40F38D83C3F1400309FA58
:1054600003F905F2124326FA03F349EA0300FBF7B6
:105470006FF90123013DA1F1F8711093554B002202
:10548000FBF728F84AA3D3E90023FBF7DBF94AA38B
:10549000D3E90023FBF720F8064628460F46FBF722
:1054A00067F947A3D3E90023FBF7CCF902460B4683
:1054B00030463946FBF710F806460F46FBF772FCFC
:1054C000002204460890002330463946FBF72CFCA6
:1054D000002840F02583089CA8EB050808F1FF335D
:1054E000162C099300F28B813B4B03EBC403D3E9E9
:1054F0000023DDE90201FBF717FC002872D0631ED0
:10550000089300230F9308F1FF33002BC0F27E8134
:1055100000230A93089B002B6ADA089B0A9A0B93D4
:10552000D21A0A925A4200230893249B0E92092B06
:1055300068D8052B40F32383043B24930025249B48
:10554000023B032B00F23586DFE813F071046E0492
:1055500065044904269AC9F3130942F20F7359EA04
:10556000060913601CD1289B002B00F042861B4BC0
:1055700005930833289A059813601BB0BDE8F08F97
:10558000DDE90212C2F31303084643F07F51CDF860
:105590004080A5F2FF35DDF8608041F440116DE7F1
:1055A000289B002B40F0F6830D4B05933BE700BF93
:1055B00061436F63A787D23FB3C8608B288AC63F19
:1055C000FB799F501344D33F0000F07F41860008D1
:1055D000408600080000F83F188800088C86000804
:1055E00098860008B8F1000F40F3A6840F900A9047
:1055F000DDE908231344099300230E93249B0B92A7
:10560000092B96D90023CDE9243301250C954FF0C1
:10561000FF3B049BCDF844B00021D963049800F00F
:105620001DFE0590002800F0CD85DDE90432BBF1B8
:105630000E0F9A6300F21981002D00F016810B996C
:10564000002940F34984B44B01F00F0203EBC2037D
:10565000C805D3E900894FEA211540F10B84AF4B0F
:10566000DDE90201D3E90823FBF716FACDE91201BF
:1056700005F00F0503277DB1A84EE90708D5404680
:105680004946D6E90023FBF7DDF801378046894615
:105690006D1006F10806F0D142464B46DDE91201D5
:1056A000FBF7FAF9804689460F9B43B19C4B0022D9
:1056B00040464946FBF738FB002840F00A8538464B
:1056C000FBF756F842464B46FBF7BCF8954B0022D9
:1056D000FAF702FFA1F15073CDE912011393BBF168
:1056E000000F00F0A9800B9BCDE916B34946404658
:1056F000FBF758FB8849169C01EBC40353E90212DF
:105700000546CDE91412FBF733F80B46024649462D
:105710004046FAF7DFFE059F0C9B30357E1CECB24D
:10572000804689463546002B00F06E84DDE914235F
:105730007D490020FBF7B0F9DDE91223FAF7CAFE34
:105740003C7042464B4604460D46FBF70BFB0028D7
:1057500040F0B784CDF850B00027DDF858B0CDF850
:1057600048A02BE001375F4580F2FD846F4B204657
:1057700029460022FBF766F86C4B002204460D46D2
:1057800040464946FBF75EF889468046FBF70AFB30
:105790008246FAF7EDFF02460B4640464946FAF7C5
:1057A00099FE0AF1300A06F801AB22462B468046E4
:1057B0008946FBF7B9FA002840F0D28442464B46AE
:1057C00057490020FAF786FE22462B46FBF7ACFA33
:1057D0000028C7D0179BDDF848A0059A374603F18B
:1057E000010802E0974200F09A843E4617F8013D16
:1057F000392BF7D00133DBB23B7045467FE1012303
:105800000F9308F1FF33002BBFF682AEC8F10103FE
:105810000A93002309937DE63846FAF7A9FF42462A
:105820004B46FBF70FF83F4B0022FAF755FEA1F16C
:105830005073CDE9120113933D4B00224046494677
:10584000FAF748FEDDE9124522462B4606460F468A
:10585000FBF788FA002840F071843046394622462A
:1058600005F10043FBF760FA28BB199B002BC0F23F
:1058700091800B9A0E2A00F38D80274B0B9A03EB35
:10588000C203D3E90034CDE90634259B002B19DA95
:10589000BBF1000F16DC0ED1254B0022DDE906011D
:1058A000FAF7D0FF02460B46DDE90201FBF746FAA4
:1058B000002800F043840023059E02931F46259B89
:1058C000DD432EE2059B5D1CDDE90678DDE9020182
:1058D0003A464346FBF7E0F8FBF764FA0646FAF768
:1058E00047FF3A464346FAF7ADFF02460B46DDE96D
:1058F0000201FAF7EFFD059A06F13003BBF1010F43
:105900002F46137000F023830125CDF808A0A84688
:10591000DDE9069A2CE000BF18880008F08700082F
:105920000000F03F00001C400000E03F0000244069
:10593000000014404A46534620462946FBF7ACF87F
:10594000FBF730FA0646FAF713FF4A465346FAF7D2
:1059500079FF08F101080B46024629462046FAF76E
:10596000B9FD06F13003D84507F8013B00F0ED82A0
:10597000844B0022FAF766FF0022002304460D46FE
:10598000FBF7C8F90028D5D00B9DDDF808A001353C
:105990003E46B4E00C9A002A40F0D88000230E9EC8
:1059A0000A9D0C931F4665B1099900290B4608DD35
:1059B0000A9AA942A8BF2B46D21AED1ACB1A0A920C
:1059C00009930E9B53B10C9B13B1002E40F0F8824B
:1059D00051460E9A049800F0F7FD82460498012182
:1059E00000F00EFD089B0290002B40F0BE81249B2E
:1059F000012B40F3D4810120099A104410F01F00BC
:105A000000F09B80C0F12003042B40F3E3810A9B4C
:105A1000C0F11C00034402440A93054409920A9B06
:105A2000002B05DD514604981A4600F027FE8246F9
:105A3000099B002B05DD029904981A4600F01EFE12
:105A400002900F9B002B40F07581BBF1000F40F3DB
:105A50004C810C9B002B40F0A4800B9D0135DDF8A0
:105A60001480029CDDF81090012607E051460023C7
:105A70000A22484600F022FC013682462146504662
:105A8000FFF700FCB34500F1300008F8010BEDDC36
:105A9000BBF1000F059BCCBF5E460126814603EBA0
:105AA000060B002451460122049800F0E7FD0299FC
:105AB000824600F05BFE002840F3EF81059A02E089
:105AC000934500F004825E460BF1FF3B16F8013C63
:105AD000392BF5D001338BF80030DDF810800299B6
:105AE000404600F0E1FB57B12CB1BC4203D0214647
:105AF000404600F0D9FB0498394600F0D5FB0498E5
