:020000040800F2
:1000000000000220F5090008ED050008EF050008D2
:10001000F1050008F3050008F505000800000000E0
:10002000000000000000000000000000F7050008CC
:10003000F905000800000000FB050008FD050008A8
:10004000450A0008450A0008450A0008450A000854
:10005000450A0008450A0008450A0008450A000844
:10006000450A0008450A0008450A0008450A000834
:10007000450A0008450A0008450A0008450A000824
:1000800005060008450A0008450A000800000000AF
:10009000000000000000000000000000450A000809
:1000A000450A0008450A0008450A0008450A0008F4
:1000B000450A0008450A0008450A0008450A0008E4
:1000C000450A0008450A0008450A0008450A0008D4
:1000D000450A000815060008450A0008000000004F
:1000E000450A0008450A0008450A0008000000000B
:1000F000000000000000000000000000450A0008A9
:1001000000000000450A0008450A0008450A0008EA
:1001100000000000000000000000000000000000DF
:10012000450A0008450A0008450A0008450A000873
:10013000450A000800000000000000000000000068
:10014000000000000000000000000000450A000858
:10015000450A0008450A0008450A0008450A000843
:10016000450A0008450A00080000000000000000E1
:10017000000000000000000000000000000000007F
:1001800000000000450A0008000000000000000018
:08019000450A0008450A0008B9
:1001980053B94AB9002908BF00281CBF4FF0FF31E6
:1001A8004FF0FF3000F00CB8ADF1080C6DE904CE4B
:1001B80002F082FCDDF804E0DDE9022304B07047B8
:1001C800704700BF0348044B834202D0034B03B17E
:1001D8001847704740000020400000200000000041
:1001E8000548064B1B1AD90F01EBA301491002D091
:1001F800034B03B11847704740000020400000201F
:100208000000000010B5064C237843B9FFF7DAFF69
:10021800044B13B10448AFF300800123237010BDD1
:100228004000002000000000402F000808B5054BE2
:100238001BB105490548AFF30080BDE80840FFF74A
:10024800CFBF00BF0000000044000020402F00087E
:1002580010B501224FF400410F4801F01BF80520AA
:1002680000F040FC0D4C0021204601F06FFE0421F7
:10027800204601F06BFE0821204601F067FE0021B0
:10028800204602F02BF80421204602F027F8082126
:10029800204602F023F810BD000402402C04002080
:1002A800002307E003F13001044A002042F821004E
:1002B8000133DBB2172BF5D9704700BF5C00002073
:1002C80008B54823024A0421024801F0B7FE08BDD8
:1002D8005C000020E403002008B5FFF7E1FFFFF70A
:1002E800EFFF08BD10B483B00191022856D8002250
:1002F80009E02A2400EB400301EBC303294941F834
:1003080023400132D2B2072A0ED89DF8053026497B
:10031800A1FB03139B081146C2F10704234113F004
:10032800010FE6D05424E5E7082209E02A2400EB6F
:10033800400301EBC3031B4941F823400132D2B209
:100348000F2A0ED89DF804301749A1FB03139B0808
:100358001146C2F10F04234113F0010FE6D05424D3
:10036800E5E7102209E02A2400EB400301EBC30370
:100378000C4941F823400132D2B2172A0ED89DF811
:1003880006300949A1FB03139B081146C2F1170463
:10039800234113F0010FE6D05424E5E703B010BC65
:1003A800704700BF5C000020CDCCCCCC30B583B00A
:1003B80004460D46019205E001992046FFF792FF99
:1003C8000134E4B2AC42F7D903B030BD08B50B4BE9
:1003D8001B780D2B07D00A2B0BD009490A6809484E
:1003E800835401320A6001220449074802F051FB94
:1003F80008BD064B01221A60F5E700BF7C0100200A
:100408008002002084020020740400207C02002066
:1004180000B583B000210191094B1A6B42F4001218
:100428001A631B6B03F400130193019B0A46102007
:1004380000F0C0FB102000F0CDFB03B05DF804FB1A
:100448000038024030B589B0002403940494059420
:10045800069407940094194B1A6B42F080021A63B1
:100468001A6B02F080020092009A01941A6B42F013
:1004780002021A631A6B02F002020192019A0294B4
:100488001A6B42F001021A631B6B03F0010302931B
:10049800029B0B4D22464FF40041284600F0FAFE1D
:1004A8004FF400430393012304930594069403A98E
:1004B800284600F007FE09B030BD00BF00380240F2
:1004C8000004024072B6FEE700B595B03022002164
:1004D80008A802F04FFC00230393049305930693A6
:1004E800079301931E4A116C41F080511164126CFC
:1004F80002F080520192019A02931A4A116841F45B
:1005080040411160126802F440420292029A0222AB
:10051800089201210B9110210C910E920F93082340
:1005280010936423119312920423139308A800F0E4
:10053800B7FE88B90F23039302230493002305937E
:100548004FF4805206920793032103A801F012F991
:1005580020B915B05DF804FBFFF7B4FFFFF7B2FF51
:10056800003802400070004008B500F08FFAFFF72D
:10057800ABFFFFF767FFFFF74BFF00F0DDF900F077
:10058800FFF800F083F9FFF763FE074A537A917A80
:1005980043EA0123D27A43EA024201210020FFF70D
:1005A80005FFFFF799FEFEE70000002082B000215A
:1005B80000910B4B5A6C42F480425A645A6C02F414
:1005C80080420092009A01911A6C42F080521A649B
:1005D8001B6C03F080530193019B02B0704700BF6E
:1005E80000380240FEE7FEE7FEE7FEE7FEE7704759
:1005F8007047704708B500F063FA08BD08B50248AF
:1006080000F072FC08BD00BF8403002008B5024852
:1006180002F0E2F808BD00BF740400207047000033
:1006280010B582B00368224A934205D00446214A95
:1006380093420ED002B010BD002300931E4B5A6C9B
:1006480042F001025A645B6C03F001030093009BC3
:10065800F0E70023019302F50D32116C41F002011D
:100668001164126C02F002020192019A1348144AB2
:1006780002604FF02062426040228260C3604FF403
:10068800806202614FF4805242614FF4804282617D
:10069800C3614FF480320262436200F02DFB18B947
:1006A800064BA3629C63C5E7FFF70CFFF8E700BFA2
:1006B800000001400004004000380240840300208C
:1006C8008860024070B588B00023039304930593B3
:1006D800069307930368254A934204D0244A934219
:1006E8002ED008B070BD00240094224B1A6B42F043
:1006F80002021A631A6B02F002020092009A019435
:100708001A6B42F001021A631B6B03F00103019399
:10071800019B42F2030303930226049601250795E1
:1007280003A9154800F0CEFC4FF4E0630393049648
:1007380005940694079503A9104800F0C3FCD0E778
:10074800002302930B4B1A6B42F002021A631B6BD5
:1007580003F002030293029B2023039302230493D2
:10076800079303A9044800F0ADFCBAE70000014074
:10077800000400400038024000040240000002402B
:1007880010B596B0002412941394149415941094F0
:10079800119409940A940B940C940D940E940F944C
:1007A8002022214601A802F0E5FA3648364B0360BC
:1007B80063234360846040F2E733C36004614461AB
:1007C800846101F035FA002844D14FF48053129324
:1007D80012A92C4801F02CFB00283ED1294801F031
:1007E80053FA00283CD100231093119310A92548EF
:1007F80001F0E8FD002836D16023099300220A920F
:100808000B920C920D920E920F9209A91D4801F0BD
:1008180095FA58BB042209A91A4801F08FFA40BB7F
:10082800082209A9174801F089FA28BB0023019377
:1008380002930393049305934FF40052069208938E
:1008480001A9104801F0FCFDC8B90E48FFF73AFFAE
:1008580016B010BDFFF736FEB7E7FFF733FEBDE76A
:10086800FFF730FEBFE7FFF72DFEC5E7FFF72AFECB
:10087800D0E7FFF727FED3E7FFF724FED6E7FFF719
:1008880021FEE2E72C0400200000014000B58FB0F3
:1008980000230A930B930C930D93089309930193E8
:1008A8000293039304930593069307932048214AE0
:1008B8000260436083607D22C2600361836101F04E
:1008C800B7F930BB4FF480530A930AA9184801F0CE
:1008D800AFFA08BB164801F0D7F900BB002308930C
:1008E800099308A9124801F06DFDD8B96023019356
:1008F800002302930393059304220DEB02010C4895
:1009080001F01CFA88B90A48FFF7DCFE0FB05DF861
:1009180004FBFFF7D7FDD5E7FFF7D4FDDAE7FFF7CC
:10092800D1FDDBE7FFF7CEFDE0E7FFF7CBFDEAE718
:10093800E40300200004004008B50A480A4B03609D
:100948004FF4E133436000238360C36003610C22EA
:1009580042618361C36101F083FE00B908BDFFF7FE
:10096800B1FDFBE7740400200010014010B588B009
:10097800002303930493059306930793026803F1F6
:10098800804303F588339A4201D008B010BD002493
:10099800019403F594335A6C42F010025A645A6C6D
:1009A80002F010020192019A02941A6B42F00202BC
:1009B8001A631B6B03F002030293029BC023039389
:1009C80002230493032306930723079303A90648E6
:1009D80000F078FB22462146252000F0EBF8252080
:1009E80000F0F8F8D1E700BF00040240DFF834D087
:1009F800FFF714FE0C480D490D4A002302E0D458B5
:100A0800C4500433C4188C42F9D30A4A0A4C002350
:100A180001E013600432A242FBD302F0FDF9FFF7B4
:100A2800A3FD7047000002200000002040000020C5
:100A38008C2F00084000002058060020FEE7000028
:100A480010B504460E4B1A784FF47A73B3FBF2F3E1
:100A58000C4A1068B0FBF3F000F0C0F868B90F2C2E
:100A680001D901200AE0002221464FF0FF3000F0B2
:100A7800A1F8054B1C60002000E0012010BD00BF5C
:100A880034000020300000203800002008B50B4B4F
:100A98001A6842F400721A601A6842F480621A6096
:100AA8001A6842F480721A60032000F071F80F206F
:100AB800FFF7C6FFFFF77AFD002008BD003C0240A3
:100AC800034A1168034B1B780B441360704700BF3F
:100AD800BC04002034000020014B1868704700BF98
:100AE800BC04002038B50446FFF7F6FF0546B4F10C
:100AF800FF3F02D0044B1B781C44FFF7EDFF401B5F
:100B0800A042FAD338BD00BF34000020002807DB1C
:100B180000F01F02400901239340024A42F82030A6
:100B2800704700BF00E100E0002808DB0901C9B2F6
:100B380000F1604000F5614080F80013704700F054
:100B48000F000901C9B2014B1954704714ED00E0B8
:100B580000B500F00700C0F1070CBCF1040F28BF76
:100B68004FF0040C031D062B0FD9C31E4FF0FF3E98
:100B78000EFA0CF021EA000199400EFA03FE22EA6F
:100B88000E0241EA02005DF804FB0023EEE70000D4
:100B9800074AD36823F4E0631B041B0C000200F42B
:100BA800E060034343F0BF6343F40033D36070470E
:100BB80000ED00E010B50446054BD868C0F30220EC
:100BC800FFF7C6FF01462046FFF7AEFF10BD00BF86
:100BD80000ED00E008B5FFF799FF08BD0138B0F156
:100BE800807F0BD24FF0E0235861054AF02182F84C
:100BF80023100020986107221A617047012070476E
:100C080000ED00E030B405682C6824F480242C60E2
:100C1800046863608368402B05D0036899600368A3
:100C2800DA6030BC704703689A600368D960F8E7F7
:100C380010B40368D9B21039094AA2FB014212095B
:100C4800084CA25CC2655F2906D96FF30903043317
:100C58008365806D10BC70476FF309038365F8E7FF
:100C6800ABAAAAAA702F0008836A826992B9012BDD
:100C78000AD0022B02D00BB100207047C36A13F0D0
:100C8800807F28D100207047C36AB3F1C07F24D089
:100C980000207047B2F5005F09D0022B25D9032B3D
:100CA80025D1C36A13F0807F23D100207047032B1E
:100CB80003D8DFE803F01404140A00207047C36A5D
:100CC80013F0807F0DD100207047C36AB3F1C07F55
:100CD80009D000207047012070470120704701208B
:100CE800704701207047012070470120704700209D
:100CF800704701207047000070B50446FFF7ECFE0E
:100D0800002C5BD00546022384F83530002384F894
:100D180034302268136823F00103136023681A68CB
:100D280012F0010F0AD0FFF7D7FE431B052BF5D9A8
:100D380020236365032084F8350070BD1A682049B4
:100D480011406268A0680243E068024320690243D8
:100D580060690243A0690243E0690243206A0243D2
:100D68000A43616A04291ED01A602668756925F04D
:100D78000705636A1D43042B07D1A36A1D43E36A71
:100D88001BB12046FFF770FF90B975612046FFF749
:100D98004FFFE26D3F23934083600020606501238D
:100DA80084F83530C9E7E16A206B01430A43DBE781
:100DB80040236365012084F83500BEE70120BCE7C5
:100DC8003F8010F038B50446856D90F8340001284E
:100DD8002BD0012084F8340094F83500C0B20128E3
:100DE80004D0002384F83430022038BD022084F86F
:100DF8003500002060652046FFF704FFE26D3F23C1
:100E08009340AB602268136843F016031360236CA9
:100E180023B12268136843F008031360226813683B
:100E280043F0010313600020DFE70220DDE770B51F
:100E38000446866DFFF750FE94F83530DBB2022B7E
:100E480006D080236365002384F83430012070BD08
:100E580005462268136823F0160313602268536955
:100E680023F080035361236CE3B12268136823F0F5
:100E7800080313602268136823F0010313602368D2
:100E88001B6813F0010F11D0FFF726FE431B052B3B
:100E9800F5D920236365032084F83500002384F8FE
:100EA8003430D4E7A36C002BDFD1E3E7E26D3F23B6
:100EB8009340B360012384F83530002084F834006F
:100EC800C5E790F83530DBB2022B03D080234365A9
:100ED80001207047052380F835300268136823F035
:100EE8000103136000207047F0B583B00446002367
:100EF8000193724B1D68724BA3FB0535AD0A876DD4
:100F08003E68C26D08239340334210D003681A68C4
:100F180012F0040F0BD01A6822F004021A60C26D96
:100F280008239340BB60436D43F001034365E26DC2
:100F380001239340334209D02268526912F0800F8E
:100F480004D0BB60636D43F002036365E26D042364
:100F58009340334209D02268126812F0020F04D07D
:100F6800BB60636D43F004036365E26D1023934037
:100F7800334224D02268126812F0080F1FD0BB60D9
:100F880023681A6812F4802F0DD01B6813F4002F01
:100F980004D1236C9BB12046984710E0A36C73B131
:100FA800204698470BE01A6812F4807F03D11A682C
:100FB80022F008021A60236C0BB120469847E26DB4
:100FC80020239340334255D02268126812F0100F44
:100FD80050D0BB6094F83530DBB2052B0ED02368B7
:100FE8001A6812F4802F33D01B6813F4002F2AD10B
:100FF800636C002B3ED0204698473BE0226813687C
:1010080023F0160313602268536923F080035361A9
:10101800236CA3B12268136823F008031360E26D00
:101028003F239340BB60012384F83530002384F8C4
:101038003430236D002B3FD0204698473CE0A36C0A
:10104800002BE7D1EBE7E36BA3B12046984711E00B
:101058001A6812F4807F09D11A6822F010021A6007
:10106800012384F83530002384F83430E36B0BB166
:1010780020469847636DFBB1636D13F0010F17D0DD
:10108800052384F835302268136823F001031360C0
:10109800019B01330193AB4204D823681B6813F00A
:1010A800010FF5D1012384F83530002384F834305A
:1010B800E36C0BB12046984703B0F0BD3000002028
:1010C800B5814E1B00230F2B00F2DA8030B583B0B8
:1010D80068E085684FEA430E032404FA0EF425EA13
:1010E8000405CC6804FA0EF42C438460446824EAAE
:1010F80002044A68C2F300129A40224342605FE049
:10110800DC08083450F8242003F00705AD004FF040
:101118000F0E0EFA05FE22EA0E0E0A69AA4042EAEE
:101128000E0240F824205FE0042200E0002202FAC8
:101138000EF22A430234534D45F82420524A94684B
:101148006FEA0C0224EA0C05D1F804E01EF4801FB3
:1011580001D04CEA04054C4CA560E46802EA040599
:10116800D1F804E01EF4001F01D04CEA0405464CF7
:10117800E560646802EA0405D1F804E01EF4003F63
:1011880001D04CEA0405404C6560246822404D6853
:1011980015F4803F01D04CEA04023B4C2260013335
:1011A8000F2B6BD801229A400C6804EA020C32EA31
:1011B8000404F4D14C6804F00304013C012C88D9E0
:1011C8004A6802F00302032A09D0C4685D000322BA
:1011D800AA4024EA02048A68AA402243C2604A68F4
:1011E80002F00302022A8BD004684FEA430E03225E
:1011F80002FA0EF224EA02044A6802F0030202FA32
:101208000EF2224302604A6812F4403FC7D000221F
:1012180001921E4A546C44F480445464526C02F4A3
:1012280080420192019A9C08A51C164A52F8255042
:1012380003F0030E4FEA8E0E0F2202FA0EF225EA91
:101248000205134A90423FF471AF02F58062904262
:101258000ED002F5806290420CD002F58062904276
:101268000AD002F5806290423FF45EAF07225EE743
:1012780001225CE702225AE7032258E703B030BD97
:10128800704700BF00380140003C01400038024070
:10129800000002400AB1816170470904816170470A
:1012A800002800F0E08170B582B00446036813F0AE
:1012B800010F3BD09F4B9B6803F00C03042B2CD0F1
:1012C8009C4B9B6803F00C03082B21D06368B3F593
:1012D800803F4FD0B3F5A02F52D0964B1A6822F416
:1012E80080321A601A6822F480221A606368002B20
:1012F80050D0FFF7F1FB05468E4B1B6813F4003FF7
:1013080014D1FFF7E9FB401B6428F5D90320B1E1AC
:10131800884B5B6813F4800FD8D0864B1B6813F496
:10132800003F03D06368002B00F09F81236813F00F
:10133800020F54D07F4B9B6813F00C0F3ED07D4BAF
:101348009B6803F00C03082B33D0E368002B68D0AC
:10135800794B01221A60FFF7BFFB0546754B1B68E6
:1013680013F0020F54D1FFF7B7FB401B0228F5D941
:1013780003207FE16F4A136843F480331360B5E7B5
:101388006C4B1A6842F480221A601A6842F4803260
:101398001A60ABE7FFF7A0FB0546664B1B6813F422
:1013A800003FC3D0FFF798FB401B6428F5D9032002
:1013B80060E1604B5B6813F4800FC6D15D4B1B681E
:1013C80013F0020F03D0E368012B40F05081594A13
:1013D800136823F0F803216943EAC1031360236803
:1013E80013F0080F42D063696BB3534B0122C3F863
:1013F800802EFFF771FB05464E4B5B6F13F0020F13
:1014080034D1FFF769FB401B0228F5D9032031E1ED
:10141800484A136823F0F803216943EAC1031360BB
:10142800DDE7454B00221A60FFF756FB0546414BA6
:101438001B6813F0020FD2D0FFF74EFB401B0228A7
:10144800F5D9032016E13C4B0022C3F8802EFFF7A4
:1014580043FB0546374B5B6F13F0020F06D0FFF7CF
:101468003BFB401B0228F5D9032003E1236813F056
:10147800040F77D02F4B1B6C13F0805F33D1002300
:1014880001932C4B1A6C42F080521A641B6C03F0C7
:1014980080530193019B0125284B1B6813F4807F1F
:1014A80023D0A368012B34D0052B38D0214B1A6FD9
:1014B80022F001021A671A6F22F004021A67A36861
:1014C800002B3DD0FFF708FB06461A4B1B6F13F0A5
:1014D800020F46D1FFF700FB801B41F28833984288
:1014E800F3D90320C6E00025D6E7144A136843F46D
:1014F80080731360FFF7F0FA0646104B1B6813F46D
:10150800807FCED1FFF7E8FA801B0228F5D90320A7
:10151800B0E0084A136F43F001031367CFE7054BA8
:101528001A6F42F004021A671A6F42F001021A6732
:10153800C5E700BF00380240000047420070004085
:10154800FFF7CAFA0646524B1B6F13F0020F08D07A
:10155800FFF7C2FA801B41F288339842F3D903207F
:1015680088E0EDB9A369002B00F08380484A9268AF
:1015780002F00C02082A51D0022B17D0454B00224A
:101588001A66FFF7A9FA0446414B1B6813F0007F5F
:1015980042D0FFF7A1FA001B0228F5D9032069E021
:1015A8003B4A136C23F080531364DBE7394B00226A
:1015B8001A66FFF791FA0546354B1B6813F0007F52
:1015C80006D0FFF789FA401B0228F5D9032051E01D
:1015D800E369226A1343626A43EA8213A26A5208E1
:1015E800013A43EA0243E26A43EA0263284A536043
:1015F800284B01221A66FFF76FFA0446244B1B6832
:1016080013F0007F06D1FFF767FA001B0228F5D90F
:1016180003202FE000202DE000202BE0012B2BD011
:101628001B4B5B6803F48001E269914226D103F009
:101638003F02216A8A4223D1616A47F6C0721A4082
:10164800B2EB811F1ED103F44031A26A5208013A5D
:10165800B1EB024F18D103F07063E26AB3EB026F8B
:1016680014D1002006E001207047012002E001208B
:1016780000E0002002B070BD0120FBE70120F9E77F
:101688000120F7E70120F5E70120F3E70120F1E762
:10169800003802400000474208B5334B9B6803F00E
:1016A8000C03042B5BD0082B5BD12F4B5A6802F03C
:1016B8003F025B6813F4800F2CD02B4B5868C0F3A3
:1016C80088104FEA401CBCEB000C6EEB0E0E4FEA84
:1016D8008E1343EA9C634FEA8C11B1EB0C0163EB68
:1016E8000E03DB0043EA5173C90011EB000C43F110
:1016F8000003590200234FEA4C2041EADC51FEF76F
:1017080047FD194B5B68C3F3014301335B00B0FB32
:10171800F3F008BD144B5868C0F388104FEA401C1A
:10172800BCEB000C6EEB0E0E4FEA8E1343EA9C6383
:101738004FEA8C11B1EB0C0163EB0E03DB0043EABB
:101748005173C90011EB000C43F100039902002307
:101758004FEA8C2041EA9C51FEF71AFDD1E7034875
:10176800D7E70348D5E700BF0038024000127A00E7
:101778000024F400002800F09B8070B50D46044654
:101788004F4B1B6803F007038B4208D2CBB24C4A7D
:101798001370136803F007038B4240F08B802368B3
:1017A80013F0020F17D013F0040F04D0454A9368C2
:1017B80043F4E0539360236813F0080F04D0414AC0
:1017C800936843F4604393603E4A936823F0F003C0
:1017D800A1680B439360236813F0010F32D063684C
:1017E800012B21D09A1E012A25D9364A126812F0F7
:1017F800020F61D033498A6822F0030213438B60D9
:10180800FFF76AF906462F4B9B6803F00C036268E2
:10181800B3EB820F16D0FFF75FF9801B41F28833D4
:101828009842F0D9032042E0264A126812F4003F99
:10183800E0D101203BE0234A126812F0007FD9D1A1
:10184800012034E01E4B1B6803F00703AB4207D9A5
:10185800EAB21B4B1A701B6803F00703AB422DD189
:10186800236813F0040F06D0164A936823F4E05354
:10187800E1680B439360236813F0080F07D0114AFF
:10188800936823F46043216943EAC1039360FFF737
:1018980003FF0C4B9B68C3F303130B4AD35CD8407C
:1018A8000A4B18600A4B1868FFF7CAF8002070BD89
:1018B800012070470120FAE70120F8E70120F6E748
:1018C800003C024000380240602F00083000002031
:1018D80038000020014B1868704700BF3000002016
:1018E80008B5FFF7F7FF044B9B68C3F38223034A4D
:1018F800D35CD84008BD00BF00380240582F00080C
:1019080008B5FFF7E7FF044B9B68C3F34233034A6C
:10191800D35CD84008BD00BF00380240582F0008EB
:1019280030B4026A036A23F00103036245688369DD
:1019380023F073030C681C4322F002028B681343E4
:101948000B4A904206D0456084614A68426303624C
:1019580030BC704723F00803CA681A4322F0040316
:1019680025F440754A692A438D691543EBE700BFA2
:101978000000014030B4036A026A22F480720262F5
:101988004468C26922F073020D68154323F400739A
:101998008A6843EA02230D4A904206D04460C56132
:1019A8004A68C263036230BC704723F40063CA68A4
:1019B80043EA022323F4806324F440544A6944EA46
:1019C80002148A6944EA0214E8E700BF00000140F3
:1019D80030B4036A026A22F4805202624468C2691F
:1019E80022F4E6420D6842EA052223F400538D688A
:1019F80043EA0533074DA84206D04460C2614A68ED
:101A08000264036230BC704724F480444D6944EAA0
:101A18008514F2E70000014010B4036A046A24F058
:101A280001040462846924F0F00C4CEA021223F0E9
:101A38000A030B438261036210BC704710B4036A47
:101A4800046A24F010040462846924F4704C4CEA9B
:101A5800023223F0A00343EA01138261036210BC3F
:101A68007047836823F070030B4343F007038360D8
:101A780070477047704710B5846B636A83420ED015
:101A8800A36A834214D0E36A83421AD0236B834249
:101A980020D02046FFF7EEFF0023237710BD012357
:101AA8002377C369002BF4D1012384F83E30F0E793
:101AB80002232377C369002BEBD1012384F83F303D
:101AC800E7E704232377C369002BE2D1012384F8D5
:101AD8004030DEE708232377C369002BD9D10123DF
:101AE80084F84130D5E7704710B5846B636A834248
:101AF8000BD0A36A834210D0E36A834210D0236BD1
:101B0800834204D10823237701E001232377204669
:101B1800FFF7E9FF0023237710BD02232377F6E7B9
:101B280004232377F3E7704710B5846B636A834215
:101B38000CD0A36A834213D0E36A834216D0236B86
:101B4800834219D0012384F83D3003E00123237731
:101B580084F83E302046FFF7E6FF0023237710BDC8
:101B680002232377012384F83F30F3E70423237704
:101B7800012384F84030EDE708232377012384F814
:101B88004130E7E70368294A90420ED0B0F1804F10
:101B98000BD0A2F57C42904207D002F580629042B9
:101BA80003D002F58062904203D123F070034A68A3
:101BB80013431E4A90421AD0B0F1804F17D0A2F5B5
:101BC8007C42904213D002F5806290420FD002F519
:101BD800806290420BD002F59A32904207D002F50B
:101BE8008062904203D002F58062904203D123F4D0
:101BF8004073CA68134323F080034A6913430360A0
:101C08008B68C3620B688362084B98420AD0012331
:101C18004361036913F0010F03D0036923F0010343
:101C2800036170470B690363F1E700BF00000140DF
:101C380040B310B5044690F83D30F3B1022384F860
:101C48003D30214651F8040BFFF79CFF012384F82F
:101C5800463084F83E3084F83F3084F8403084F8C9
:101C6800413084F8423084F8433084F8443084F8B2
:101C7800453084F83D30002010BD80F83C30FEF738
:101C8800CFFCDBE70120704740B310B5044690F85D
:101C98003D30F3B1022384F83D30214651F8040B5E
:101CA800FFF770FF012384F8463084F83E3084F84B
:101CB8003F3084F8403084F8413084F8423084F86A
:101CC800433084F8443084F8453084F83D300020AF
:101CD80010BD80F83C30FFF7CCFEDBE701207047F1
:101CE80030B4036A026A22F0100202624468826910
:101CF80022F4E6420D6842EA052223F020038D68AB
:101D080043EA05130C4DA84206D0446082614A6834
:101D18008263036230BC704723F08003CD6843EAD6
:101D2800051323F0400324F440644D6944EA850414
:101D38008D6944EA8504E8E70000014038B590F869
:101D48003C30012B66D004460D46012380F83C3018
:101D58000C2A5AD8DFE802F0075959591B59595922
:101D68003059595944000068FFF7DAFD2268936931
:101D780043F0080393612268936923F00403936195
:101D88002268936929690B43936100203EE000684B
:101D9800FFF7A6FF2268936943F400639361226802
:101DA800936923F48063936122689369296943EAFC
:101DB80001239361002029E00068FFF7DBFD22681A
:101DC800D36943F00803D3612268D36923F004037D
:101DD800D3612268D36929690B43D361002015E0D8
:101DE8000068FFF7F5FD2268D36943F40063D36107
:101DF8002268D36923F48063D3612268D36929698F
:101E080043EA0123D361002000E00120002384F885
:101E18003C3038BD0220FCE710B4846824F47F4CC1
:101E280042EA03220A4342EA0C02826010BC70476D
:101E380090F83C30012B78D010B50446012380F887
:101E48003C30022380F83D300268936823F47F43D6
:101E580023F0770393600B68602B4CD023D8402B7A
:101E680054D011D8202B03D00AD80BB1102B05D190
:101E780019462068FFF7F5FD002028E0012026E03C
:101E8800302BF5D0012022E0502B0AD1CA684968CE
:101E98000068FFF7C1FD50212068FFF7E2FD002030
:101EA80015E0012013E0B3F5805F3AD0B3F5005F89
:101EB80014D0702B37D1CB684A6889680068FFF75F
:101EC800ABFF2268936843F07703936000200123F7
:101ED80084F83D30002384F83C3010BDCB684A6854
:101EE80089680068FFF798FF2268936843F4804385
:101EF80093600020EBE7CA6849680068FFF79EFD19
:101F080060212068FFF7ADFD0020E0E7CA68496856
:101F18000068FFF781FD40212068FFF7A2FD00203F
:101F2800D5E70020D3E70120D1E70220704701F070
:101F38001F014FF0010C0CFA01FC036A23EA0C03A1
:101F48000362036A8A4013430362704710B504466C
:101F58000846002932D194F83E30DBB2013B18BF65
:101F68000123002B63D1002841D1022384F83E309D
:101F7800012201462068FFF7DAFF23682E4A9342C0
:101F880045D023682C4A934246D0B3F1804F43D0C2
:101F9800A2F57C4293423FD002F5806293423BD047
:101FA80002F58062934237D002F59A32934233D0D9
:101FB8001A6842F001021A60002037E0042908D0AC
:101FC80008290DD094F84130DBB2013B18BF01233A
:101FD800C7E794F83F30DBB2013B18BF0123C0E7E5
:101FE80094F84030DBB2013B18BF0123B9E704285D
:101FF80005D0082807D0022384F84130B8E7022327
:1020080084F83F30B4E7022384F84030B0E75A6CD4
:1020180042F400425A64B4E79A6802F00702062ABA
:1020280007D01A6842F001021A60002010BD012092
:10203800FCE70020FAE700BF0000014070B5044645
:1020480016460D46002964D190F83E00C0B2022819
:1020580014BF00200120002840F01481002D74D105
:1020680094F83E20D2B2012A14BF00220122002A8D
:1020780000F00A81002E00F00981002B00F0088191
:10208800002D7ED1022284F83E20626A8749D163FE
:10209800626A87491164626A8649D1642268343267
:1020A8003146606AFEF78EFE002840F0F58022680F
:1020B800D36843F40073D360012229462068FFF7F0
:1020C80036FF23687C4A934200F0CC8023687A4A22
:1020D800934200F0CC80B3F1804F00F0C880A2F5A5
:1020E8007C42934200F0C38002F58062934200F084
:1020F800BE8002F58062934200F0B98002F59A3200
:10210800934200F0B4801A6842F001021A6000207D
:10211800BBE0042909D008290FD090F84100C0B2CB
:10212800022814BF0020012095E790F83F00C0B2B4
:10213800022814BF002001208DE790F84000C0B2AB
:10214800022814BF0020012085E7042D09D0082D9E
:102158000FD094F84120D2B2012A14BF00220122E4
:1021680085E794F83F20D2B2012A14BF0022012249
:102178007DE794F84020D2B2012A14BF0022012240
:1021880075E7042D24D0082D3CD0022284F8412084
:102198000C2D7FD801A252F825F000BF932000082B
:1021A8009D2200089D2200089D220008DF210008CA
:1021B8009D2200089D2200089D2200081322000885
:1021C8009D2200089D2200089D2200084122000847
:1021D800022284F83F20A26A3449D163A26A3449B2
:1021E8001164A26A3349D164226838323146A06A40
:1021F800FEF7E8FD002851D12268D36843F48063D4
:10220800D36059E7022284F84020E26A2749D16363
:10221800E26A27491164E26A2649D16422683C329D
:102228003146E06AFEF7CEFD002839D12268D3682E
:1022380043F40063D3603FE7226B1C49D163226BF0
:102248001B491164226B1B49D16422684032314614
:10225800206BFEF7B7FD28BB2268D36843F4805390
:10226800D36029E75A6C42F400425A642EE79A6810
:1022780002F00702062A17D01A6842F001021A6013
:10228800002002E0022000E0012070BD0120FCE7F0
:102298000120FAE70120F8E70120F6E70120F4E73A
:1022A8000120F2E70120F0E70020EEE77F1A00089E
:1022B800F11A0008311B00080000014001F00F016D
:1022C8004FF0040C0CFA01FC036A23EA0C030362C6
:1022D800036A8A40134303627047000010B504463E
:1022E8000846002933D194F84230DBB2013B18BFCD
:1022F8000123002B5FD1002842D1022384F8423009
:10230800042201462068FFF7D9FF2268536C43F482
:102318000043536423682A4A934241D0B3F1804F63
:102328003ED0A2F57C4293423AD002F580629342B5
:1023380036D002F58062934232D002F59A32934247
:102348002ED01A6842F001021A60002032E00429F7
:1023580008D008290DD094F84530DBB2013B18BFEE
:102368000123C6E794F84330DBB2013B18BF0123D1
:10237800BFE794F84430DBB2013B18BF0123B8E74C
:10238800042805D0082807D0022384F84530B7E789
:10239800022384F84330B3E7022384F84430AFE7DC
:1023A8009A6802F00702062A07D01A6842F001026A
:1023B8001A60002010BD0120FCE70020FAE700BFEA
:1023C8000000014090F83C20012A34D010B40346A4
:1023D800012280F83C20022280F83D2002685068E3
:1023E800946820F0700C086840EA0C0050601A6885
:1023F8001248824212D0B2F1804F0FD0A0F57C4033
:1024080082420BD000F58060824207D000F58060E0
:10241800824203D000F59A30824204D124F080042D
:10242800496821439160012283F83D20002083F808
:102438003C0010BC70470220704700BF00000140FC
:10244800024690F83C30012B21D0012380F83C3023
:10245800CB6823F440738868034323F48063486897
:10246800034323F400630868034323F48053086993
:10247800034323F400534869034323F48043C969A1
:102488000B4311684B64002082F83C00704702201F
:102498007047026802F10C0353E8003F23F490737D
:1024A8000C3242E800310029F3D1026802F114032A
:1024B80053E8003F23F00103143242E800310029B9
:1024C800F3D1036B012B05D0202380F84230002381
:1024D80003637047026802F10C0353E8003F23F0DE
:1024E80010030C3242E800310029F3D1ECE790F8F0
:1024F8004130DBB2212B01D0022070478368B3F54D
:10250800805F17D0036A5A1C02621A7803685A60FF
:10251800C38C9BB2013B9BB2C3844BB90268D3689E
:1025280023F08003D3600268D36843F04003D3608C
:10253800002070470369002BE4D1036A1B880268F6
:10254800C3F308035360036A02330362E0E7000041
:1025580010B504460268136923F44053C1680B435D
:102568001361836802691A4343691A43C3691A43AA
:102578000168CB6823F4164323F00C031343CB60A4
:102588000268536923F4407381690B4353610368FC
:10259800314A934206D002F58062934202D0FFF797
:1025A8009FF901E0FFF7ACF9E369B3F5004F29D0D3
:1025B8000021031849411B1841F10001C90041EAF3
:1025C8005371DB00181863684FEA83024FEA93736C
:1025D80041F10001FDF7DCFD204AA2FB0031490969
:1025E800642303FB11031B013233A2FB03235B09A2
:1025F80003F0F00202EB011203F00F032168134409
:102608008B6010BD0023021843EB0301121841F13F
:102618000001C90041EA5271D200101841F10001CD
:10262800626892185B41FDF7B3FD0C4AA2FB0031CA
:102638004909642303FB1103DB003233A2FB0323A4
:102648005B095A0002F4F87202EB011203F0070367
:10265800216813448B60D4E7001001401F85EB51BB
:1026680060B310B5044690F8413013B3242384F8BE
:1026780041302268D36823F40053D3602046FFF723
:1026880067FF2268136923F4904313612268536932
:1026980023F02A0353612268D36843F40053D360BC
:1026A80000206064202384F8413084F8423060635D
:1026B80010BD80F84030FEF759F9D7E70120704780
:1026C800704708B50168CA6822F04002CA60202233
:1026D80080F84120FFF7F4FF002008BD704708B5D7
:1026E800806B0023C385C384FFF7F8FF08BD7047DC
:1026F80090F84230DBB2222B69D18368B3F5805F52
:102708004FD0826AB3F5805F04D0002B56D103699D
:10271800002B53D103685B681370836A01338362AB
:10272800C38D9BB2013B9BB2C385002B51D100B531
:1027380083B00268D36823F02003D3600268D368AB
:1027480023F48073D3600268536923F00103536153
:10275800202380F8423000234363036B012B33D1DD
:1027680000230363026802F10C0353E8003F23F0DF
:1027780010030C3242E800310029F3D103681A68CB
:1027880012F0100F06D0002201921A6801925B68BD
:102798000193019B818DFFF7AAFF002003B05DF82C
:1027A80004FB0269002AACD1826A03685B68C3F340
:1027B80008031380836A02338362B1E703685B68A6
:1027C80003F07F031370A8E7FDF700FEE5E702209A
:1027D800704700207047000010B582B004460268B8
:1027E8001368D068516913F00F0F09D113F0200F47
:1027F8000CD010F0200F09D02046FFF779FF16E023
:1028080011F0010115D110F4907F12D1216B01292B
:1028180079D013F0800F03D010F0800F40F01481AE
:1028280013F0400F03D010F0400F40F0118102B0B8
:1028380010BD13F0010F06D010F4807F03D0626C36
:1028480042F00102626413F0040F04D019B1626C03
:1028580042F00202626413F0020F04D019B1626CF4
:1028680042F00402626413F0080F07D010F0200F42
:1028780000D119B1626C42F008026264626C002AED
:10288800D5D013F0200F02D010F0200F29D12368E3
:102898005B6903F04003626C12F0080F00D163B368
:1028A8002046FFF7F6FD23685B6913F0400F20D040
:1028B800226802F1140353E8003F23F04003143266
:1028C80042E800310029F3D1E36B73B1624A1A651B
:1028D800E06BFEF7F6FA0028A9D0E06B036D984785
:1028E800A5E72046FFF704FFD1E72046FFF7F6FEED
:1028F8009DE72046FFF7F2FE99E72046FFF7EEFE38
:102908000023636493E713F0100F82D010F0100FC8
:102918003FF47FAF00230193136801935368019339
:10292800019B536913F0400F52D0E26B13685B6848
:102938009BB2002B3FF47BAFA18D99427FF677AF16
:10294800E385D369B3F5807F37D0226802F10C03A1
:1029580053E8003F23F480730C3242E80031002929
:10296800F3D1226802F1140353E8003F23F0010376
:10297800143242E800310029F3D1226802F114032D
:1029880053E8003F23F04003143242E800310029A5
:10299800F3D1202384F8423000232363226802F114
:1029A8000C0353E8003F23F010030C3242E80031D7
:1029B8000029F3D1E06BFEF73AFA02236363A18D95
:1029C800E38D9BB2C91A89B22046FFF790FE2EE725
:1029D800A18DE38D9BB2C91A89B2E38D9BB2002BFE
:1029E8003FF425AF00293FF422AF226802F10C031F
:1029F80053E8003F23F490730C3242E8003000287B
:102A0800F3D1226802F1140353E8003F23F00103D5
:102A1800143242E800300028F3D1202384F84230F1
:102A280000232363226802F10C0353E8003F23F0DC
:102A380010030C3242E800300028F3D1022363630C
:102A48002046FFF754FEF2E62046FFF750FDEEE67B
:102A58002046FFF736FEEAE6E7260008816282850F
:102A6800C28500234364222380F84230036923B1DE
:102A78000268D36843F48073D3600268536943F0F3
:102A8800010353610268D36843F02003D360002038
:102A9800704708B590F84230DBB2202B08D149B115
:102AA8000AB9012008BD00230363FFF7D7FFF9E740
:102AB8000220F7E70120F5E72DE9F047089D0E46CB
:102AC80004460F46002B4AD194468C45B2FA82F24E
:102AD80060D942B1C2F12003974020FA03F30CFAFF
:102AE80002FC1F4394404FEA1C4E1FFA8CF6B7FBBA
:102AF800FEF1230C0EFB117743EA074301FB06F0B6
:102B080098420AD91CEB030301F1FF3780F01581C5
:102B1800984240F21281023963441B1AA4B2B3FBF3
:102B2800FEF00EFB103344EA034400FB06F6A6420F
:102B38000AD91CEB040400F1FF3380F00081A6429F
:102B480040F2FD806444023840EA0140A41B0021A1
:102B58001DB1D4400023C5E90043BDE8F0878B428E
:102B680005D90DB1C5E9000100210846F5E7B3FA1A
:102B780083F1002946D1B34202D3824200F2F580A4
:102B8800841A66EB030201201746002DE5D0C5E93B
:102B98000047E2E7002A40F09380A1EB0C034FEADC
:102BA8001C471FFA8CFE0121B3FBF7F607FB163012
:102BB800230C43EA00430EFB06F0984208D91CEBAD
:102BC800030306F1FF3802D2984200F2D08046464D
:102BD8001B1AA4B2B3FBF7F007FB103344EA034413
:102BE8000EFB00FEA64508D91CEB040400F1FF33D8
:102BF80002D2A64500F2B6801846A4EB0E0440EABD
:102C08000640A5E7C1F120078B4022FA07FC4CEAF1
:102C1800030C06FA01FE20FA07F426FA07F344EA41
:102C28000E0400FA01F84FEA1C404FEA1449B3FBBE
:102C3800F0FE1FFA8CF600FB1E3349EA03430EFB35
:102C480006F9994502FA01F20BD91CEB03030EF1C0
:102C5800FF3A80F08580994540F28280AEF1020EFD
:102C68006344A3EB0909A4B2B9FBF0F300FB139981
:102C780044EA094403FB06F6A64208D91CEB0404FF
:102C880003F1FF3068D2A64266D9023B644443EAA6
:102C98000E40A41BA0FB02E6B4427346B14652D3D1
:102CA8004FD05DB1B8EB030264EB090404FA07F7EF
:102CB80022FA01F31F43CC40C5E9007400214CE718
:102CC800C2F1200120FA01F30CFA02FC26FA01F104
:102CD800964033434FEA1C471FFA8CFEB1FBF7F0CE
:102CE80007FB1016190C41EA064100FB0EF68E424E
:102CF80004FA02F408D91CEB010100F1FF382DD2C7
:102D08008E422BD902386144891B9BB2B1FBF7F67E
:102D180007FB161143EA014306FB0EF1994208D955
:102D28001CEB030306F1FF3814D2994212D9023E74
:102D380063445B1A46EA004136E73946EDE6184631
:102D480002E7F045ADD2BEEB020366EB0C06013894
:102D5800B146A6E74646ECE7034698E74046D3E780
:102D6800D6467EE76444023847E708460DE7023E48
:102D780063442DE7830730B547D0541E002A3ED060
:102D8800CAB2034601E0013C39D303F8012B9D0781
:102D9800F9D1032C2CD9CDB205EB05250F2C05EB69
:102DA800054535D9A4F1100222F00F0C03F1100EDD
:102DB800E6444FEA121C1A46C2E90055C2E9025518
:102DC80010327245F8D10CF1010214F00C0F03EB2C
:102DD800021204F00F0C13D0ACF1040323F0030328
:102DE8000433134442F8045B9342FBD10CF0030410
:102DF8002CB1C9B21C4403F8011BA342FBD130BD5E
:102E080064461346002CF4D1F9E703461446C0E79C
:102E18001A46A446E0E700BF70B50F4B0F4DAB4212
:102E2800A3EB050607D0B610002455F8043B01347F
:102E38009847A642F9D800F07FF8094D094B5E1B68
:102E4800AB424FEAA60606D0002455F8043B0134ED
:102E58009847A642F9D870BD802F0008802F000837
:102E6800802F0008882F0008704700BF704700BFF8
:102E7800024B13B1024800F005B87047000000008B
:102E8800992E0008002301461A46184600F014B887
:102E980038B5074D074C2C1BA41005D0013C55F83C
:102EA800043D9847002CF9D1BDE8384000F04AB8F5
:102EB8008C2F0008882F00082DE9F8431B4D064683
:102EC800286898460F469146FFF7CEFF184B1C68B6
:102ED8001CB3286865681F2D22DC4EB96B1C0235AF
:102EE800636044F82570FFF7C1FF0020BDE8F88350
:102EF80004EB85010123C1F88890D4F88821AB4000
:102F08001A43022EC4F88821C1F80881E6D1D4F802
:102F18008C211A43C4F88C21E0E7064C1C60D8E7E2
:102F2800FFF7A4FF4FF0FF30E0E700BF3C000020B0
:102F3800C4040020C8040020F8B500BFF8BC08BCD1
:102F48009E467047F8B500BFF8BC08BC9E4670475F
:102F5800000000000102030400000000000000005F
:102F680001020304060708090006101600061016D9
:082F780048FBFF7F010000008F
:082F8000792E0008350200085B
:042F88000D0200082E
:102F8C00FE43654C000AF90FAD8000209E2E24B83C
:102F9C00CE8EE3170DB22222FF6347632612FF6128
:102FAC000015A1C9385E0F32CD32A020F0DA3C5AA0
:102FBC000024F4000100000010000000C0040020F8
:04000005080009F5F1
:00000001FF
