:020000040800F2
:1000000000000220211A0008491500084B150008BD
:100010004D1500084F15000851150008000000009C
:100020000000000000000000000000005315000860
:100030005515000800000000571500085915000864
:10004000711A0008711A0008711A0008711A000864
:10005000711A0008711A0008711A0008711A000854
:10006000711A0008711A0008711A0008711A000844
:10007000711A0008711A0008711A0008711A000834
:1000800061150008711A0008711A000800000000CC
:10009000000000000000000000000000711A0008CD
:1000A000711A0008711A0008711A0008711A000804
:1000B000711A0008711A0008711A0008711A0008F4
:1000C000711A0008711A0008711A0008711A0008E4
:1000D000711A000871150008711A0008000000006C
:1000E000711A0008711A0008711A00080000000057
:1000F000000000000000000000000000711A00086D
:1001000000000000711A0008711A0008711A000836
:1001100000000000000000000000000000000000DF
:1001200081150008711A0008711A0008711A000878
:10013000711A00080000000000000000000000002C
:10014000000000000000000000000000711A00081C
:10015000711A0008711A0008711A0008711A000853
:10016000711A0008711A0008000000000000000069
:10017000000000000000000000000000000000007F
:1001800000000000711A00080000000000000000DC
:08019000711A0008711A000841
:1001C00081F0004102E000BF83F0004330B54FEA08
:1001D00041044FEA430594EA050F08BF90EA020F75
:1001E0001FBF54EA000C55EA020C7FEA645C7FEA08
:1001F000655C00F0E2804FEA5454D4EB5555B8BF2B
:100200006D420CDD2C4480EA020281EA030382EA9B
:10021000000083EA010180EA020281EA0303362D2D
:1002200088BF30BD11F0004F4FEA01314FF4801C00
:100230004CEA113102D0404261EB410113F0004F12
:100240004FEA03334CEA133302D0524263EB4303C9
:1002500094EA050F00F0A780A4F10104D5F1200E67
:100260000DDB02FA0EFC22FA05F2801841F10001C2
:1002700003FA0EF2801843FA05F359410EE0A5F196
:1002800020050EF1200E012A03FA0EFC28BF4CF0C7
:10029000020C43FA05F3C01851EBE37101F000457D
:1002A00007D54FF0000EDCF1000C7EEB00006EEB8A
:1002B0000101B1F5801F1BD3B1F5001F0CD3490814
:1002C0005FEA30004FEA3C0C04F101044FEA44526B
:1002D00012F5800F80F09A80BCF1004F08BF5FEAF2
:1002E000500C50F1000041EB045141EA050130BDD2
:1002F0005FEA4C0C404141EB0101013C28BFB1F5E4
:10030000801FE9D291F0000F04BF01460020B1FA2E
:1003100081F308BF2033A3F10B03B3F120020CDA01
:100320000C3208DD02F1140CC2F10C0201FA0CF0DF
:1003300021FA02F10CE002F11402D8BFC2F1200C44
:1003400001FA02F120FA0CFCDCBF41EA0C019040FA
:10035000E41AA2BF01EB0451294330BD6FEA040443
:100360001F3C1CDA0C340EDC04F11404C4F120022E
:1003700020FA04F001FA02F340EA030021FA04F340
:1003800045EA030130BDC4F10C04C4F1200220FA97
:1003900002F001FA04F340EA0300294630BD21FAD5
:1003A00004F0294630BD94F0000F83F4801306BF9B
:1003B00081F480110134013D4EE77FEA645C18BF8F
:1003C0007FEA655C29D094EA050F08BF90EA020F26
:1003D00005D054EA000C04BF1946104630BD91EA1E
:1003E000030F1EBF0021002030BD5FEA545C05D121
:1003F0004000494128BF41F0004130BD14F5800460
:100400003CBF01F5801130BD01F0004545F0FE41D3
:1004100041F470014FF0000030BD7FEA645C1ABF08
:10042000194610467FEA655C1CBF0B46024650EA3F
:10043000013406BF52EA033591EA030F41F400216B
:1004400030BD00BF90F0000F04BF0021704730B5F1
:100450004FF4806404F132044FF000054FF00001C6
:1004600050E700BF90F0000F04BF0021704730B587
:100470004FF4806404F1320410F0004548BF40425C
:100480004FF000013EE700BF42004FEAE2014FEAB1
:1004900031014FEA02701FBF12F07F4393F07F4F8C
:1004A00081F06051704732F07F4208BF704793F08F
:1004B0007F4F04BF41F40021704730B54FF46074A2
:1004C00001F0004521F000411CE700BF50EA0102A5
:1004D00008BF704730B54FF000050AE050EA01024E
:1004E00008BF704730B511F0004502D5404261EBBE
:1004F00041014FF4806404F132045FEA915C3FF4FF
:10050000D8AE4FF003025FEADC0C18BF03325FEA9B
:10051000DC0C18BF033202EBDC02C2F1200300FA4C
:1005200003FC20FA02F001FA03FE40EA0E0021FA71
:1005300002F11444BDE600BF4FEA4102B2F1E043CC
:1005400024BFB3F5001CDCF1FE5C0DD901F0004CBA
:100550004FEAC0024CEA5070B2F1004F40EB83000A
:1005600008BF20F00100704711F0804F21D113F136
:100570003872BCBF01F00040704741F480114FEA6F
:100580005252C2F11802C2F1200C10FA0CF320FAF8
:1005900002F018BF40F001004FEAC1234FEAD32315
:1005A00003FA0CFC40EA0C0023FA02F34FEA43037F
:1005B000CCE77FEA625307D150EA01331EBF4FF008
:1005C000FE4040F44000704701F0004040F0FE4023
:1005D00040F40000704700BF53B94AB9002908BF72
:1005E00000281CBF4FF0FF314FF0FF3000F00CB877
:1005F000ADF1080C6DE904CE03F012FDDDF804E066
:10060000DDE9022304B07047704700BF000000001E
:1006100001F0FF01102A2BDB10F0070F08D010F8B3
:10062000013B013A8B422DD010F0070F42B3F6D1B7
:10063000F0B441EA012141EA014122F007047FF0D0
:1006400000070023F0E80256083C85EA010586EA27
:10065000010685FA47F5A3FA87F586FA47F6A5FA63
:1006600087F68EB9EED1F0BC01F0FF0102F007026F
:1006700032B110F8013B013A83EA010313B1F8D11A
:100680000020704701387047002D06BF35460338FB
:10069000073815F0010F07D1013015F4807F02BF34
:1006A000013015F4C03F0130F0BC0138704700BF85
:1006B000000000000000000000000000000000003A
:1006C00030B490F800F020F007016FF0000C10F04B
:1006D000070491F820F040F048804FF000046FF0DC
:1006E0000700D1E9002391F840F000F1080082FAF8
:1006F0004CF2A4FA8CF283FA4CF3A2FA8CF34BBBC3
:10070000D1E9022382FA4CF200F10800A4FA8CF23B
:1007100083FA4CF3A2FA8CF3E3B9D1E9042382FA09
:100720004CF200F10800A4FA8CF283FA4CF3A2FA1E
:100730008CF37BB9D1E9062301F1200182FA4CF256
:1007400000F10800A4FA8CF283FA4CF3A2FA8CF3BD
:10075000002BC6D0002A04BF04301A4612BAB2FADF
:1007600082F200EBD20030BC7047D1E9002304F0E4
:100770000305C4F100004FEAC50514F0040F91F819
:1007800040F00CFA05F562EA05021CBF63EA0503B6
:1007900062464FF00004AAE7844641EA000313F0E2
:1007A00003036DD1403A41D351F8043B40F8043B78
:1007B00051F8043B40F8043B51F8043B40F8043B3B
:1007C00051F8043B40F8043B51F8043B40F8043B2B
:1007D00051F8043B40F8043B51F8043B40F8043B1B
:1007E00051F8043B40F8043B51F8043B40F8043B0B
:1007F00051F8043B40F8043B51F8043B40F8043BFB
:1008000051F8043B40F8043B51F8043B40F8043BEA
:1008100051F8043B40F8043B51F8043B40F8043BDA
:1008200051F8043B40F8043B403ABDD2303211D37A
:1008300051F8043B40F8043B51F8043B40F8043BBA
:1008400051F8043B40F8043B51F8043B40F8043BAA
:10085000103AEDD20C3205D351F8043B40F8043B7A
:10086000043AF9D2043208D0D2071CBF11F8013B78
:1008700000F8013B01D30B8803806046704700BF3E
:10088000082A13D38B078DD010F003038AD0C3F14D
:100890000403D21ADB071CBF11F8013B00F8013B2F
:1008A00080D331F8023B20F8023B7BE7043AD9D3EE
:1008B000013A11F8013B00F8013BF9D20B780370C3
:1008C0004B7843708B7883706046704770B54FF0FB
:1008D000FF0C4CF4E06C1CEA11541DBF1CEA1355CC
:1008E00094EA0C0F95EA0C0F00F0DEF82C4481EA34
:1008F000030621EA4C5123EA4C5350EA013518BF54
:1009000052EA033541F4801143F4801338D0A0FB40
:1009100002CE4FF00005E1FB02E506F00042E0FBED
:1009200003E54FF00006E1FB03569CF0000F18BFF3
:100930004EF0010EA4F1FF04B6F5007F64F540749B
:1009400004D25FEA4E0E6D4146EB060642EAC6212E
:1009500041EA55514FEAC52040EA5E504FEACE2E9B
:10096000B4F1FD0C88BFBCF5E06F1ED8BEF1004F9E
:1009700008BF5FEA500E50F1000041EB045170BD1A
:1009800006F0004646EA010140EA020081EA03015E
:10099000B4EB5C04C2BFD4EB0C0541EA045170BD5A
:1009A00041F480114FF0000E013C00F3AB8014F1D4
:1009B000360FDEBF002001F0004170BDC4F100041D
:1009C000203C35DA0C341BDC04F11404C4F120059E
:1009D00000FA05F320FA04F001FA05F240EA0200F9
:1009E00001F0004221F0004110EBD37021FA04F62F
:1009F00042EB06015EEA430E08BF20EAD37070BDE9
:100A0000C4F10C04C4F1200500FA04F320FA05F047
:100A100001FA04F240EA020001F0004110EBD37049
:100A200041F100015EEA430E08BF20EAD37070BDB9
:100A3000C4F1200500FA05F24EEA020E20FA04F392
:100A400001FA05F243EA020321FA04F001F0004141
:100A500021FA04F220EA020000EBD3705EEA430EB2
:100A600008BF20EAD37070BD94F0000F0FD101F0E1
:100A70000046400041EB010111F4801F08BF013C1A
:100A8000F7D041EA060195F0000F18BF704703F058
:100A90000046520043EB030313F4801F08BF013DDF
:100AA000F7D043EA0603704794EA0C0F0CEA13559B
:100AB00018BF95EA0C0F0CD050EA410618BF52EA55
:100AC0004306D1D181EA030101F000414FF000005B
:100AD00070BD50EA410606BF1046194652EA430669
:100AE00019D094EA0C0F02D150EA013613D195EADD
:100AF0000C0F05D152EA03361CBF104619460AD125
:100B000081EA030101F0004141F0FE4141F470012E
:100B10004FF0000070BD41F0FE4141F4780170BD1E
:100B200070B54FF0FF0C4CF4E06C1CEA11541DBF83
:100B30001CEA135594EA0C0F95EA0C0F00F0A7F885
:100B4000A4EB050481EA030E52EA03354FEA0131B2
:100B500000F088804FEA03334FF0805545EA1313C5
:100B600043EA12634FEA022245EA111545EA10658D
:100B70004FEA00260EF000419D4208BF964244F124
:100B8000FD0404F5407402D25B084FEA3202B61A43
:100B900065EB03055B084FEA32024FF480104FF417
:100BA000002CB6EB020E75EB030E22BFB61A75468B
:100BB00040EA0C005B084FEA3202B6EB020E75EB1E
:100BC000030E22BFB61A754640EA5C005B084FEA86
:100BD0003202B6EB020E75EB030E22BFB61A754653
:100BE00040EA9C005B084FEA3202B6EB020E75EB5E
:100BF000030E22BFB61A754640EADC0055EA060E1F
:100C000018D04FEA051545EA16754FEA06164FEA61
:100C1000C30343EA52734FEAC2025FEA1C1CC0D10D
:100C200011F4801F0BD141EA00014FF000004FF09A
:100C3000004CB6E711F4801F04BF01430020B4F15B
:100C4000FD0C88BFBCF5E06F3FF6AFAEB5EB030C13
:100C500004BFB6EB020C5FEA500C50F1000041EB10
:100C6000045170BD0EF0004E4EEA113114EB5C04DD
:100C7000C2BFD4EB0C0541EA045170BD41F48011B0
:100C80004FF0000E013C90E645EA060E8DE60CEAB8
:100C9000135594EA0C0F08BF95EA0C0F3FF43BAFD5
:100CA00094EA0C0F0AD150EA01347FF434AF95EA8C
:100CB0000C0F7FF425AF104619462CE795EA0C0F70
:100CC00006D152EA03353FF4FDAE1046194622E73D
:100CD00050EA410618BF52EA43067FF4C5AE50EA17
:100CE00041047FF40DAF52EA43057FF4EBAE12E707
:100CF0004FF0FF3C06E000BF4FF0010C02E000BFE8
:100D00004FF0010C4DF804CD4FEA410C7FEA6C5CCA
:100D10004FEA430C18BF7FEA6C5C1BD001B050EA6D
:100D2000410C0CBF52EA430C91EA030F02BF90EA58
:100D3000020F0020704710F1000F91EA030F58BF17
:100D4000994208BF90422CBFD8176FEAE37040F079
:100D5000010070474FEA410C7FEA6C5C02D150EA17
:100D6000013C07D14FEA430C7FEA6C5CD6D152EAD2
:100D7000033CD3D05DF8040B704700BF8446104697
:100D800062468C461946634600E000BF01B5FFF796
:100D9000B7FF002848BF10F1000F01BD4DF808ED66
:100DA000FFF7F4FF0CBF012000205DF808FB00BF37
:100DB0004DF808EDFFF7EAFF34BF012000205DF891
:100DC00008FB00BF4DF808EDFFF7E0FF94BF0120DE
:100DD00000205DF808FB00BF4DF808EDFFF7CEFFDF
:100DE00094BF012000205DF808FB00BF4DF808ED1E
:100DF000FFF7C4FF34BF012000205DF808FB00BFEF
:100E00004FEA410C7FEA6C5C02D150EA013C0AD106
:100E10004FEA430C7FEA6C5C02D152EA033C02D1F8
:100E20004FF0000070474FF0010070474FEA410259
:100E300012F5001215D211D56FF47873B3EB62522C
:100E400012D94FEAC12343F0004343EA505311F053
:100E5000004F23FA02F018BF404270474FF00000E5
:100E6000704750EA013005D111F0004008BF6FF023
:100E7000004070474FF00000704700BF0348044B2C
:100E8000834202D0034B03B1184770471407002078
:100E900014070020000000000548064B1B1AD90F5C
:100EA00001EBA301491002D0034B03B1184770476F
:100EB00014070020140700200000000010B5064CA5
:100EC000237843B9FFF7DAFF044B13B10448AFF3BB
:100ED00000800123237010BD1407002000000000D3
:100EE000B0A2000808B5054B1BB105490548AFF392
:100EF0000080BDE80840FFF7CFBF00BF0000000042
:100F000018070020B0A2000808B5042202490348CF
:100F100000F0DCFE08BD00BF40070020D00B002021
:100F200030B583B00446124B33F810502846FFF713
:100F300099FA0DA3D3E90023FFF7C8FC00220D4B5B
:100F4000FFF7C4FCFFF7F8FA0B4B43F82400FFF758
:100F50009BFACDE900012B4622460849084800F0DB
:100F6000CFF803B030BD00BF6666666666660A40AD
:100F7000400700200000303F30070020C8A20008D2
:100F80000010014010B501224FF400410F4801F05C
:100F900035FC052000F0C0FD0D4C0021204602F07C
:100FA00089FA0421204602F085FA0821204602F041
:100FB00081FA0021204602F045FC0421204602F07F
:100FC00041FC0821204602F03DFC10BD0004024017
:100FD000C40C0020002307E003F13001044A002084
:100FE00042F821000133DBB2172BF5D9704700BF5F
:100FF0004807002008B54823024A0421024802F0AD
:10100000D1FA08BD480700207C0C002008B5FFF786
:10101000E1FFFFF7EFFF08BD10B483B00191022894
:1010200056D8002209E02A2400EB400301EBC30359
:10103000294941F823400132D2B2072A0ED89DF83F
:1010400005302649A1FB03139B081146C2F1070492
:10105000234113F0010FE6D05424E5E7082209E00C
:101060002A2400EB400301EBC3031B4941F8234052
:101070000132D2B20F2A0ED89DF804301749A1FBD5
:1010800003139B081146C2F10F04234113F0010F13
:10109000E6D05424E5E7102209E02A2400EB4003BF
:1010A00001EBC3030C4941F823400132D2B2172AA5
:1010B0000ED89DF806300949A1FB03139B08114681
:1010C000C2F11704234113F0010FE6D05424E5E7E1
:1010D00003B010BC704700BF48070020CDCCCCCC7B
:1010E00030B583B004460D46019205E001992046D3
:1010F000FFF792FF0134E4B2AC42F7D903B030BD40
:101100000EB4F0B582B0044607AD55F8047B0F4E1F
:101110004FF480720021304603F034FA01952A46DC
:101120003946304603F012FA002206E0236813F035
:10113000400FFBD0013292B26160044B995C0029F0
:10114000F4D102B0BDE8F04003B070476808002059
:1011500008B50B4B1B780D2B07D00A2B0BD0094978
:101160000A680948835401320A6001220449074889
:1011700002F043FF08BD064B01221A60F5E700BFED
:10118000680900206C0A0020700A00200C0D002065
:10119000680A002000B585B00023009301930293F4
:1011A00003932848284A02604FF4803242608360EB
:1011B00001220261027680F82030C36223498162F5
:1011C000C3600421C16180F83020436100F052FD0A
:1011D00040BB03230093012301930223029369463A
:1011E000184800F071FE00BB042300930223019312
:1011F0006946144800F068FED0B905230093032324
:10120000019369460F4800F05FFEA0B9104B0093B0
:101210000423019369460B4800F056FE70B905B0EF
:101220005DF804FB00F0DAF8D3E700F0D7F8DBE76D
:1012300000F0D4F8E1E700F0D1F8E7E700F0CEF8ED
:10124000EDE700BFD00B0020002001400100000F9F
:101250001200001030B589B0002303930493059366
:1012600006930793026803F1804303F590339A4293
:1012700001D009B030BD04460025019503F58C333B
:101280005A6C42F480725A645A6C02F48072019271
:10129000019A02951A6B42F001021A631B6B03F06C
:1012A00001030293029B3F2303930323049303A9A7
:1012B000114801F0BBF91148114B0360456085608E
:1012C000C5604FF4806303614FF4006343614FF4E2
:1012D000005383614FF48073C3614FF48033036222
:1012E000456200F0BDFF18B9044BA3639C63C0E7DF
:1012F00000F074F8F8E700BF00000240700B002017
:101300001064024010B582B000240094124B1A6B96
:1013100042F400121A631A6B02F400120092009A4F
:1013200001941A6B42F480021A631B6B03F480036E
:101330000193019B22460921102000F0EFFE1020AE
:1013400000F0FCFE22460821382000F0E7FE38209D
:1013500000F0F4FE02B010BD0038024030B589B094
:101360000024039404940594069407940094194B64
:101370001A6B42F080021A631A6B02F0800200922C
:10138000009A01941A6B42F001021A631A6B02F080
:1013900001020192019A02941A6B42F002021A634E
:1013A0001B6B03F002030293029B0B4D22464FF48A
:1013B0000041284601F022FA4FF400430393012331
:1013C00004930594069403A9284601F02FF909B067
:1013D00030BD00BF003802400004024072B6FEE794
:1013E00000B595B03022002108A803F0CBF8002307
:1013F0000393049305930693079301931E4A116C7C
:1014000041F080511164126C02F080520192019AF5
:1014100002931A4A116841F440411160126802F4C3
:1014200040420292029A0222089201210B9110215D
:101430000C910E920F930823109364231193129230
:101440000423139308A801F0DFF988B90F2303934D
:1014500002230493002305934FF4805206920793CE
:10146000032103A801F03AFC20B915B05DF804FB94
:10147000FFF7B4FFFFF7B2FF0038024000700040F2
:1014800008B500F01DFBFFF7ABFFFFF767FFFFF7A5
:1014900039FF00F06BFA00F08DF900F011FAFFF758
:1014A00079FEFFF76FFDFFF72FFD174A92F8213005
:1014B00092F8221043EA012392F8232043EA0242E1
:1014C00001210020FFF70CFEFFF7A0FD642000F0D3
:1014D00023FB0E4B1B684FF416725A634FF42F72A6
:1014E0009A634FF49672DA630020FFF719FD01202A
:1014F000FFF716FD0220FFF713FD0320FFF710FD95
:10150000C82000F009FBEFE700000020C40C002019
:1015100082B0002100910B4B5A6C42F480425A6415
:101520005A6C02F480420092009A01911A6C42F0C7
:1015300080521A641B6C03F080530193019B02B02C
:10154000704700BF00380240FEE7FEE7FEE7FEE717
:10155000FEE770477047704708B500F0CBFA08BD4A
:1015600008B5024800F074FF08BD00BF1C0C002045
:1015700008B5024802F0E4FB08BD00BF0C0D0020D6
:1015800008B5024800F064FF08BD00BF700B0020E2
:101590000120704708B503F09BF8162303604FF055
:1015A000FF3008BD08B54FF0FF31FFF7F3FFFEE74E
:1015B00070B50C461646002506E0AFF300802146C4
:1015C00001F8010B01350C46B542F6DB304670BD23
:1015D00070B50C461646002504E014F8010BAFF375
:1015E00000800135B542F8DB304670BD4FF0FF306A
:1015F00070474FF400534B60002070470120704744
:101600000020704710B503460C4A0D490D4800688C
:1016100040B10C4800680344521A934206D8094A64
:10162000136010BD0748084C0460F2E703F050F85F
:101630000C2303604FF0FF30F3E700BF00000220EF
:1016400000040000180C00207010002070470000FB
:1016500010B582B00368234A934205D00446224A5B
:1016600093420ED002B010BD002300931F4B5A6C62
:1016700042F001025A645B6C03F001030093009B8B
:10168000F0E70023019302F50D32116C41F00201E5
:101690001164126C02F002020192019A1448154A78
:1016A00002604FF02062426040228260C3604FF4CB
:1016B000806202614FF4006242614FF40052826125
:1016C0004FF48072C2614FF480320262436200F0D4
:1016D000C7FD18B9064BA3629C63C3E7FFF77EFE04
:1016E000F8E700BF0000014000040040003802405D
:1016F0001C0C00208860024070B588B00023039362
:1017000004930593069307930368254A934204D0F4
:10171000244A93422ED008B070BD00240094224B7E
:101720001A6B42F002021A631A6B02F00202009274
:10173000009A01941A6B42F001021A631B6B03F0CA
:1017400001030193019B42F20303039302260496D3
:101750000125079503A9154800F068FF4FF4E063E1
:101760000393049605940694079503A9104800F086
:101770005DFFD0E7002302930B4B1A6B42F002028D
:101780001A631B6B03F002030293029B2023039353
:1017900002230493079303A9044800F047FFBAE724
:1017A00000000140000400400038024000040240F4
:1017B0000000024010B596B00024129413941494C3
:1017C00015941094119409940A940B940C940D940C
:1017D0000E940F942022214601A802F0D3FE364831
:1017E000364B036063234360846040F2E733C36099
:1017F00004614461846101F0CFFC002844D14FF4BE
:101800008053129312A92C4801F0C6FD00283ED146
:10181000294801F0EDFC00283CD1002310931193DE
:1018200010A9254802F082F8002836D160230993D8
:1018300000220A920B920C920D920E920F9209A91D
:101840001D4801F02FFD58BB042209A91A4801F0D8
:1018500029FD40BB082209A9174801F023FD28BB38
:101860000023019302930393049305934FF40052D2
:101870000692089301A9104802F096F8C8B90E48DC
:10188000FFF73AFF16B010BDFFF7A8FDB7E7FFF767
:10189000A5FDBDE7FFF7A2FDBFE7FFF79FFDC5E789
:1018A000FFF79CFDD0E7FFF799FDD3E7FFF796FD23
:1018B000D6E7FFF793FDE2E7C40C002000000140EB
:1018C00000B58FB000230A930B930C930D930893EC
:1018D000099301930293039304930593069307934B
:1018E0002048214A0260436083607D22C260036118
:1018F000836101F051FC30BB4FF480530A930AA975
:10190000184801F049FD08BB164801F071FC00BB06
:1019100000230893099308A9124802F007F8D8B9E0
:1019200060230193002302930393059304220DEB9C
:1019300002010C4801F0B6FC88B90A48FFF7DCFE4A
:101940000FB05DF804FBFFF749FDD5E7FFF746FD53
:10195000DAE7FFF743FDDBE7FFF740FDE0E7FFF7DE
:101960003DFDEAE77C0C00200004004008B50A4871
:101970000A4B03604FF4E133436000238360C3608C
:1019800003610C2242618361C36102F01DF900B959
:1019900008BDFFF723FDFBE70C0D00200010014000
:1019A00010B588B00023039304930593069307931F
:1019B000026803F1804303F588339A4201D008B0EE
:1019C00010BD0024019403F594335A6C42F01002C8
:1019D0005A645A6C02F010020192019A02941A6B36
:1019E00042F002021A631B6B03F002030293029B94
:1019F000C02303930223049303230693072307932F
:101A000003A9064800F012FE22462146252000F0D8
:101A100085FB252000F092FBD1E700BF00040240C7
:101A2000DFF834D0FFF712FE0C480D490D4A0023B1
:101A300002E0D458C4500433C4188C42F9D30A4A83
:101A40000A4C002301E013600432A242FBD302F0EF
:101A500045FEFFF715FD7047000002200000002042
:101A60001407002008A70008140700206C100020AD
:101A7000FEE7000010B504460E4B1A784FF47A7357
:101A8000B3FBF2F30C4A1068B0FBF3F000F05AFB22
:101A900068B90F2C01D901200AE0002221464FF03D
:101AA000FF3000F03BFB054B1C60002000E00120F4
:101AB00010BD00BF3400002030000020380000209E
:101AC00008B50B4B1A6842F400721A601A6842F4A7
:101AD00080621A601A6842F480721A60032000F073
:101AE0000BFB0F20FFF7C6FFFFF712FD002008BD1C
:101AF000003C0240034A1168034B1B780B441360FF
:101B0000704700BF540D002034000020014B1868BE
:101B1000704700BF540D002038B50446FFF7F6FFAC
:101B20000546B4F1FF3F02D0044B1B781C44FFF77D
:101B3000EDFF401BA042FAD338BD00BF34000020A7
:101B40004A4B5A6822F440325A605A6841680A4344
:101B50005A600268536823F48073536002685368C4
:101B6000016943EA012353600268536823F040731C
:101B700053600268536881680B435360026893683E
:101B800023F40063936002689368C1680B43936019
:101B9000826A374B9A4257D00268936823F0706389
:101BA000936002689368816A0B439360026893684C
:101BB00023F04053936002689368C16A0B439360BB
:101BC0000268936823F00203936002689368017EC1
:101BD00043EA4103936090F82030002B3FD0026825
:101BE000536843F4006353600268536823F460430E
:101BF000536001684B68426A013A43EA42334B60E2
:101C00000268D36A23F47003D3620168CB6AC269A5
:101C1000013A43EA0253CB620268936823F40073EB
:101C200093600268936890F8301043EA4123936010
:101C30000268936823F48063936002689368416943
:101C400043EA8123936070470268936823F07063CE
:101C500093600268936823F040539360B0E7026892
:101C6000536823F400635360CAE700BF00230140B8
:101C70000100000F38B310B50446036C43B1236C68
:101C800013F0100F0BD00120002384F83C3010BD5E
:101C9000FFF7E0FA0023636484F83C30EFE7236C3D
:101CA00023F4885323F0020343F002032364204605
:101CB000FFF746FF00206064236C23F0030343F02A
:101CC00001032364E0E701207047000010B582B0F3
:101CD00013460022019290F83C20012A00F09480E3
:101CE0000446012280F83C200268906810F0010F41
:101CF00013D1906840F001009060464A1068464A4F
:101D0000A2FB0020800C00EB4000019002E0019853
:101D10000138019001980028F9D12268906810F4E8
:101D2000807F03D0906820F4807090602268906873
:101D300010F0010F5DD0206C20F4E06020F0010075
:101D400040F480702064526812F4806F05D0226CD9
:101D500022F4405242F480522264226C12F4805FDA
:101D600034D0626C22F006026264002284F83C20C7
:101D7000A26B2A48D063A26B29481064A26B294841
:101D8000D06422686FF0220010602068426842F040
:101D9000806242602068826842F4807282602068BB
:101DA0000A4600F14C01A06B00F0C0FA1E4B5B68C4
:101DB00013F01F0F0DD123689A6812F0405F25D1F0
:101DC0009A6842F080429A6000201BE00022626420
:101DD000CBE72368154A934201D0002012E09A68AD
:101DE00012F0405F14D19A6842F080429A6000205D
:101DF00008E0236C43F010032364636C43F0010399
:101E00006364002002B010BD0220FBE70020F9E768
:101E10000020F7E73000002083DE1B43571E000838
:101E2000351E0008411E000800230140002001402B
:101E30007047704708B5806BFFF7FBFF08BD704720
:101E400008B5806B40230364436C43F00403436490
:101E5000FFF7F5FF08BD08B50346806B026C12F072
:101E6000500F25D1036C43F40073036403689A6830
:101E700012F0405F19D1027EBAB9DA6A12F4700F1B
:101E800003D09A6812F4806F0FD15A6822F02002B2
:101E90005A60036C23F480730364036C13F4805F53
:101EA00003D1036C43F001030364FFF7C1FF08BDD6
:101EB000026C12F0100F04D1826BD26C184690475E
:101EC000F5E7FFF7BCFFF2E730B482B000220192E1
:101ED00090F83C20012A00F0C0800346012280F8DF
:101EE0003C200A68092A40D90468E06892B202EBF3
:101EF00042021E3A4FF0070C0CFA02F220EA0202EC
:101F0000E2601C68E0680A8802EB42021E3A8D68B3
:101F100005FA02F20243E2604A68062A3CD81C68CD
:101F2000606B02EB8202053A4FF01F0C0CFA02F2D2
:101F300020EA020262631C68606B4A6802EB82025C
:101F4000053AB1F800C00CFA02F202436263186865
:101F5000434A904250D01868414A904259D00020DC
:101F600083F83C0002B030BC70470468206992B22C
:101F700002EB42024FF0070C0CFA02F220EA0202D6
:101F800022611C6820690A8802EB42028D6805FA0A
:101F900002F202432261BFE70C2A16D81D68286BA3
:101FA00002EB8202233A1F2404FA02F220EA020220
:101FB0002A631D68286B4A6802EB8202233A0C8868
:101FC00004FA02F202432A63C1E71D68E86A02EBE1
:101FD0008202413A1F2404FA02F220EA0202EA6273
:101FE0001D68E86A4A6802EB8202413A0C8804FAEA
:101FF00002F20243EA62AAE70A68122AABD1194A3E
:10200000506820F400005060506840F48000506038
:10201000A1E70A681448824201D0112A9FD1114ACF
:10202000506820F480005060506840F40000506018
:1020300009680D4A914292D10C4A12680C49A1FBE1
:102040000212920C02EB820252000192019A002AC3
:1020500085D0019A013A0192F8E7022082E700BF99
:102060000020014000230140120000103000002039
:1020700083DE1B43002807DB00F01F024009012319
:102080009340024A42F82030704700BF00E100E070
:10209000002808DB0901C9B200F1604000F5614089
:1020A00080F80013704700F00F000901C9B2014B1E
:1020B0001954704714ED00E000B500F00700C0F1BE
:1020C000070CBCF1040F28BF4FF0040C031D062BB6
:1020D0000FD9C31E4FF0FF3E0EFA0CF021EA0001AB
:1020E00099400EFA03FE22EA0E0241EA02005DF870
:1020F00004FB0023EEE70000074AD36823F4E06303
:102100001B041B0C000200F4E060034343F0BF63B8
:1021100043F40033D360704700ED00E010B504468F
:10212000054BD868C0F30220FFF7C6FF01462046E2
:10213000FFF7AEFF10BD00BF00ED00E008B5FFF7F0
:1021400099FF08BD0138B0F1807F0BD24FF0E0233A
:102150005861054AF02182F8231000209861072277
:102160001A6170470120704700ED00E030B4056847
:102170002C6824F480242C60046863608368402BFE
:1021800005D0036899600368DA6030BC7047036863
:102190009A600368D960F8E710B40368D9B21039BF
:1021A000094AA2FB01421209084CA25CC2655F29E0
:1021B00006D96FF3090304338365806D10BC704743
:1021C0006FF309038365F8E7ABAAAAAAA8A40008DD
:1021D000836A826992B9012B0AD0022B02D00BB11B
:1021E00000207047C36A13F0807F28D10020704719
:1021F000C36AB3F1C07F24D000207047B2F5005FFE
:1022000009D0022B25D9032B25D1C36A13F0807F77
:1022100023D100207047032B03D8DFE803F0140418
:10222000140A00207047C36A13F0807F0DD100208C
:102230007047C36AB3F1C07F09D000207047012006
:10224000704701207047012070470120704701202E
:102250007047012070470020704701207047000040
:1022600070B50446FFF752FC002C5BD005460223F4
:1022700084F83530002384F834302268136823F062
:102280000103136023681A6812F0010F0AD0FFF7E8
:102290003DFC431B052BF5D920236365032084F8FF
:1022A000350070BD1A68204911406268A068024379
:1022B000E06802432069024360690243A069024367
:1022C000E0690243206A02430A43616A04291ED07E
:1022D0001A602668756925F00705636A1D43042B9B
:1022E00007D1A36A1D43E36A1BB12046FFF770FFC5
:1022F00090B975612046FFF74FFFE26D3F23934091
:10230000836000206065012384F83530C9E7E16A05
:10231000206B01430A43DBE740236365012084F817
:102320003500BEE70120BCE73F8010F038B5044619
:10233000856D90F8340001282BD0012084F83400FA
:1023400094F83500C0B2012804D0002384F834305A
:10235000022038BD022084F8350000206065204648
:10236000FFF704FFE26D3F239340AB6022681368E0
:1023700043F016031360236C23B12268136843F003
:10238000080313602268136843F001031360002000
:10239000DFE70220DDE770B50446866DFFF7B6FB88
:1023A00094F83530DBB2022B06D08023636500231E
:1023B00084F83430012070BD05462268136823F08C
:1023C000160313602268536923F080035361236C62
:1023D000E3B12268136823F00803136022681368CE
:1023E00023F00103136023681B6813F0010F11D061
:1023F000FFF78CFB431B052BF5D9202363650320D6
:1024000084F83500002384F83430D4E7A36C002B23
:10241000DFD1E3E7E26D3F239340B360012384F80B
:102420003530002084F83400C5E790F83530DBB251
:10243000022B03D08023436501207047052380F8D9
:1024400035300268136823F00103136000207047E1
:10245000F0B583B0044600230193724B1D68724BA4
:10246000A3FB0535AD0A876D3E68C26D0823934016
:10247000334210D003681A6812F0040F0BD01A68A8
:1024800022F004021A60C26D08239340BB60436DC2
:1024900043F001034365E26D01239340334209D0C9
:1024A0002268526912F0800F04D0BB60636D43F064
:1024B00002036365E26D04239340334209D022682E
:1024C000126812F0020F04D0BB60636D43F0040386
:1024D0006365E26D10239340334224D02268126872
:1024E00012F0080F1FD0BB6023681A6812F4802F07
:1024F0000DD01B6813F4002F04D1236C9BB1204630
:10250000984710E0A36C73B1204698470BE01A6817
:1025100012F4807F03D11A6822F008021A60236C3B
:102520000BB120469847E26D20239340334255D0AB
:102530002268126812F0100F50D0BB6094F835304A
:10254000DBB2052B0ED023681A6812F4802F33D02B
:102550001B6813F4002F2AD1636C002B3ED0204659
:1025600098473BE02268136823F016031360226843
:10257000536923F080035361236CA3B1226813686D
:1025800023F008031360E26D3F239340BB600123F7
:1025900084F83530002384F83430236D002B3FD08D
:1025A000204698473CE0A36C002BE7D1EBE7E36BB8
:1025B000A3B12046984711E01A6812F4807F09D130
:1025C0001A6822F010021A60012384F835300023C3
:1025D00084F83430E36B0BB120469847636DFBB150
:1025E000636D13F0010F17D0052384F8353022688E
:1025F000136823F001031360019B01330193AB4285
:1026000004D823681B6813F0010FF5D1012384F867
:102610003530002384F83430E36C0BB12046984702
:1026200003B0F0BD30000020B5814E1B00230F2BFE
:1026300000F2DA8030B583B068E085684FEA430E77
:10264000032404FA0EF425EA0405CC6804FA0EF417
:102650002C438460446824EA02044A68C2F30012EE
:102660009A40224342605FE0DC08083450F824209E
:1026700003F00705AD004FF00F0E0EFA05FE22EA3B
:102680000E0E0A69AA4042EA0E0240F824205FE0DA
:10269000042200E0002202FA0EF22A430234534DD3
:1026A00045F82420524A94686FEA0C0224EA0C058B
:1026B000D1F804E01EF4801F01D04CEA04054C4C14
:1026C000A560E46802EA0405D1F804E01EF4001FE6
:1026D00001D04CEA0405464CE560646802EA040552
:1026E000D1F804E01EF4003F01D04CEA0405404C50
:1026F0006560246822404D6815F4803F01D04CEAA3
:1027000004023B4C226001330F2B6BD801229A400C
:102710000C6804EA020C32EA0404F4D14C6804F0B8
:102720000304013C012C88D94A6802F00302032A01
:1027300009D0C4685D000322AA4024EA02048A6822
:10274000AA402243C2604A6802F00302022A8BD0E8
:1027500004684FEA430E032202FA0EF224EA02044E
:102760004A6802F0030202FA0EF2224302604A684B
:1027700012F4403FC7D0002201921E4A546C44F428
:1027800080445464526C02F480420192019A9C0885
:10279000A51C164A52F8255003F0030E4FEA8E0E80
:1027A0000F2202FA0EF225EA0205134A90423FF484
:1027B00071AF02F5806290420ED002F580629042C5
:1027C0000CD002F5806290420AD002F580629042FD
:1027D0003FF45EAF07225EE701225CE702225AE780
:1027E000032258E703B030BD704700BF00380140F6
:1027F000003C014000380240000002400AB1816103
:102800007047090481617047002800F0E08170B5CD
:1028100082B00446036813F0010F3BD09F4B9B68C6
:1028200003F00C03042B2CD09C4B9B6803F00C038F
:10283000082B21D06368B3F5803F4FD0B3F5A02FAC
:1028400052D0964B1A6822F480321A601A6822F429
:1028500080221A606368002B50D0FFF757F90546B5
:102860008E4B1B6813F4003F14D1FFF74FF9401B48
:102870006428F5D90320B1E1884B5B6813F4800F1D
:10288000D8D0864B1B6813F4003F03D06368002B3D
:1028900000F09F81236813F0020F54D07F4B9B6898
:1028A00013F00C0F3ED07D4B9B6803F00C03082BFC
:1028B00033D0E368002B68D0794B01221A60FFF710
:1028C00025F90546754B1B6813F0020F54D1FFF72D
:1028D0001DF9401B0228F5D903207FE16F4A1368D8
:1028E00043F480331360B5E76C4B1A6842F48022DE
:1028F0001A601A6842F480321A60ABE7FFF706F9F3
:102900000546664B1B6813F4003FC3D0FFF7FEF883
:10291000401B6428F5D9032060E1604B5B6813F429
:10292000800FC6D15D4B1B6813F0020F03D0E36824
:10293000012B40F05081594A136823F0F8032169B4
:1029400043EAC1031360236813F0080F42D06369A0
:102950006BB3534B0122C3F8802EFFF7D7F805461F
:102960004E4B5B6F13F0020F34D1FFF7CFF8401BD3
:102970000228F5D9032031E1484A136823F0F8030F
:10298000216943EAC1031360DDE7454B00221A6069
:10299000FFF7BCF80546414B1B6813F0020FD2D07D
:1029A000FFF7B4F8401B0228F5D9032016E13C4B91
:1029B0000022C3F8802EFFF7A9F80546374B5B6F5E
:1029C00013F0020F06D0FFF7A1F8401B0228F5D93B
:1029D000032003E1236813F0040F77D02F4B1B6C07
:1029E00013F0805F33D1002301932C4B1A6C42F01B
:1029F00080521A641B6C03F080530193019B0125E4
:102A0000284B1B6813F4807F23D0A368012B34D09C
:102A1000052B38D0214B1A6F22F001021A671A6F6A
:102A200022F004021A67A368002B3DD0FFF76EF86E
:102A300006461A4B1B6F13F0020F46D1FFF766F8DC
:102A4000801B41F288339842F3D90320C6E0002569
:102A5000D6E7144A136843F480731360FFF756F8FF
:102A60000646104B1B6813F4807FCED1FFF74EF85B
:102A7000801B0228F5D90320B0E0084A136F43F009
:102A800001031367CFE7054B1A6F42F004021A6780
:102A90001A6F42F001021A67C5E700BF0038024012
:102AA0000000474200700040FFF730F80646524BE6
:102AB0001B6F13F0020F08D0FFF728F8801B41F2BC
:102AC00088339842F3D9032088E0EDB9A369002B3D
:102AD00000F08380484A926802F00C02082A51D024
:102AE000022B17D0454B00221A66FFF70FF8044659
:102AF000414B1B6813F0007F42D0FFF707F8001B23
:102B00000228F5D9032069E03B4A136C23F0805377
:102B10001364DBE7394B00221A66FEF7F7FF054620
:102B2000354B1B6813F0007F06D0FEF7EFFF401B0C
:102B30000228F5D9032051E0E369226A1343626A4F
:102B400043EA8213A26A5208013A43EA0243E26A64
:102B500043EA0263284A5360284B01221A66FEF7B3
:102B6000D5FF0446244B1B6813F0007F06D1FEF707
:102B7000CDFF001B0228F5D903202FE000202DE017
:102B800000202BE0012B2BD01B4B5B6803F4800152
:102B9000E269914226D103F03F02216A8A4223D1A1
:102BA000616A47F6C0721A40B2EB811F1ED103F46E
:102BB0004031A26A5208013AB1EB024F18D103F03A
:102BC0007063E26AB3EB026F14D1002006E00120CB
:102BD0007047012002E0012000E0002002B070BD3B
:102BE0000120FBE70120F9E70120F7E70120F5E7E5
:102BF0000120F3E70120F1E70038024000004742DE
:102C000008B5334B9B6803F00C03042B5BD0082BF7
:102C10005BD12F4B5A6802F03F025B6813F4800FC0
:102C20002CD02B4B5868C0F388104FEA401CBCEBEB
:102C3000000C6EEB0E0E4FEA8E1343EA9C634FEAD4
:102C40008C11B1EB0C0163EB0E03DB0043EA517313
:102C5000C90011EB000C43F10003590200234FEAB5
:102C60004C2041EADC51FDF7B7FC194B5B68C3F31C
:102C7000014301335B00B0FBF3F008BD144B58680F
:102C8000C0F388104FEA401CBCEB000C6EEB0E0E3C
:102C90004FEA8E1343EA9C634FEA8C11B1EB0C01AF
:102CA00063EB0E03DB0043EA5173C90011EB000C28
:102CB00043F10003990200234FEA8C2041EA9C5122
:102CC000FDF78AFCD1E70348D7E70348D5E700BF03
:102CD0000038024000127A000024F400002800F0BE
:102CE0009B8070B50D4604464F4B1B6803F00703ED
:102CF0008B4208D2CBB24C4A1370136803F007031F
:102D00008B4240F08B80236813F0020F17D013F032
:102D1000040F04D0454A936843F4E053936023685A
:102D200013F0080F04D0414A936843F46043936062
:102D30003E4A936823F0F003A1680B439360236835
:102D400013F0010F32D06368012B21D09A1E012AA3
:102D500025D9364A126812F0020F61D033498A68C9
:102D600022F0030213438B60FEF7D0FE06462F4B82
:102D70009B6803F00C036268B3EB820F16D0FEF77A
:102D8000C5FE801B41F288339842F0D9032042E00F
:102D9000264A126812F4003FE0D101203BE0234AAA
:102DA000126812F0007FD9D1012034E01E4B1B685D
:102DB00003F00703AB4207D9EAB21B4B1A701B683A
:102DC00003F00703AB422DD1236813F0040F06D0A4
:102DD000164A936823F4E053E1680B439360236839
:102DE00013F0080F07D0114A936823F46043216958
:102DF00043EAC1039360FFF703FF0C4B9B68C3F3E7
:102E000003130B4AD35CD8400A4B18600A4B18686E
:102E1000FEF730FE002070BD012070470120FAE768
:102E20000120F8E70120F6E7003C024000380240AC
:102E300098A400083000002038000020014B1868DA
:102E4000704700BF3000002008B5FFF7F7FF044BC4
:102E50009B68C3F38223034AD35CD84008BD00BFFC
:102E60000038024090A4000808B5FFF7E7FF044BC4
:102E70009B68C3F34233034AD35CD84008BD00BF0C
:102E80000038024090A4000830B4026A036A23F0BC
:102E9000010303624568836923F073030C681C43D4
:102EA00022F002028B6813430B4A904206D0456021
:102EB00084614A684263036230BC704723F00803B0
:102EC000CA681A4322F0040325F440754A692A436C
:102ED0008D691543EBE700BF0000014030B4036A81
:102EE000026A22F4807202624468C26922F07302AC
:102EF0000D68154323F400738A6843EA02230D4AE0
:102F0000904206D04460C5614A68C263036230BC27
:102F1000704723F40063CA6843EA022323F4806302
:102F200024F440544A6944EA02148A6944EA0214C7
:102F3000E8E700BF0000014030B4036A026A22F4EF
:102F4000805202624468C26922F4E6420D6842EA95
:102F5000052223F400538D6843EA0533074DA84248
:102F600006D04460C2614A680264036230BC7047A4
:102F700024F480444D6944EA8514F2E700000140DE
:102F800010B4036A046A24F001040462846924F022
:102F9000F00C4CEA021223F00A030B438261036235
:102FA00010BC704710B4036A046A24F01004046271
:102FB000846924F4704C4CEA023223F0A00343EA03
:102FC00001138261036210BC7047836823F07003B1
:102FD0000B4343F00703836070477047704710B599
:102FE000846B636A83420ED0A36A834214D0E36A7F
:102FF00083421AD0236B834220D02046FFF7EEFF96
:103000000023237710BD01232377C369002BF4D15C
:10301000012384F83E30F0E702232377C369002BB5
:10302000EBD1012384F83F30E7E704232377C3691A
:10303000002BE2D1012384F84030DEE70823237718
:10304000C369002BD9D1012384F84130D5E77047FB
:1030500010B5846B636A83420BD0A36A834210D09D
:10306000E36A834210D0236B834204D10823237781
:1030700001E0012323772046FFF7E9FF00232377B0
:1030800010BD02232377F6E704232377F3E7704785
:1030900010B5846B636A83420CD0A36A834213D059
:1030A000E36A834216D0236B834219D0012384F84C
:1030B0003D3003E00123237784F83E302046FFF7BC
:1030C000E6FF0023237710BD02232377012384F832
:1030D0003F30F3E704232377012384F84030EDE702
:1030E00008232377012384F84130E7E70368294A5E
:1030F00090420ED0B0F1804F0BD0A2F57C429042AE
:1031000007D002F58062904203D002F580629042BF
:1031100003D123F070034A6813431E4A90421AD029
:10312000B0F1804F17D0A2F57C42904213D002F547
:10313000806290420FD002F5806290420BD002F57F
:103140009A32904207D002F58062904203D002F595
:103150008062904203D123F44073CA68134323F082
:1031600080034A69134303608B68C3620B68836200
:10317000084B98420AD001234361036913F0010F01
:1031800003D0036923F00103036170470B690363F4
:10319000F1E700BF0000014040B310B5044690F8CD
:1031A0003D30F3B1022384F83D30214651F8040B41
:1031B000FFF79CFF012384F8463084F83E3084F802
:1031C0003F3084F8403084F8413084F8423084F84D
:1031D000433084F8443084F8453084F83D30002092
:1031E00010BD80F83C30FEF733FADBE70120704772
:1031F00040B310B5044690F83D30F3B1022384F893
:103200003D30214651F8040BFFF770FF012384F88D
:10321000463084F83E3084F83F3084F8403084F8FB
:10322000413084F8423084F8433084F8443084F8E4
:10323000453084F83D30002010BD80F83C30FFF769
:10324000CCFEDBE70120704730B4036A026A22F04B
:10325000100202624468826922F4E6420D6842EA82
:10326000052223F020038D6843EA05130C4DA84284
:1032700006D0446082614A688263036230BC704752
:1032800023F08003CD6843EA051323F0400324F4C0
:1032900040644D6944EA85048D6944EA8504E8E7A1
:1032A0000000014038B590F83C30012B66D0044650
:1032B0000D46012380F83C300C2A5AD8DFE802F092
:1032C000075959591B5959593059595944000068DF
:1032D000FFF7DAFD2268936943F0080393612268DF
:1032E000936923F0040393612268936929690B436E
:1032F000936100203EE00068FFF7A6FF2268936913
:1033000043F4006393612268936923F480639361BB
:1033100022689369296943EA01239361002029E027
:103320000068FFF7DBFD2268D36943F00803D3612F
:103330002268D36923F00403D3612268D369296921
:103340000B43D361002015E00068FFF7F5FD22680C
:10335000D36943F40063D3612268D36923F48063A3
:10336000D3612268D369296943EA0123D36100202C
:1033700000E00120002384F83C3038BD0220FCE747
:1033800010B4846824F47F4C42EA03220A4342EAE0
:103390000C02826010BC704790F83C30012B78D052
:1033A00010B50446012380F83C30022380F83D30FC
:1033B0000268936823F47F4323F0770393600B68DC
:1033C000602B4CD023D8402B54D011D8202B03D0C5
:1033D0000AD80BB1102B05D119462068FFF7F5FD6F
:1033E000002028E0012026E0302BF5D0012022E04B
:1033F000502B0AD1CA6849680068FFF7C1FD502107
:103400002068FFF7E2FD002015E0012013E0B3F58E
:10341000805F3AD0B3F5005F14D0702B37D1CB6802
:103420004A6889680068FFF7ABFF2268936843F039
:10343000770393600020012384F83D30002384F853
:103440003C3010BDCB684A6889680068FFF798FF78
:103450002268936843F4804393600020EBE7CA68D6
:1034600049680068FFF79EFD60212068FFF7ADFD09
:103470000020E0E7CA6849680068FFF781FD402145
:103480002068FFF7A2FD0020D5E70020D3E7012048
:10349000D1E70220704701F01F014FF0010C0CFA38
:1034A00001FC036A23EA0C030362036A8A401343A4
:1034B0000362704710B504460846002932D194F8DB
:1034C0003E30DBB2013B18BF0123002B63D1002843
:1034D00041D1022384F83E30012201462068FFF7E3
:1034E000DAFF23682E4A934245D023682C4A934240
:1034F00046D0B3F1804F43D0A2F57C4293423FD0F7
:1035000002F5806293423BD002F58062934237D04D
:1035100002F59A32934233D01A6842F001021A60DF
:10352000002037E0042908D008290DD094F8413054
:10353000DBB2013B18BF0123C7E794F83F30DBB291
:10354000013B18BF0123C0E794F84030DBB2013BD8
:1035500018BF0123B9E7042805D0082807D00223A3
:1035600084F84130B8E7022384F83F30B4E70223FF
:1035700084F84030B0E75A6C42F400425A64B4E731
:103580009A6802F00702062A07D01A6842F0010280
:103590001A60002010BD0120FCE70020FAE700BF00
:1035A0000000014070B5044616460D46002964D15E
:1035B00090F83E00C0B2022814BF0020012000286D
:1035C00040F01481002D74D194F83E20D2B2012A2B
:1035D00014BF00220122002A00F00A81002E00F010
:1035E0000981002B00F00881002D7ED1022284F891
:1035F0003E20626A8749D163626A87491164626AC0
:103600008649D164226834323146606AFEF78EFE04
:10361000002840F0F5802268D36843F40073D3603B
:10362000012229462068FFF736FF23687C4A93422F
:1036300000F0CC8023687A4A934200F0CC80B3F14A
:10364000804F00F0C880A2F57C42934200F0C38016
:1036500002F58062934200F0BE8002F580629342E0
:1036600000F0B98002F59A32934200F0B4801A68F3
:1036700042F001021A600020BBE0042909D00829A9
:103680000FD090F84100C0B2022814BF00200120E2
:1036900095E790F83F00C0B2022814BF0020012037
:1036A0008DE790F84000C0B2022814BF002001202E
:1036B00085E7042D09D0082D0FD094F84120D2B20F
:1036C000012A14BF0022012285E794F83F20D2B2DC
:1036D000012A14BF002201227DE794F84020D2B2D3
:1036E000012A14BF0022012275E7042D24D0082DE1
:1036F0003CD0022284F841200C2D7FD801A252F840
:1037000025F000BFF3350008FD370008FD3700083D
:10371000FD3700083F370008FD370008FD37000877
:10372000FD37000873370008FD370008FD37000833
:10373000FD370008A1370008022284F83F20A26A62
:103740003449D163A26A34491164A26A3349D1640D
:10375000226838323146A06AFEF7E8FD002851D1D0
:103760002268D36843F48063D36059E7022284F867
:103770004020E26A2749D163E26A27491164E26A7C
:103780002649D16422683C323146E06AFEF7CEFD1C
:10379000002839D12268D36843F40063D3603FE73F
:1037A000226B1C49D163226B1B491164226B1B499C
:1037B000D164226840323146206BFEF7B7FD28BB4A
:1037C0002268D36843F48053D36029E75A6C42F4EB
:1037D00000425A642EE79A6802F00702062A17D0C0
:1037E0001A6842F001021A60002002E0022000E0A4
:1037F000012070BD0120FCE70120FAE70120F8E775
:103800000120F6E70120F4E70120F2E70120F0E7CC
:103810000020EEE7DF2F000851300008913000084B
:103820000000014001F00F014FF0040C0CFA01FC04
:10383000036A23EA0C030362036A8A4013430362A8
:103840007047000010B504460846002933D194F8AB
:103850004230DBB2013B18BF0123002B5FD10028AF
:1038600042D1022384F84230042201462068FFF747
:10387000D9FF2268536C43F40043536423682A4AF7
:10388000934241D0B3F1804F3ED0A2F57C429342A7
:103890003AD002F58062934236D002F580629342BC
:1038A00032D002F59A3293422ED01A6842F00102C9
:1038B0001A60002032E0042908D008290DD094F8BD
:1038C0004530DBB2013B18BF0123C6E794F8433013
:1038D000DBB2013B18BF0123BFE794F84430DBB2F1
:1038E000013B18BF0123B8E7042805D0082807D0FA
:1038F000022384F84530B7E7022384F84330B3E766
:10390000022384F84430AFE79A6802F00702062ADF
:1039100007D01A6842F001021A60002010BD012091
:10392000FCE70020FAE700BF0000014090F83C20CF
:10393000012A34D010B40346012280F83C20022230
:1039400080F83D2002685068946820F0700C086888
:1039500040EA0C0050601A681248824212D0B2F15C
:10396000804F0FD0A0F57C4082420BD000F58060E4
:10397000824207D000F58060824203D000F59A3081
:10398000824204D124F080044968214391600122DD
:1039900083F83D20002083F83C0010BC70470220D3
:1039A000704700BF00000140024690F83C30012BF8
:1039B00021D0012380F83C30CB6823F44073886821
:1039C000034323F480634868034323F400630868D7
:1039D000034323F480530869034323F400534869E5
:1039E000034323F48043C9690B4311684B640020EF
:1039F00082F83C00704702207047026802F10C0315
:103A000053E8003F23F490730C3242E80031002960
:103A1000F3D1026802F1140353E8003F23F00103DD
:103A2000143242E800310029F3D1036B012B05D099
:103A3000202380F84230002303637047026802F1BC
:103A40000C0353E8003F23F010030C3242E800312E
:103A50000029F3D1ECE790F84130DBB2212B01D003
:103A6000022070478368B3F5805F17D0036A5A1C41
:103A700002621A7803685A60C38C9BB2013B9BB206
:103A8000C3844BB90268D36823F08003D360026813
:103A9000D36843F04003D360002070470369002BD4
:103AA000E4D1036A1B880268C3F308035360036A06
:103AB00002330362E0E7000010B5044602681369B0
:103AC00023F44053C1680B431361836802691A43AE
:103AD00043691A43C3691A430168CB6823F4164348
:103AE00023F00C031343CB600268536923F4407343
:103AF00081690B4353610368314A934206D002F552
:103B00008062934202D0FFF79FF901E0FFF7ACF922
:103B1000E369B3F5004F29D00021031849411B1870
:103B200041F10001C90041EA5371DB0018186368D4
:103B30004FEA83024FEA937341F10001FCF74CFD19
:103B4000204AA2FB00314909642303FB11031B0136
:103B50003233A2FB03235B0903F0F00202EB0112F4
:103B600003F00F03216813448B6010BD002302187B
:103B700043EB0301121841F10001C90041EA5271FF
:103B8000D200101841F10001626892185B41FCF705
:103B900023FD0C4AA2FB00314909642303FB1103F6
:103BA000DB003233A2FB03235B095A0002F4F872F4
:103BB00002EB011203F00703216813448B60D4E782
:103BC000001001401F85EB5160B310B5044690F81A
:103BD000413013B3242384F841302268D36823F49E
:103BE0000053D3602046FFF767FF2268136923F470
:103BF000904313612268536923F02A0353612268BA
:103C0000D36843F40053D36000206064202384F819
:103C1000413084F84230606310BD80F84030FDF7D9
:103C2000BFFED7E701207047704708B50168CA6832
:103C300022F04002CA60202280F84120FFF7F4FF02
:103C4000002008BD704708B5806B0023C385C3847E
:103C5000FFF7F8FF08BD704790F84230DBB2222B27
:103C600069D18368B3F5805F4FD0826AB3F5805F16
:103C700004D0002B56D10369002B53D103685B6835
:103C80001370836A01338362C38D9BB2013B9BB285
:103C9000C385002B51D100B583B00268D36823F0EF
:103CA0002003D3600268D36823F48073D360026872
:103CB000536923F001035361202380F8423000232D
:103CC0004363036B012B33D100230363026802F1CA
:103CD0000C0353E8003F23F010030C3242E800319C
:103CE0000029F3D103681A6812F0100F06D00022E1
:103CF00001921A6801925B680193019B818DFFF725
:103D0000AAFF002003B05DF804FB0269002AACD1D1
:103D1000826A03685B68C3F308031380836A023313
:103D20008362B1E703685B6803F07F031370A8E761
:103D3000FDF70EFAE5E7022070470020704700000B
:103D400010B582B0044602681368D068516913F058
:103D50000F0F09D113F0200F0CD010F0200F09D055
:103D60002046FFF779FF16E011F0010115D110F49C
:103D7000907F12D1216B012979D013F0800F03D0ED
:103D800010F0800F40F0148113F0400F03D010F0BA
:103D9000400F40F0118102B010BD13F0010F06D0AA
:103DA00010F4807F03D0626C42F00102626413F071
:103DB000040F04D019B1626C42F00202626413F085
:103DC000020F04D019B1626C42F00402626413F075
:103DD000080F07D010F0200F00D119B1626C42F02B
:103DE00008026264626C002AD5D013F0200F02D062
:103DF00010F0200F29D123685B6903F04003626C47
:103E000012F0080F00D163B32046FFF7F6FD2368D8
:103E10005B6913F0400F20D0226802F1140353E8CD
:103E2000003F23F04003143242E800310029F3D16F
:103E3000E36B73B1624A1A65E06BFEF7F6FA00288D
:103E4000A9D0E06B036D9847A5E72046FFF704FF74
:103E5000D1E72046FFF7F6FE9DE72046FFF7F2FE8A
:103E600099E72046FFF7EEFE0023636493E713F023
:103E7000100F82D010F0100F3FF47FAF002301939A
:103E80001368019353680193019B536913F0400F2A
:103E900052D0E26B13685B689BB2002B3FF47BAFA0
:103EA000A18D99427FF677AFE385D369B3F5807F23
:103EB00037D0226802F10C0353E8003F23F48073EB
:103EC0000C3242E800310029F3D1226802F11403D8
:103ED00053E8003F23F00103143242E80031002987
:103EE000F3D1226802F1140353E8003F23F04003AA
:103EF000143242E800310029F3D1202384F8423003
:103F000000232363226802F10C0353E8003F23F0EF
:103F100010030C3242E800310029F3D1E06BFEF7C8
:103F20003AFA02236363A18DE38D9BB2C91A89B269
:103F30002046FFF790FE2EE7A18DE38D9BB2C91AB4
:103F400089B2E38D9BB2002B3FF425AF00293FF4EB
:103F500022AF226802F10C0353E8003F23F4907370
:103F60000C3242E800300028F3D1226802F1140339
:103F700053E8003F23F00103143242E800300028E8
:103F8000F3D1202384F8423000232363226802F116
:103F90000C0353E8003F23F010030C3242E80030DA
:103FA0000028F3D1022363632046FFF754FEF2E6B4
:103FB0002046FFF750FDEEE62046FFF736FEEAE624
:103FC000473C000881628285C28500234364222326
:103FD00080F84230036923B10268D36843F48073E8
:103FE000D3600268536943F0010353610268D368E8
:103FF00043F02003D3600020704708B590F84230AA
:10400000DBB2202B08D149B10AB9012008BD002339
:104010000363FFF7D7FFF9E70220F7E70120F5E791
:104020002DE9F047089D0E4604460F46002B4AD165
:1040300094468C45B2FA82F260D942B1C2F12003B3
:10404000974020FA03F30CFA02FC1F4394404FEA16
:104050001C4E1FFA8CF6B7FBFEF1230C0EFB1177FA
:1040600043EA074301FB06F098420AD91CEB03031D
:1040700001F1FF3780F01581984240F21281023938
:1040800063441B1AA4B2B3FBFEF00EFB103344EAE8
:10409000034400FB06F6A6420AD91CEB040400F117
:1040A000FF3380F00081A64240F2FD806444023874
:1040B00040EA0140A41B00211DB1D4400023C5E902
:1040C0000043BDE8F0878B4205D90DB1C5E9000179
:1040D00000210846F5E7B3FA83F1002946D1B3423F
:1040E00002D3824200F2F580841A66EB03020120BB
:1040F0001746002DE5D0C5E90047E2E7002A40F069
:104100009380A1EB0C034FEA1C471FFA8CFE0121A0
:10411000B3FBF7F607FB1630230C43EA00430EFB14
:1041200006F0984208D91CEB030306F1FF3802D2CF
:10413000984200F2D08046461B1AA4B2B3FBF7F0B7
:1041400007FB103344EA03440EFB00FEA64508D9E2
:104150001CEB040400F1FF3302D2A64500F2B68046
:104160001846A4EB0E0440EA0640A5E7C1F120077B
:104170008B4022FA07FC4CEA030C06FA01FE20FAF7
:1041800007F426FA07F344EA0E0400FA01F84FEAAE
:104190001C404FEA1449B3FBF0FE1FFA8CF600FBFB
:1041A0001E3349EA03430EFB06F9994502FA01F270
:1041B0000BD91CEB03030EF1FF3A80F08580994583
:1041C00040F28280AEF1020E6344A3EB0909A4B26F
:1041D000B9FBF0F300FB139944EA094403FB06F62C
:1041E000A64208D91CEB040403F1FF3068D2A642B2
:1041F00066D9023B644443EA0E40A41BA0FB02E6DE
:10420000B4427346B14652D34FD05DB1B8EB03020E
:1042100064EB090404FA07F722FA01F31F43CC40C8
:10422000C5E9007400214CE7C2F1200120FA01F336
:104230000CFA02FC26FA01F1964033434FEA1C4780
:104240001FFA8CFEB1FBF7F007FB1016190C41EAC0
:10425000064100FB0EF68E4204FA02F408D91CEB6C
:10426000010100F1FF382DD28E422BD90238614472
:10427000891B9BB2B1FBF7F607FB161143EA01431A
:1042800006FB0EF1994208D91CEB030306F1FF3837
:1042900014D2994212D9023E63445B1A46EA0041A5
:1042A00036E73946EDE6184602E7F045ADD2BEEBFB
:1042B000020366EB0C060138B146A6E74646ECE77A
:1042C000034698E74046D3E7D6467EE76444023883
:1042D00047E708460DE7023E63442DE7024A0349DB
:1042E000034800F0C9B800BF3C0000204D6B000837
:1042F000500000200C4B4168994210B5044601D093
:1043000002F024FCA168094B994202D0204602F039
:104310001DFCE168064B994204D02046BDE81040E0
:1043200002F014BC10BD00BF580D0020C00D0020CD
:10433000280E00202DE9F843314A324C3249DFF88B
:10434000CC90DFF8CC80334F116000250423294640
:10435000082204F15C00C4E903352F4EA560C4E9CE
:104360000055C4E90555656600F00CF904F15800E4
:10437000C4E90749C4E90987E66200F0D7F929468C
:10438000264B6367082204F1C400C4E91A55C4E946
:104390001E552567C4F8CC50C4F8805000F0F2F8E0
:1043A00004F1680304F1C000C4F88430C4E9229821
:1043B000C4E9247600F0BAF9194BC4F8DC30294678
:1043C00004F596700822C4E93455C4E93855C4F898
:1043D000D850C4F83451C4F8E85000F0D3F804F1D0
:1043E000D003C4E93D87C4F8F09004F59470C4F894
:1043F000FC60C4F8EC30BDE8F84300F097B900BFAA
:10440000900E0020580D0020DD420008BD44000839
:10441000E144000821450008454500080900010065
:104420001200020010B504460A4800F083F9636BDD
:1044300023B9094B094A1B68626323B1BDE81040E8
:10444000044800F079B9FFF775FFBDE81040014856
:1044500000F072B9A00E0020900E0020F542000876
:10446000014800F067B900BFA00E0020014800F02D
:1044700063B900BFA00E00202DE9F8430746884627
:1044800016464FF00009D6E90154013D10D4A38926
:10449000012B08D9B4F90E3001332146384602D039
:1044A000C04749EA0009013D6B1C04F16804EED1E4
:1044B0003668002EE7D14846BDE8F88310B50C46B3
:1044C000B1F90E1000F0D8F8002803DB236D034487
:1044D000236510BDA38923F48053A38110BD00BFC1
:1044E0002DE9F0410C46B1F90C101F46CB050546ED
:1044F00016460BD421F48051A1813B46B4F90E102D
:1045000032462846BDE8F04100F0CCB8B4F90E10B0
:104510000223002200F09AF8B4F90C10EAE700BF79
:1045200010B50C46B1F90E1000F090F8B4F90C304B
:10453000421C0EBF23F4805343F480532065A381B3
:1045400010BD00BFB1F90E1000F06EB870B59AB092
:1045500013460A4E0A466FF0004102910591084940
:104560000391044600253068199569460094049427
:1045700000F00AFD009B1D701AB070BD48000020BD
:104580000802FFFF830730B547D0541E002A3ED0F3
:10459000CAB2034601E0013C39D303F8012B9D0761
:1045A000F9D1032C2CD9CDB205EB05250F2C05EB49
:1045B000054535D9A4F1100222F00F0C03F1100EBD
:1045C000E6444FEA121C1A46C2E90055C2E90255F8
:1045D00010327245F8D10CF1010214F00C0F03EB0C
:1045E000021204F00F0C13D0ACF1040323F0030308
:1045F0000433134442F8045B9342FBD10CF00304F0
:104600002CB1C9B21C4403F8011BA342FBD130BD3D
:1046100064461346002CF4D1F9E703461446C0E77C
:104620001A46A446E0E700BF38B5074D002204460D
:1046300008462A60FCF7DAFF431C00D038BD2B681F
:10464000002BFBD0236038BD940E002038B50C46FB
:10465000084D8446114620461A4600232B606446C6
:10466000FCF7CEFF431C00D038BD2B68002BFBD0DD
:10467000236038BD940E002038B50C46084D8446A2
:10468000114620461A4600232B606446FCF790FF33
:10469000431C00D038BD2B68002BFBD0236038BDF5
:1046A000940E002038B50C46084D8446114620462D
:1046B0001A4600232B606446FCF78AFF431C00D097
:1046C00038BD2B68002BFBD0236038BD940E002032
:1046D000014B1868704700BF4800002070B50F4BB1
:1046E0000F4DAB42A3EB050607D0B610002455F8DA
:1046F000043B01349847A642F9D805F0D9FD094D8D
:10470000094B5E1BAB424FEAA60606D0002455F8C3
:10471000043B01349847A642F9D870BDFCA60008B6
:10472000FCA60008FCA6000804A70008704700BF0C
:10473000704700BF704700BF704700BF024B13B106
:10474000024800F005B8704700000000296E00081C
:10475000002301461A46184602F0BEBB2DE9F84375
:1047600006460820894602F073FBDFF89C80054668
:10477000304600F0FDFBD8F808305F6827F00307EB
:10478000A7F11104A4EB09042C44B4FBF5F4013C9B
:1047900005FB04F4A54208DC0021304602F032FBA0
:1047A000D8F808303B44984205D0304600F0E6FB8C
:1047B0000020BDE8F8836142304602F023FB01305F
:1047C0000FD0124AD8F808303F1B47F001075F604E
:1047D000136830461B1B136000F0D0FB0120BDE8BE
:1047E000F8830021304602F00DFBD8F80820831A28
:1047F0000F2BDADD43F001035360054B03491B68BF
:10480000C01A0860D1E700BFA0010020A80E002058
:104810009401002000297CD0F8B50C46064600F033
:10482000A7FB54F8043C764FA4F1080523F00101DE
:104830006818D7F808C04268844522F0030200F0E7
:104840008380DB07426000EB020C33D454F8084C41
:10485000DCF804302D1B2144AC6807F1080C6445DA
:1048600003F0010364D0D5F80CE0C4F80CE0CEF8F6
:104870000840002B00F0818041F001036B60016073
:10488000B1F5007F22D27868CB08012249090133B3
:104890008A40024357F833107A6007EBC302083AA4
:1048A000C5E9021247F83350CD603046BDE8F84004
:1048B00000F064BBDCF80430DB072BD541F00103CA
:1048C000B1F5007F44F8043C0160DCD3B1F5206F02
:1048D0004FEA512353D28B0903F1390003F1380217
:1048E000C300F818FB580838984203D161E09B6870
:1048F000984204D05A6822F003028A42F7D8D86856
:10490000C5E902308560DD603046BDE8F84000F062
:1049100035BB7047114407F1080C836863453FD0ED
:10492000C268DA60936041F001036B606950A7E7E9
:10493000002B5FD10A44D0E90213CB60996042F0AA
:1049400001036B60AA50B0E70A44D90707D454F8B2
:10495000083CED1A1A44D5E90213CB60996042F085
:1049600001036B60274BBD601B6893429DD8264BAB
:1049700030461968FFF7F2FE97E71144CDE7142B94
:1049800008D9542B1DD80B0B03F16F0003F16E02F5
:10499000C300A6E703F15C0003F15B02C300A0E7DC
:1049A00041F00103C7E90455C5E902CC6B606950C9
:1049B0007BE779689210012404FA02F20A437A60D4
:1049C0009EE7B3F5AA7F06D8CB0B03F1780003F17D
:1049D0007702C30085E740F25452934206D88B0C0D
:1049E00003F17D0003F17C02C3007AE74FF47E738C
:1049F0007E2276E741F001036B60016055E700BF5E
:104A0000A001002098010020D80E00202DE9F04FD1
:104A100001F10B05162D83B0064623D8102900F2AC
:104A2000AF8000F0A5FA102518230220B74F3B44B1
:104A3000A3F108025C68944200F01F816368E26899
:104A4000A16823F00303CA602344304691605A688A
:104A500042F001025A6000F091FA0834204603B097
:104A6000BDE8F08F35F0070500F18A80A94200F219
:104A7000878000F07DFAB5F5FC7FC0F06E816B0A8F
:104A800000F08280042B00F21E81AB0903F1390093
:104A900003F1380EC3009D4F3B44A3F1080C5C6842
:104AA000A44507D10DE0002AE16880F2E0808C4542
:104AB00007D00C46636823F003035A1B0F2AF2DD6C
:104AC0007046DFF84C823C69444500F0BD80636865
:104AD00023F0030CACEB05030F2B00F34281002BFA
:104AE000C7E9048880F22D81BCF5007FD7F804E087
:104AF00080F0C9804FEADC0101314FEA5C1C0123E0
:104B000003FA0CF357F83120A2604EEA030E07EBCC
:104B1000C103083BE360C7F804E047F83140D460C4
:104B200083104FF0010C0CFA03FCF44532D81CEA58
:104B30000E0F08D120F003004FEA4C0C1CEA0E0FB8
:104B400000F10400F8D007EBC00AD6468146DEF833
:104B50000C300BE0596821F003014A1B0F2A1C4658
:104B6000DB6800F3BC80002A80F2DE809E45F1D134
:104B700009F1010919F0030F0EF1080EE7D119E14F
:104B80000C233360002469E74FF4007340204FF09A
:104B90003F0E80E7BC68636823F00309A94503D38F
:104BA000A9EB05030F2B52DC5A4B1B68082003F1BD
:104BB000100804EB0903009302F04AF9564A1368FF
:104BC0000133A844834605D008F1FF3880444342AE
:104BD00003EA08084146304602F014F9B0F1FF3FFD
:104BE0004D4A824600F0D88004EB0903834200F26C
:104BF000D1804A4B186840440BF1FF31186084465D
:104C000040F0FB801AEA010F40F0F780D7F808A0C7
:104C1000C84448F00102CAF80420414B1968814297
:104C200038BF18603F4B1968814238BF186054463E
:104C300022F00308A845A8EB050301D30F2B06DCDF
:104C4000304600F09BF99DE7D7F804E068E7621969
:104C500043F0010345F0010565603046BA605360DA
:104C600000F08CF90834204603B0BDE8F08FA2684C
:104C70002344D16030468A60E9E6DC68A3427FF4D1
:104C8000DDAE02301DE7BCF5206F4FEA5C227AD31F
:104C9000142A00F2128102F15C03DB005B32F91886
:104CA000FB580839994203D1ECE09B68994204D043
:104CB0005A6822F003026245F7D8D968C4E9023184
:104CC0008C60DC602CE7142B69D9542B00F2FE8039
:104CD0002B0B03F16F0003F16E0EC300DBE6D4F87B
:104CE00008C03046661945F001056560CCF80C3007
:104CF000C3F808C042F00103C7E90466C6E90288A8
:104D00007360625000F03AF90834A7E6A001002071
:104D1000A8010020D80E002094010020A80E002039
:104D2000D40E0020D00E0020214430464A6842F0C4
:104D300001024A6054F8082FD3609A6000F01EF90F
:104D40008CE6A4443046DCF8043043F00103CCF890
:104D5000043000F013F9083480E6E80805F1080390
:104D600064E6621943F0010145F0010565603046D3
:104D7000C7E90422C2E90288516044F80C3000F00F
:104D8000FDF808346AE64FEA9C1202F13903DB00B1
:104D9000383284E7BC4228D0BC68626848E703F137
:104DA0005C0003F15B0EC30075E65AF80839534501
:104DB00040F0DA8010F0030F00F1FF30F5D17B688E
:104DC00023EA0C037B604FEA4C0C9C453FF6E2AEB5
:104DD000BCF1000F04D1DDE64FEA4C0C09F10409E7
:104DE0001CEA030FF8D04846ADE6604B186808EBA4
:104DF000000C0BF1FF31C3F800C0106801306FD018
:104E000004EB0902AAEB020262441A601AF00702DC
:104E1000CDE9002340D0C2F108029244D04408EA10
:104E200001005A44121A02EA010B5946304601F0B9
:104E3000E9FF421C019B6FD0A0EB0A0000EB0B08BE
:104E40001868C7F808A048F001025844BC42CAF8E4
:104E5000042018603FF4E1AEB9F10F0F43D9616847
:104E6000A9F10C0222F0070201F001011143616077
:104E70004FF0050CA1180F2AC1E901CC54D8DAF87B
:104E80000420CAE692104FF0010C0CFA02F24EEA2E
:104E9000020EC7F804E011E70AEB08020A40ABEB88
:104EA000020202EA010B5946304601F0ABFF431CF7
:104EB000019BC1D1DDF800B0C2E7542A17D84FEAF0
:104EC0001C3202F16F03DB006E32E8E6B3F5AA7F15
:104ED00017D8EB0B03F1780003F1770EC300DAE586
:104EE000C2F800A092E70123CAF80430A8E6B2F5A0
:104EF000AA7F24D84FEADC3202F17803DB00773254
:104F0000CDE640F25452934224D8AB0C03F17D001D
:104F100003F17C0EC300BEE5009A083A9044A8EB6A
:104F20000A084FF0000B8BE7304604F108010093AC
:104F3000FFF770FC009BD7F808A018689FE740F2C5
:104F400054539A420CD84FEA9C4202F17D03DB0095
:104F50007C32A4E64FF47E737F204FF07E0E9AE5FC
:104F60004FF47E737E229AE67B682CE7A80E002021
:104F70000148FFF7DFBB00BF980E00200148FFF794
:104F8000DBBB00BF980E00202DE9F04FDDB00C46D2
:104F90000D9115460F93834601F030FF0368199376
:104FA0001846FBF78DFB0021179008222CA8FFF76D
:104FB000E9FAA389190603D52369002B00F04B8772
:104FC000002333AA0024CDE93133CDE91B331293FA
:104FD000189320931D930A930023CDE91434309243
:104FE00014462E46B246764BD3F8E45001F000FF4B
:104FF0002CAA0346009228A952465846A8470028E2
:1050000000F0B180C0F2A780289A252A034601D07B
:105010009A44E8E7BAEB0607054640F0A88000236B
:105020001A464FF0FF31CDE908218DF897300B93E8
:105030000AF1010A9AF800300AF1010AA3F12002EC
:105040005A2A00F2BF80DFE812F02203BD00BD0043
:105050001B03BD00BD00BD006A00BD00BD003A02DB
:105060005602BD004502FF02BD00F8025B005B0076
:105070005B005B005B005B005B005B005B00BD00F6
:10508000BD00BD00BD00BD00BD00BD003701BD00BD
:10509000BA016302370137013701BD00BD00BD0011
:1050A000BD005C02BD00BD00CD02BD00BD00BD0065
:1050B000E401BD00E502BD00BD00AD06BD00BD00C0
:1050C000BD00BD00BD00BD00BD00BD003701BD007D
:1050D000BA0116023701370137014C0216027F0070
:1050E000BD008B02BD007C02AB069D027F00BD00AF
:1050F000E4017C00A806BD00BD00D306BD007C0015
:10510000A3F1300200211AF8013B01EB810102EB0F
:105110004101A3F13002092AF5D90B918EE75846D7
:1051200001F06CFE43681D931846FBF7C9FA209006
:105130000546584601F062FE83681B93002D40F03F
:10514000B0859AF8003077E7089B43F02003089376
:105150009AF8003070E7082200212CA8FFF712FA15
:1051600001239A443FE7BAEB0607054610D0329B6D
:105170003B443293319B0133072BC4E900673193E1
:1051800015DC08340A9B3B440A93002D7FF447AF9B
:10519000329B002B41F095810D9B9B8903F04003CE
:1051A000002B41F0BE830A985DB0BDE8F08F0D99E9
:1051B00030AA584601F09EFC0028EDD133ACE1E75F
:1051C000A80500201093002BE2D000228DF80C31AE
:1051D00001238DF8972006930E920C930992169254
:1051E0001392119243AE089B13F0020302D006996A
:1051F000023106910899329D11F0840805D10B996E
:1052000006980F1A002F00F39E806AB10122626097
:10521000319A013201350DF19701072A3295319209
:10522000216000F3D68308346BB1319B26AA013389
:1052300002352260072B4FF00202329531936260F3
:1052400000F3BD830834B8F1800F00F0C182099BE0
:105250000C9A9F1A002F00F3FB82089BDA0500F1DD
:1052600021820C9B63601D44319B26600133072B18
:105270003295319300F342830834089B5A0705D5D1
:105280000B9B069A9E1A002E00F3B083DDE90A32CA
:1052900006998A42ACBF9B185B180A93002D40F018
:1052A0000E83002331930E9B1BB10E995846FFF7D6
:1052B000B1FA33AC564695E610930F9B073323F0B3
:1052C0000703F3E802780F9328F000431F931E971B
:1052D000DDE91E01A74B4FF0FF32CDE91478FBF753
:1052E0008FFD002840F00385DDE91E01A14B4FF042
:1052F000FF32FBF767FD002840F0F984002200230D
:1053000038464146FBF754FD002841F01E809DF8C9
:105310009720089B984E23F080030893974B109991
:105320004729D8BF1E46002303210E9306910C91F6
:105330000993169313931193002A3FF454AF069BDD
:10534000013306934FE7102F319A41F33E82DFF885
:1053500030C2CDF868C0214628460D9C21934FF0FD
:105360001009654604E0103F102F01F1080115DD1A
:1053700001321030072AC1E90059CDE93120F2DDB0
:1053800030AA2146584601F0B5FB002840F09F8224
:10539000103F102FDDE9312033A9E9DC219B0C46B9
:1053A000054601321A9921603D44072ACDE931258D
:1053B000676000F3D5869DF89720083425E70F9A9B
:1053C0001093432B02F1040503D0089BDA0640F149
:1053D0001385082200212EA8FFF7D4F80F9B43AEB7
:1053E0001A6831462EAB584603F074F90346013370
:1053F0000C9001F091820C9B23EAE3730693002248
:105400000F958DF897200E92099216921392119291
:10541000E9E60F9F109357F8046B00238DF897303F
:10542000002E00F02785109B532B00F0C086089BB0
:1054300013F01003119340F0BA86099B002BC1F2C0
:105440004B8011991A463046FBF7E2F80E9000287F
:1054500001F0A0820E9B11999DF897200F979B1B3E
:105460000C9323EAE3730693732309911691139126
:105470000E91109360E71093089B9B0650D50F9BED
:10548000073323F007031A46596852F8083B0F9276
:105490000A460029C0F2CD8309990029C0F2808212
:1054A000089921F0800553EA020140F07A82099AB6
:1054B000002A40F07B8208950C925CAE5EE10F9B67
:1054C00053F8042B0B92002A80F2DD830B9A0F9382
:1054D00052420B92089B43F0040308939AF8003061
:1054E000AAE59AF80030682B00F0AB84089A42F0E5
:1054F00040020892A0E52B238DF897309AF80030EF
:105500009AE5089B43F0080308939AF8003093E566
:105510001093089B43F010030893089B9B06AED49E
:1055200008990F9ACF0652F8043B00F1CA830899F4
:105530004E0640F1B1860F9243F3C03211461BB2C2
:10554000A7E7089B9D0640F1C1830F9B0A9A1B6841
:105550001A60D2175A600F9B04330F93564641E5E9
:105560009AF800306C2B00F06284089A42F0100226
:10557000089261E5FFFFEF7FECA20008E8A20008B7
:10558000C0A400080F9A089B43F0020552F8043BA0
:105590000F9247F63002ADF898207820B14A189261
:1055A0000221002210900020099E8DF89700002E05
:1055B000C0F2CD8025F08000089053EA020040F050
:1055C000C580002E40F0DC85002940F0398315F0BD
:1055D00001030C9300F05C8330238DF86F310DF2E2
:1055E0006F16CBE01093089B43F010030893089BC1
:1055F00013F0200200F0F8820F9B073323F007031B
:1056000019465A6851F8083B0F91089921F48065B2
:105610000021C8E71093089B43F0100515F0200205
:1056200000F0F1820F9B073323F0070319465A68F5
:1056300051F8083B0F910121B5E7089B43F0800327
:1056400008939AF80030F7E4504610F8013B2A2BF3
:1056500001F01C82A3F13002092A98BF002101F257
:10566000F58010F8013B01EB810102EB4101A3F150
:105670003002092AF5D941EAE17209928246DDE455
:10568000089B43F0010308939AF80030D4E49DF896
:1056900097209AF80030002A7FF4CEAC20228DF8B3
:1056A0009720C9E4109B652B40F33281DDE914019A
:1056B00000220023FBF772FB002800F0D281319B0F
:1056C000694A2260013301350122072B329531935B
:1056D000626000F360850834279B129A934280F23F
:1056E000CD82179B199A1D44C4E90023319B329542
:1056F0000133072B319300F38F830834129B5E1E16
:10570000002E7FF7BAAD102E319BDFF8609140F389
:10571000EB80DDF83480102704E00834103E102EB2
:1057200040F3E28001331035072BC4E90097CDE93F
:105730003135F2DD30AA4146584601F0DBF9002848
:1057400040F0C580DDE9313533ACE7E7089D01293C
:1057500000F0278102295CAE1FD1189803F00F01D9
:105760001B09415C06F8011D43EA0273120953EA62
:105770000201F3D15CAB9B1B08950C9309990C9823
:105780009DF8972081424FF00003B8BF01460E9369
:105790000691169313931193CEE503F00701DB08EE
:1057A00043EA4273D208303153EA0207304606F822
:1057B000011DF2D1EF07DDD53029DBD030230238CF
:1057C00006F8013C5CAB1B1A08950C930646D5E71E
:1057D0000B9B069A9F1A002F7FF739AD102F319B34
:1057E000DFF8889022DD2A464FF010084D46DDF89C
:1057F000349004E0103F102F04F1080414DD01334D
:105800001032072BC4E90058CDE93132F2DD30AA5D
:105810004946584601F06EF9002858D1103F102F24
:10582000DDE9313233ACEADCA946154601333D44AB
:10583000072BCDE93135C4F80090676000F3EC84A4
:10584000099B0C9A9F1A002F04F108047FF705ADFD
:10585000102F319BDFF8149025DD2A464FF01008F9
:105860000D9D0AE0F8A2000828A30008B0A40008D3
:10587000103F102F04F1080414DD0133B049103239
:10588000072BC4E90018CDE93132F1DD30AA2946F1
:10589000584601F02FF9D0B9103F102FDDE9313211
:1058A00033ACEADC154601333D44072BCDE93135F5
:1058B000C4F80090676000F38B810834CDE40D9943
:1058C00030AA584601F016F900283FF4EAAC0E9BC6
:1058D000002B3FF461AC0E995846FEF79BFF0D9BE1
:1058E0009B8903F040035BE401333544072BC4F884
:1058F00000906660CDE931357FF7BEAC0D9930AAD6
:10590000584601F0F7F80028E1D1329D33ACB4E4F9
:10591000129B319F012B05F1010507F1010704F1ED
:10592000080840F311810123072FCDE93175266066
:10593000636000F38981179B199A01371D44072F73
:10594000C8E90023CDE9317500F38B8108F108081F
:10595000129BDDE914015C1E00220023FBF71EFAF6
:10596000002840F00A81013701362544072FCDE990
:105970003175C8F80060C8F8044000F3F18008F100
:1059800008081C9BC8F8043001371D44072F2AABB8
:10599000CDE93175C8F80030B0DC08F108046CE4DA
:1059A000089D0A2B72F1000180F05A8330338DF884
:1059B0006F31012308950C930DF26F16DEE60D99F9
:1059C00030AA584601F096F8002880D1329D33ACB9
:1059D00039E40D991A9330AA584601F08BF8002843
:1059E0007FF475AF329D1A9B33AC1DE4102E319BB2
:1059F00040F34087DFF84C91DDF83480CDF86890B3
:105A0000102704E0103E102E04F1080415DD0133C8
:105A10001035072BC4E90097CDE93135F2DD30AA06
:105A20004146584601F066F800287FF450AF103E1A
:105A3000102EDDE9313533ACE9DC01331A9A3544F7
:105A4000072BC4E90026CDE931357FF71FAC0D994E
:105A500030AA584601F04EF800287FF438AF329D46
:105A600014E42799002940F34C83DDE9118398451C
:105A7000A8BF9846B8F1000F0ADD319B01334544B9
:105A8000072BC4E900683295319300F3728608341D
:105A9000119FB8F1000FA8BFA7EB0807002F00F374
:105AA000FA81119B33440993089B5F0500F11A8228
:105AB000279B129A9342C0F2A482089AD00700F161
:105AC000A082129AB718D61A099BFF1AB742A8BF2C
:105AD0003746002F0ADD2360319B676001333D4468
:105AE000072B3295319300F3A2860834002FA8BF0C
:105AF000F61B002E7FF7C1AB102E319BDFF84090D4
