:020000040800F2
:10000000000002207504000895030008970300080B
:10001000990300089B0300089D03000800000000EE
:100020000000000000000000000000009F03000826
:10003000A103000800000000A3030008A5030008B6
:10004000C5040008C5040008C5040008C50400086C
:10005000C5040008C5040008C5040008C50400085C
:10006000C5040008C5040008C5040008C50400084C
:10007000C5040008C5040008C5040008C50400083C
:10008000C5040008C5040008C504000800000000FD
:10009000000000000000000000000000C50400088F
:1000A000C5040008C5040008C5040008C50400080C
:1000B000C5040008C5040008C5040008C5040008FC
:1000C000C5040008C5040008C5040008C5040008EC
:1000D000C5040008AD030008C504000800000000C6
:1000E000C5040008C5040008C5040008000000009D
:1000F000000000000000000000000000C50400082F
:1001000000000000C5040008C5040008C50400087C
:1001100000000000000000000000000000000000DF
:10012000C5040008C5040008C5040008C50400088B
:10013000C5040008000000000000000000000000EE
:10014000000000000000000000000000C5040008DE
:10015000C5040008C5040008C5040008C50400085B
:10016000C5040008C50400080000000000000000ED
:10017000000000000000000000000000000000007F
:1001800000000000C504000800000000000000009E
:08019000C5040008C5040008C5
:1001980053B94AB9002908BF00281CBF4FF0FF31E6
:1001A8004FF0FF3000F00CB8ADF1080C6DE904CE4B
:1001B80001F0BEF9DDF804E0DDE9022304B0704780
:1001C800704700BF0348044B834202D0034B03B17E
:1001D80018477047100000201000002000000000A1
:1001E8000548064B1B1AD90F01EBA301491002D091
:1001F800034B03B11847704710000020100000207F
:100208000000000010B5064C237843B9FFF7DAFF69
:10021800044B13B10448AFF300800123237010BDD1
:100228001000002000000000B819000808B5054BB0
:100238001BB105490548AFF30080BDE80840FFF74A
:10024800CFBF00BF0000000014000020B81900084C
:1002580084B000220192104B196B41F080011963A0
:10026800196B01F08001019101990292196B41F01B
:1002780001011963196B01F00101029102990392BE
:100288001A6B42F002021A631B6B03F0020303931A
:10029800039B04B0704700BF0038024072B6FEE707
:1002A80000B595B03022002108A801F09FFA00237C
:1002B8000393049305930693079301931E4A116CC5
:1002C80041F080511164126C02F080520192019A3F
:1002D80002931A4A116841F440411160126802F40D
:1002E80040420292029A0222089201210B911021A7
:1002F8000C910E920F93082310936423119312927A
:100308000423139308A800F0EFFA88B90F23039386
:1003180002230493002305934FF480520692079317
:10032800032103A800F04AFD20B915B05DF804FBCD
:10033800FFF7B4FFFFF7B2FF00380240007000403B
:1003480008B500F0E3F8FFF7ABFFFFF781FF00F017
:1003580033F8FEE782B0002100910B4B5A6C42F44F
:1003680080425A645A6C02F480420092009A0191C9
:100378001A6C42F080521A641B6C03F0805301938C
:10038800019B02B0704700BF00380240FEE7FEE75D
:10039800FEE7FEE7FEE770477047704708B500F0D4
:1003A800CFF808BD08B5024800F080FF08BD00BFBF
:1003B8002C0000207047000008B50A480A4B03606B
:1003C8004FF4E133436000238360C36003610C2270
:1003D80042618361C36100F0ADFE00B908BDFFF75B
:1003E8005DFFFBE72C0000200010014010B588B02D
:1003F800002303930493059306930793026803F17C
:10040800804303F588339A4201D008B010BD002418
:10041800019403F594335A6C42F010025A645A6CF2
:1004280002F010020192019A02941A6B42F0020241
:100438001A631B6B03F002030293029BC02303930E
:1004480002230493032306930723079303A906486B
:1004580000F062F922462146252000F0D7F8252031
:1004680000F0E4F8D1E700BF00040240DFF834D020
:10047800FFF7A0FF0C480D490D4A002302E0D458AD
:10048800C4500433C4188C42F9D30A4A0A4C0023D6
:1004980001E013600432A242FBD301F0F9F9FFF73F
:1004A8004FFF7047000002200000002010000020CD
:1004B800FC1900081000002010020020FEE70000D0
:1004C80010B504460E4B1A784FF47A73B3FBF2F367
:1004D8000C4A1068B0FBF3F000F0ACF868B90F2CC8
:1004E80001D901200AE0002221464FF0FF3000F038
:1004F8008DF8054B1C60002000E0012010BD00BFF6
:1005080004000020000000200800002008B50B4B64
:100518001A6842F400721A601A6842F480621A601B
:100528001A6842F480721A60032000F05DF80F2008
:10053800FFF7C6FFFFF70EFF002008BD003C024092
:10054800034A1168034B1B780B441360704700BFC4
:100558007400002004000020014B1868704700BF99
:1005680074000020002807DB00F01F024009012367
:100578009340024A42F82030704700BF00E100E093
:10058800002808DB0901C9B200F1604000F56140AC
:1005980080F80013704700F00F000901C9B2014B41
:1005A8001954704714ED00E000B500F00700C0F1E1
:1005B800070CBCF1040F28BF4FF0040C031D062BD9
:1005C8000FD9C31E4FF0FF3E0EFA0CF021EA0001CE
:1005D80099400EFA03FE22EA0E0241EA02005DF893
:1005E80004FB0023EEE70000074AD36823F4E06326
:1005F8001B041B0C000200F4E060034343F0BF63DC
:1006080043F40033D360704700ED00E010B50446B2
:10061800054BD868C0F30220FFF7C6FF0146204605
:10062800FFF7AEFF10BD00BF00ED00E008B5FFF713
:1006380099FF08BD0138B0F1807F0BD24FF0E0235D
:100648005861054AF02182F823100020986107229A
:100658001A6170470120704700ED00E070B504464C
:10066800866DFFF779FF94F83530DBB2022B06D0A0
:1006780080236365002384F83430012070BD05466B
:100688002268136823F0160313602268536923F065
:1006980080035361236CE3B12268136823F00803D5
:1006A80013602268136823F00103136023681B6832
:1006B80013F0010F11D0FFF74FFF431B052BF5D99E
:1006C80020236365032084F83500002384F8343040
:1006D800D4E7A36C002BDFD1E3E7E26D3F2393401F
:1006E800B360012384F83530002084F83400C5E76E
:1006F80090F83530DBB2022B03D08023436501200C
:100708007047052380F835300268136823F0010329
:10071800136000207047000000230F2B00F2DA80DE
:1007280030B583B068E085684FEA430E032404FAC5
:100738000EF425EA0405CC6804FA0EF42C43846010
:10074800446824EA02044A68C2F300129A40224329
:1007580042605FE0DC08083450F8242003F0070505
:10076800AD004FF00F0E0EFA05FE22EA0E0E0A69D2
:10077800AA4042EA0E0240F824205FE0042200E08A
:10078800002202FA0EF22A430234534D45F824207F
:10079800524A94686FEA0C0224EA0C05D1F804E086
:1007A8001EF4801F01D04CEA04054C4CA560E46897
:1007B80002EA0405D1F804E01EF4001F01D04CEA57
:1007C8000405464CE560646802EA0405D1F804E0D3
:1007D8001EF4003F01D04CEA0405404C65602468D3
:1007E80022404D6815F4803F01D04CEA04023B4C8E
:1007F800226001330F2B6BD801229A400C6804EA5F
:10080800020C32EA0404F4D14C6804F00304013CFD
:10081800012C88D94A6802F00302032A09D0C46867
:100828005D000322AA4024EA02048A68AA402243FF
:10083800C2604A6802F00302022A8BD004684FEAB9
:10084800430E032202FA0EF224EA02044A6802F076
:10085800030202FA0EF2224302604A6812F4403F91
:10086800C7D0002201921E4A546C44F48044546458
:10087800526C02F480420192019A9C08A51C164A07
:1008880052F8255003F0030E4FEA8E0E0F2202FA9B
:100898000EF225EA0205134A90423FF471AF02F5C1
:1008A800806290420ED002F5806290420CD002F530
:1008B800806290420AD002F5806290423FF45EAFB7
:1008C80007225EE701225CE702225AE7032258E783
:1008D80003B030BD704700BF00380140003C014004
:1008E8000038024000000240002800F0E08170B5A6
:1008F80082B00446036813F0010F3BD09F4B9B68FE
:1009080003F00C03042B2CD09C4B9B6803F00C03C6
:10091800082B21D06368B3F5803F4FD0B3F5A02FE3
:1009280052D0964B1A6822F480321A601A6822F460
:1009380080221A606368002B50D0FFF70DFE054631
:100948008E4B1B6813F4003F14D1FFF705FE401BC4
:100958006428F5D90320B1E1884B5B6813F4800F54
:10096800D8D0864B1B6813F4003F03D06368002B74
:1009780000F09F81236813F0020F54D07F4B9B68CF
:1009880013F00C0F3ED07D4B9B6803F00C03082B33
:1009980033D0E368002B68D0794B01221A60FFF747
:1009A800DBFD0546754B1B6813F0020F54D1FFF7AA
:1009B800D3FD401B0228F5D903207FE16F4A136855
:1009C80043F480331360B5E76C4B1A6842F4802215
:1009D8001A601A6842F480321A60ABE7FFF7BCFD70
:1009E8000546664B1B6813F4003FC3D0FFF7B4FD00
:1009F800401B6428F5D9032060E1604B5B6813F461
:100A0800800FC6D15D4B1B6813F0020F03D0E3685B
:100A1800012B40F05081594A136823F0F8032169EB
:100A280043EAC1031360236813F0080F42D06369D7
:100A38006BB3534B0122C3F8802EFFF78DFD05469B
:100A48004E4B5B6F13F0020F34D1FFF785FD401B4F
:100A58000228F5D9032031E1484A136823F0F80346
:100A6800216943EAC1031360DDE7454B00221A60A0
:100A7800FFF772FD0546414B1B6813F0020FD2D0F9
:100A8800FFF76AFD401B0228F5D9032016E13C4B0D
:100A98000022C3F8802EFFF75FFD0546374B5B6FDA
:100AA80013F0020F06D0FFF757FD401B0228F5D9B7
:100AB800032003E1236813F0040F77D02F4B1B6C3E
:100AC80013F0805F33D1002301932C4B1A6C42F052
:100AD80080521A641B6C03F080530193019B01251B
:100AE800284B1B6813F4807F23D0A368012B34D0D4
:100AF800052B38D0214B1A6F22F001021A671A6FA2
:100B080022F004021A67A368002B3DD0FFF724FDEA
:100B180006461A4B1B6F13F0020F46D1FFF71CFD58
:100B2800801B41F288339842F3D90320C6E00025A0
:100B3800D6E7144A136843F480731360FFF70CFD7B
:100B48000646104B1B6813F4807FCED1FFF704FDD7
:100B5800801B0228F5D90320B0E0084A136F43F040
:100B680001031367CFE7054B1A6F42F004021A67B7
:100B78001A6F42F001021A67C5E700BF0038024049
:100B88000000474200700040FFF7E6FC0646524B63
:100B98001B6F13F0020F08D0FFF7DEFC801B41F239
:100BA80088339842F3D9032088E0EDB9A369002B74
:100BB80000F08380484A926802F00C02082A51D05B
:100BC800022B17D0454B00221A66FFF7C5FC0446D6
:100BD800414B1B6813F0007F42D0FFF7BDFC001BA0
:100BE8000228F5D9032069E03B4A136C23F08053AF
:100BF8001364DBE7394B00221A66FFF7ADFC0546A4
:100C0800354B1B6813F0007F06D0FFF7A5FC401B8F
:100C18000228F5D9032051E0E369226A1343626A86
:100C280043EA8213A26A5208013A43EA0243E26A9B
:100C380043EA0263284A5360284B01221A66FFF7E9
:100C48008BFC0446244B1B6813F0007F06D1FFF78A
:100C580083FC001B0228F5D903202FE000202DE09B
:100C680000202BE0012B2BD01B4B5B6803F4800189
:100C7800E269914226D103F03F02216A8A4223D1D8
:100C8800616A47F6C0721A40B2EB811F1ED103F4A5
:100C98004031A26A5208013AB1EB024F18D103F071
:100CA8007063E26AB3EB026F14D1002006E0012002
:100CB8007047012002E0012000E0002002B070BD72
:100CC8000120FBE70120F9E70120F7E70120F5E71C
:100CD8000120F3E70120F1E7003802400000474215
:100CE80008B5334B9B6803F00C03042B5BD0082B2F
:100CF8005BD12F4B5A6802F03F025B6813F4800FF8
:100D08002CD02B4B5868C0F388104FEA401CBCEB22
:100D1800000C6EEB0E0E4FEA8E1343EA9C634FEA0B
:100D28008C11B1EB0C0163EB0E03DB0043EA51734A
:100D3800C90011EB000C43F10003590200234FEAEC
:100D48004C2041EADC51FFF723FA194B5B68C3F3E7
:100D5800014301335B00B0FBF3F008BD144B586846
:100D6800C0F388104FEA401CBCEB000C6EEB0E0E73
:100D78004FEA8E1343EA9C634FEA8C11B1EB0C01E6
:100D880063EB0E03DB0043EA5173C90011EB000C5F
:100D980043F10003990200234FEA8C2041EA9C5159
:100DA800FFF7F6F9D1E70348D7E70348D5E700BFCF
:100DB8000038024000127A000024F400002800F0F5
:100DC8009B8070B50D4604464F4B1B6803F0070324
:100DD8008B4208D2CBB24C4A1370136803F0070356
:100DE8008B4240F08B80236813F0020F17D013F06A
:100DF800040F04D0454A936843F4E0539360236892
:100E080013F0080F04D0414A936843F46043936099
:100E18003E4A936823F0F003A1680B43936023686C
:100E280013F0010F32D06368012B21D09A1E012ADA
:100E380025D9364A126812F0020F61D033498A6800
:100E480022F0030213438B60FFF786FB06462F4B05
:100E58009B6803F00C036268B3EB820F16D0FFF7B0
:100E68007BFB801B41F288339842F0D9032042E093
:100E7800264A126812F4003FE0D101203BE0234AE1
:100E8800126812F0007FD9D1012034E01E4B1B6894
:100E980003F00703AB4207D9EAB21B4B1A701B6871
:100EA80003F00703AB422DD1236813F0040F06D0DB
:100EB800164A936823F4E053E1680B439360236870
:100EC80013F0080F07D0114A936823F4604321698F
:100ED80043EAC1039360FFF703FF0C4B9B68C3F31E
:100EE80003130B4AD35CD8400A4B18600A4B1868A6
:100EF800FFF7E6FA002070BD012070470120FAE7ED
:100F08000120F8E70120F6E7003C024000380240E3
:100F1800D81900080000002008000020014B1868BC
:100F2800704700BF0000002008B5FFF7F7FF044B2B
:100F38009B68C3F38223034AD35CD84008BD00BF33
:100F480000380240D019000808B5FFF7E7FF044B46
:100F58009B68C3F34233034AD35CD84008BD00BF43
:100F680000380240D0190008026802F10C0353E867
:100F7800003F23F490730C3242E800310029F3D18A
:100F8800026802F1140353E8003F23F0010314320E
:100F980042E800310029F3D1036B012B05D020234F
:100FA80080F84230002303637047026802F10C03A3
:100FB80053E8003F23F010030C3242E800310029C7
:100FC800F3D1ECE790F84130DBB2212B01D00220BD
:100FD80070478368B3F5805F17D0036A5A1C0262B2
:100FE8001A7803685A60C38C9BB2013B9BB2C384D6
:100FF8004BB90268D36823F08003D3600268D368D2
:1010080043F04003D360002070470369002BE4D10C
:10101800036A1B880268C3F308035360036A023338
:101028000362E0E710B504460268136923F44053ED
:10103800C1680B431361836802691A4343691A4301
:10104800C3691A430168CB6823F4164323F00C03E1
:101058001343CB600268536923F4407381690B43DF
:1010680053610368314A934206D002F58062934285
:1010780002D0FFF759FF01E0FFF766FFE369B3F518
:10108800004F29D00021031849411B1841F10001E4
:10109800C90041EA5371DB00181863684FEA8302FC
:1010A8004FEA937341F10001FFF772F8204AA2FB5F
:1010B80000314909642303FB11031B013233A2FBEE
:1010C80003235B0903F0F00202EB011203F00F03A4
:1010D800216813448B6010BD0023021843EB030101
:1010E800121841F10001C90041EA5271D2001018EA
:1010F80041F10001626892185B41FFF749F80C4A18
:10110800A2FB00314909642303FB1103DB003233DE
:10111800A2FB03235B095A0002F4F87202EB0112E6
:1011280003F00703216813448B60D4E700100140E3
:101138001F85EB5160B310B5044690F8413013B3E6
:10114800242384F841302268D36823F40053D36001
:101158002046FFF767FF2268136923F49043136161
:101168002268536923F02A0353612268D36843F441
:101178000053D36000206064202384F8413084F851
:101188004230606310BD80F84030FFF72FF9D7E791
:1011980001207047704708B50168CA6822F040020C
:1011A800CA60202280F84120FFF7F4FF002008BD24
:1011B8007047704708B5806B0023C385C384FFF769
:1011C800F8FF08BD704790F84230DBB2222B69D196
:1011D8008368B3F5805F4FD0826AB3F5805F04D02F
:1011E800002B56D10369002B53D103685B68137039
:1011F800836A01338362C38D9BB2013B9BB2C38573
:10120800002B51D100B583B00268D36823F02003C6
:10121800D3600268D36823F48073D360026853698B
:1012280023F001035361202380F8423000234363F5
:10123800036B012B33D100230363026802F10C0313
:1012480053E8003F23F010030C3242E80031002934
:10125800F3D103681A6812F0100F06D00022019229
:101268001A6801925B680193019B818DFFF7AAFFC1
:10127800002003B05DF804FB0269002AACD1826A41
:1012880003685B68C3F308031380836A02338362CD
:10129800B1E703685B6803F07F031370A8E7FFF703
:1012A80087FFE5E7022070470020704710B582B03D
:1012B800044602681368D068516913F00F0F09D10A
:1012C80013F0200F0CD010F0200F09D02046FFF7A4
:1012D8007AFF16E011F0010115D110F4907F12D1B8
:1012E800216B012979D013F0800F03D010F0800F03
:1012F80040F0148113F0400F03D010F0400F40F07D
:10130800118102B010BD13F0010F06D010F4807FD8
:1013180003D0626C42F00102626413F0040F04D03F
:1013280019B1626C42F00202626413F0020F04D039
:1013380019B1626C42F00402626413F0080F07D01E
:1013480010F0200F00D119B1626C42F008026264FB
:10135800626C002AD5D013F0200F02D010F0200FB5
:1013680029D123685B6903F04003626C12F0080F0F
:1013780000D163B32046FFF7F7FD23685B6913F0DC
:10138800400F20D0226802F1140353E8003F23F0F5
:101398004003143242E800310029F3D1E36B73B102
:1013A800624A1A65E06BFFF7A3F90028A9D0E06B41
:1013B800036D9847A5E72046FFF705FFD1E72046CC
:1013C800FFF7F7FE9DE72046FFF7F3FE99E7204673
:1013D800FFF7EFFE0023636493E713F0100F82D04A
:1013E80010F0100F3FF47FAF0023019313680193AF
:1013F80053680193019B536913F0400F52D0E26B7D
:1014080013685B689BB2002B3FF47BAFA18D9942B8
:101418007FF677AFE385D369B3F5807F37D022684D
:1014280002F10C0353E8003F23F480730C3242E8C6
:1014380000310029F3D1226802F1140353E8003F78
:1014480023F00103143242E800310029F3D1226865
:1014580002F1140353E8003F23F04003143242E83A
:1014680000310029F3D1202384F84230002323637C
:10147800226802F10C0353E8003F23F010030C32FA
:1014880042E800310029F3D1E06BFFF7E7F80223C7
:101498006363A18DE38D9BB2C91A89B22046FFF719
:1014A80091FE2EE7A18DE38D9BB2C91A89B2E38D17
:1014B8009BB2002B3FF425AF00293FF422AF2268EE
:1014C80002F10C0353E8003F23F490730C3242E816
:1014D80000300028F3D1226802F1140353E8003FDA
:1014E80023F00103143242E800300028F3D120230E
:1014F80084F8423000232363226802F10C0353E886
:10150800003F23F010030C3242E800300028F3D1EA
:10151800022363632046FFF755FEF2E62046FFF7F5
:1015280051FDEEE62046FFF736FEEAE6BD1100085B
:101538002DE9F047089D0E4604460F46002B4AD178
:1015480094468C45B2FA82F260D942B1C2F12003C6
:10155800974020FA03F30CFA02FC1F4394404FEA29
:101568001C4E1FFA8CF6B7FBFEF1230C0EFB11770D
:1015780043EA074301FB06F098420AD91CEB030330
:1015880001F1FF3780F01581984240F2128102394B
:1015980063441B1AA4B2B3FBFEF00EFB103344EAFB
:1015A800034400FB06F6A6420AD91CEB040400F12A
:1015B800FF3380F00081A64240F2FD806444023887
:1015C80040EA0140A41B00211DB1D4400023C5E915
:1015D8000043BDE8F0878B4205D90DB1C5E900018C
:1015E80000210846F5E7B3FA83F1002946D1B34252
:1015F80002D3824200F2F580841A66EB03020120CE
:101608001746002DE5D0C5E90047E2E7002A40F07B
:101618009380A1EB0C034FEA1C471FFA8CFE0121B3
:10162800B3FBF7F607FB1630230C43EA00430EFB27
:1016380006F0984208D91CEB030306F1FF3802D2E2
:10164800984200F2D08046461B1AA4B2B3FBF7F0CA
:1016580007FB103344EA03440EFB00FEA64508D9F5
:101668001CEB040400F1FF3302D2A64500F2B68059
:101678001846A4EB0E0440EA0640A5E7C1F120078E
:101688008B4022FA07FC4CEA030C06FA01FE20FA0A
:1016980007F426FA07F344EA0E0400FA01F84FEAC1
:1016A8001C404FEA1449B3FBF0FE1FFA8CF600FB0E
:1016B8001E3349EA03430EFB06F9994502FA01F283
:1016C8000BD91CEB03030EF1FF3A80F08580994596
:1016D80040F28280AEF1020E6344A3EB0909A4B282
:1016E800B9FBF0F300FB139944EA094403FB06F63F
:1016F800A64208D91CEB040403F1FF3068D2A642C5
:1017080066D9023B644443EA0E40A41BA0FB02E6F0
:10171800B4427346B14652D34FD05DB1B8EB030221
:1017280064EB090404FA07F722FA01F31F43CC40DB
:10173800C5E9007400214CE7C2F1200120FA01F349
:101748000CFA02FC26FA01F1964033434FEA1C4793
:101758001FFA8CFEB1FBF7F007FB1016190C41EAD3
:10176800064100FB0EF68E4204FA02F408D91CEB7F
:10177800010100F1FF382DD28E422BD90238614485
:10178800891B9BB2B1FBF7F607FB161143EA01432D
:1017980006FB0EF1994208D91CEB030306F1FF384A
:1017A80014D2994212D9023E63445B1A46EA0041B8
:1017B80036E73946EDE6184602E7F045ADD2BEEB0E
:1017C800020366EB0C060138B146A6E74646ECE78D
:1017D800034698E74046D3E7D6467EE76444023896
:1017E80047E708460DE7023E63442DE7830730B517
:1017F80047D0541E002A3ED0CAB2034601E0013C3D
:1018080039D303F8012B9D07F9D1032C2CD9CDB27C
:1018180005EB05250F2C05EB054535D9A4F110027C
:1018280022F00F0C03F1100EE6444FEA121C1A4680
:10183800C2E90055C2E9025510327245F8D10CF1DF
:10184800010214F00C0F03EB021204F00F0C13D07A
:10185800ACF1040323F003030433134442F8045B9C
:101868009342FBD10CF003042CB1C9B21C4403F819
:10187800011BA342FBD130BD64461346002CF4D1B2
:10188800F9E703461446C0E71A46A446E0E700BF56
:1018980070B50F4B0F4DAB42A3EB050607D0B61042
:1018A800002455F8043B01349847A642F9D800F0C3
:1018B8007FF8094D094B5E1BAB424FEAA60606D0DE
:1018C800002455F8043B01349847A642F9D870BD66
:1018D800F0190008F0190008F0190008F8190008B4
:1018E800704700BF704700BF024B13B1024800F0B9
:1018F80005B87047000000001119000800230146D0
:101908001A46184600F014B838B5074D074C2C1B7A
:10191800A41005D0013C55F8043D9847002CF9D196
:10192800BDE8384000F04AB8FC190008F81900086A
:101938002DE9F8431B4D0646286898460F46914600
:10194800FFF7CEFF184B1C681CB3286865681F2D6D
:1019580022DC4EB96B1C0235636044F82570FFF732
:10196800C1FF0020BDE8F88304EB85010123C1F81D
:101978008890D4F88821AB401A43022EC4F88821F5
:10198800C1F80881E6D1D4F88C211A43C4F88C2117
:10199800E0E7064C1C60D8E7FFF7A4FF4FF0FF30E4
:1019A800E0E700BF0C0000207C0000208000002041
:1019B800F8B500BFF8BC08BC9E467047F8B500BF34
:0819C800F8BC08BC9E46704704
:1019D00000000000010203040000000000000000FD
:0819E0000102030406070809D7
:0819E80050FBFF7F010000002D
:0819F000F1180008350200089F
:0419F8000D020008D4
:1019FC000024F4000100000010000000780000201A
:040000050800047576
:00000001FF
